

Microchip Technology PIC LITE Macro Assembler V2.00 build -1524193055 
                                                                                               Wed Dec 12 23:49:52 2018

Microchip Technology Omniscient Code Generator v2.00 (Free mode) build 20180527130849
     1  0000                     
      + 0000                     
     2                           ; Version 2.00
     3                           ; Generated 27/05/2018 GMT
     4                           
     5                           ; 
     6                           ; Copyright © 2018, Microchip Technology Inc. and its subsidiaries ("Microchip")
     7                           ; All rights reserved.
     8                           ; 
     9                           ; This software is developed by Microchip Technology Inc. and its subsidiaries ("Microch
                                 ip").
    10                           ; 
    11                           ; Redistribution and use in source and binary forms, with or without modification, are
    12                           ; permitted provided that the following conditions are met:
    13                           ; 
    14                           ;     1. Redistributions of source code must retain the above copyright notice, this lis
                                 t of
    15                           ;        conditions and the following disclaimer.
    16                           ; 
    17                           ;     2. Redistributions in binary form must reproduce the above copyright notice, this 
                                 list
    18                           ;        of conditions and the following disclaimer in the documentation and/or other
    19                           ;        materials provided with the distribution.
    20                           ; 
    21                           ;     3. Microchip's name may not be used to endorse or promote products derived from th
                                 is
    22                           ;        software without specific prior written permission.
    23                           ; 
    24                           ; THIS SOFTWARE IS PROVIDED BY MICROCHIP "AS IS" AND ANY EXPRESS OR IMPLIED WARRANTIES,

    25                           ; INCLUDING, BUT NOT LIMITED TO, THE IMPLIED WARRANTIES OF MERCHANTABILITY AND FITNESS F
                                 OR
    26                           ; PURPOSE ARE DISCLAIMED.  IN NO EVENT SHALL MICROCHIP BE LIABLE FOR ANY DIRECT, INDIREC
                                 T,
    27                           ; INCIDENTAL, SPECIAL, EXEMPLARY, OR CONSEQUENTIAL DAMAGES (INCLUDING BUT NOT LIMITED TO
                                 
    28                           ; PROCUREMENT OF SUBSTITUTE GOODS OR SERVICES; LOSS OF USE, DATA OR PROFITS; OR BUSINESS
                                 
    29                           ; INTERRUPTION) HOWSOEVER CAUSED AND ON ANY THEORY OF LIABILITY, WHETHER IN CONTRACT, ST
                                 RICT
    30                           ; LIABILITY, OR TORT (INCLUDING NEGLIGENCE OR OTHERWISE) ARISING IN ANY WAY OUT OF THE U
                                 SE OF
    31                           ; THIS SOFTWARE, EVEN IF ADVISED OF THE POSSIBILITY OF SUCH DAMAGE.
    32                           ; 
    33                           
    34                           
    35                           ; 
    36                           ; Code-generator required, PIC16F18875 Definitions
    37                           ; 
    38  0008                     fsr0h equ 05h
    39  0005                     fsr0l equ 04h
    40  0004                     fsr1h equ 07h
    41  0007                     fsr1l equ 06h
    42  0006                     indf equ 00h
    43  0000                     indf0 equ 00h
    44  0000                     indf1 equ 01h
    45  0001                     intcon equ 0Bh
    46  000B                     pc equ 02h
    47  0002                     pcl equ 02h
    48  0002                     pclath equ 0Ah
    49  000A                     status equ 03h
    50  0003                     wreg equ 09h
    51  0009                     
     2                           opt pagewidth 120
     3  0000                     byte0	macro	val
     4                           	(getbyte(val,0))
     5                           endm
     6  0000                     byte1	macro	val
     7                           	(getbyte(val,1))
     8                           endm
     9  0000                     byte2	macro	val
    10                           	(getbyte(val,2))
    11                           endm
    12  0000                     byte3	macro	val
    13                           	(getbyte(val,3))
    14                           endm
    15  0000                     byte4	macro	val
    16                           	(getbyte(val,4))
    17                           endm
    18  0000                     byte5	macro	val
    19                           	(getbyte(val,5))
    20                           endm
    21  0000                     byte6	macro	val
    22                           	(getbyte(val,6))
    23                           endm
    24  0000                     byte7	macro	val
    25                           	(getbyte(val,7))
    26                           endm
    27  0000                     getword	macro	val,pos
    28                           	(((val) >> (8 * pos)) and 0xffff)
    29                           endm
    30  0000                     word0	macro	val
    31                           	(getword(val,0))
    32                           endm
    33  0000                     word1	macro	val
    34                           	(getword(val,2))
    35                           endm
    36  0000                     word2	macro	val
    37                           	(getword(val,4))
    38                           endm
    39  0000                     word3	macro	val
    40                           	(getword(val,6))
    41                           endm
    42  0000                     gettword	macro	val,pos
    43                           	(((val) >> (8 * pos)) and 0xffffff)
    44                           endm
    45  0000                     tword0	macro	val
    46                           	(gettword(val,0))
    47                           endm
    48  0000                     tword1	macro	val
    49                           	(gettword(val,3))
    50                           endm
    51  0000                     tword2	macro	val
    52                           	(gettword(val,6))
    53                           endm
    54  0000                     getdword	macro	val,pos
    55                           	(((val) >> (8 * pos)) and 0xffffffff)
    56                           endm
    57  0000                     dword0	macro	val
    58                           	(getdword(val,0))
    59                           endm
    60  0000                     dword1	macro	val
    61                           	(getdword(val,4))
    62                           endm
    63  0000                     clrc	macro
    64                           	bcf	3,0
    65                           	endm
    66  0000                     clrz	macro
    67                           	bcf	3,2
    68                           	endm
    69  0000                     setc	macro
    70                           	bsf	3,0
    71                           	endm
    72  0000                     setz	macro
    73                           	bsf	3,2
    74                           	endm
    75  0000                     skipc	macro
    76                           	btfss	3,0
    77                           	endm
    78  0000                     skipz	macro
    79                           	btfss	3,2
    80                           	endm
    81  0000                     skipnc	macro
    82                           	btfsc	3,0
    83                           	endm
    84  0000                     skipnz	macro
    85                           	btfsc	3,2
    86                           	endm
    87  0000                     pushw	macro
    88                           	movwi fsr1++
    89                           	endm
    90  0000                     popw	macro
    91                           	moviw --fsr1
    92                           	endm
    93  0000                     # 54 "C:\Program Files (x86)\Microchip\xc8\v2.00\pic\include\pic16f18875.h"
    94                           INDF0 equ 00h ;# 
    95  0000                     # 74 "C:\Program Files (x86)\Microchip\xc8\v2.00\pic\include\pic16f18875.h"
    96                           INDF1 equ 01h ;# 
    97  0001                     # 94 "C:\Program Files (x86)\Microchip\xc8\v2.00\pic\include\pic16f18875.h"
    98                           PCL equ 02h ;# 
    99  0002                     # 114 "C:\Program Files (x86)\Microchip\xc8\v2.00\pic\include\pic16f18875.h"
   100                           STATUS equ 03h ;# 
   101  0003                     # 177 "C:\Program Files (x86)\Microchip\xc8\v2.00\pic\include\pic16f18875.h"
   102                           FSR0L equ 04h ;# 
   103  0004                     # 197 "C:\Program Files (x86)\Microchip\xc8\v2.00\pic\include\pic16f18875.h"
   104                           FSR0H equ 05h ;# 
   105  0005                     # 221 "C:\Program Files (x86)\Microchip\xc8\v2.00\pic\include\pic16f18875.h"
   106                           FSR1L equ 06h ;# 
   107  0006                     # 241 "C:\Program Files (x86)\Microchip\xc8\v2.00\pic\include\pic16f18875.h"
   108                           FSR1H equ 07h ;# 
   109  0007                     # 261 "C:\Program Files (x86)\Microchip\xc8\v2.00\pic\include\pic16f18875.h"
   110                           BSR equ 08h ;# 
   111  0008                     # 313 "C:\Program Files (x86)\Microchip\xc8\v2.00\pic\include\pic16f18875.h"
   112                           WREG equ 09h ;# 
   113  0009                     # 333 "C:\Program Files (x86)\Microchip\xc8\v2.00\pic\include\pic16f18875.h"
   114                           PCLATH equ 0Ah ;# 
   115  000A                     # 353 "C:\Program Files (x86)\Microchip\xc8\v2.00\pic\include\pic16f18875.h"
   116                           INTCON equ 0Bh ;# 
   117  000B                     # 386 "C:\Program Files (x86)\Microchip\xc8\v2.00\pic\include\pic16f18875.h"
   118                           PORTA equ 0Ch ;# 
   119  000C                     # 448 "C:\Program Files (x86)\Microchip\xc8\v2.00\pic\include\pic16f18875.h"
   120                           PORTB equ 0Dh ;# 
   121  000D                     # 510 "C:\Program Files (x86)\Microchip\xc8\v2.00\pic\include\pic16f18875.h"
   122                           PORTC equ 0Eh ;# 
   123  000E                     # 572 "C:\Program Files (x86)\Microchip\xc8\v2.00\pic\include\pic16f18875.h"
   124                           PORTD equ 0Fh ;# 
   125  000F                     # 634 "C:\Program Files (x86)\Microchip\xc8\v2.00\pic\include\pic16f18875.h"
   126                           PORTE equ 010h ;# 
   127  0010                     # 672 "C:\Program Files (x86)\Microchip\xc8\v2.00\pic\include\pic16f18875.h"
   128                           TRISA equ 011h ;# 
   129  0011                     # 734 "C:\Program Files (x86)\Microchip\xc8\v2.00\pic\include\pic16f18875.h"
   130                           TRISB equ 012h ;# 
   131  0012                     # 796 "C:\Program Files (x86)\Microchip\xc8\v2.00\pic\include\pic16f18875.h"
   132                           TRISC equ 013h ;# 
   133  0013                     # 858 "C:\Program Files (x86)\Microchip\xc8\v2.00\pic\include\pic16f18875.h"
   134                           TRISD equ 014h ;# 
   135  0014                     # 920 "C:\Program Files (x86)\Microchip\xc8\v2.00\pic\include\pic16f18875.h"
   136                           TRISE equ 015h ;# 
   137  0015                     # 952 "C:\Program Files (x86)\Microchip\xc8\v2.00\pic\include\pic16f18875.h"
   138                           LATA equ 016h ;# 
   139  0016                     # 1014 "C:\Program Files (x86)\Microchip\xc8\v2.00\pic\include\pic16f18875.h"
   140                           LATB equ 017h ;# 
   141  0017                     # 1076 "C:\Program Files (x86)\Microchip\xc8\v2.00\pic\include\pic16f18875.h"
   142                           LATC equ 018h ;# 
   143  0018                     # 1138 "C:\Program Files (x86)\Microchip\xc8\v2.00\pic\include\pic16f18875.h"
   144                           LATD equ 019h ;# 
   145  0019                     # 1200 "C:\Program Files (x86)\Microchip\xc8\v2.00\pic\include\pic16f18875.h"
   146                           LATE equ 01Ah ;# 
   147  001A                     # 1232 "C:\Program Files (x86)\Microchip\xc8\v2.00\pic\include\pic16f18875.h"
   148                           TMR0L equ 01Ch ;# 
   149  001C                     # 1237 "C:\Program Files (x86)\Microchip\xc8\v2.00\pic\include\pic16f18875.h"
   150                           TMR0 equ 01Ch ;# 
   151  001C                     # 1370 "C:\Program Files (x86)\Microchip\xc8\v2.00\pic\include\pic16f18875.h"
   152                           TMR0H equ 01Dh ;# 
   153  001D                     # 1375 "C:\Program Files (x86)\Microchip\xc8\v2.00\pic\include\pic16f18875.h"
   154                           PR0 equ 01Dh ;# 
   155  001D                     # 1624 "C:\Program Files (x86)\Microchip\xc8\v2.00\pic\include\pic16f18875.h"
   156                           T0CON0 equ 01Eh ;# 
   157  001E                     # 1689 "C:\Program Files (x86)\Microchip\xc8\v2.00\pic\include\pic16f18875.h"
   158                           T0CON1 equ 01Fh ;# 
   159  001F                     # 1800 "C:\Program Files (x86)\Microchip\xc8\v2.00\pic\include\pic16f18875.h"
   160                           ADRES equ 08Ch ;# 
   161  008C                     # 1807 "C:\Program Files (x86)\Microchip\xc8\v2.00\pic\include\pic16f18875.h"
   162                           ADRESL equ 08Ch ;# 
   163  008C                     # 1827 "C:\Program Files (x86)\Microchip\xc8\v2.00\pic\include\pic16f18875.h"
   164                           ADRESH equ 08Dh ;# 
   165  008D                     # 1834 "C:\Program Files (x86)\Microchip\xc8\v2.00\pic\include\pic16f18875.h"
   166                           ADPREV equ 08Eh ;# 
   167  008E                     # 1841 "C:\Program Files (x86)\Microchip\xc8\v2.00\pic\include\pic16f18875.h"
   168                           ADPREVL equ 08Eh ;# 
   169  008E                     # 1911 "C:\Program Files (x86)\Microchip\xc8\v2.00\pic\include\pic16f18875.h"
   170                           ADPREVH equ 08Fh ;# 
   171  008F                     # 1981 "C:\Program Files (x86)\Microchip\xc8\v2.00\pic\include\pic16f18875.h"
   172                           ADACC equ 090h ;# 
   173  0090                     # 1988 "C:\Program Files (x86)\Microchip\xc8\v2.00\pic\include\pic16f18875.h"
   174                           ADACCL equ 090h ;# 
   175  0090                     # 2058 "C:\Program Files (x86)\Microchip\xc8\v2.00\pic\include\pic16f18875.h"
   176                           ADACCH equ 091h ;# 
   177  0091                     # 2128 "C:\Program Files (x86)\Microchip\xc8\v2.00\pic\include\pic16f18875.h"
   178                           ADCON0 equ 093h ;# 
   179  0093                     # 2239 "C:\Program Files (x86)\Microchip\xc8\v2.00\pic\include\pic16f18875.h"
   180                           ADCON1 equ 094h ;# 
   181  0094                     # 2278 "C:\Program Files (x86)\Microchip\xc8\v2.00\pic\include\pic16f18875.h"
   182                           ADCON2 equ 095h ;# 
   183  0095                     # 2355 "C:\Program Files (x86)\Microchip\xc8\v2.00\pic\include\pic16f18875.h"
   184                           ADCON3 equ 096h ;# 
   185  0096                     # 2426 "C:\Program Files (x86)\Microchip\xc8\v2.00\pic\include\pic16f18875.h"
   186                           ADSTAT equ 097h ;# 
   187  0097                     # 2496 "C:\Program Files (x86)\Microchip\xc8\v2.00\pic\include\pic16f18875.h"
   188                           ADCLK equ 098h ;# 
   189  0098                     # 2554 "C:\Program Files (x86)\Microchip\xc8\v2.00\pic\include\pic16f18875.h"
   190                           ADACT equ 099h ;# 
   191  0099                     # 2606 "C:\Program Files (x86)\Microchip\xc8\v2.00\pic\include\pic16f18875.h"
   192                           ADREF equ 09Ah ;# 
   193  009A                     # 2647 "C:\Program Files (x86)\Microchip\xc8\v2.00\pic\include\pic16f18875.h"
   194                           ADCAP equ 09Bh ;# 
   195  009B                     # 2699 "C:\Program Files (x86)\Microchip\xc8\v2.00\pic\include\pic16f18875.h"
   196                           ADPRE equ 09Ch ;# 
   197  009C                     # 2769 "C:\Program Files (x86)\Microchip\xc8\v2.00\pic\include\pic16f18875.h"
   198                           ADACQ equ 09Dh ;# 
   199  009D                     # 2839 "C:\Program Files (x86)\Microchip\xc8\v2.00\pic\include\pic16f18875.h"
   200                           ADPCH equ 09Eh ;# 
   201  009E                     # 2897 "C:\Program Files (x86)\Microchip\xc8\v2.00\pic\include\pic16f18875.h"
   202                           ADCNT equ 010Ch ;# 
   203  010C                     # 2967 "C:\Program Files (x86)\Microchip\xc8\v2.00\pic\include\pic16f18875.h"
   204                           ADRPT equ 010Dh ;# 
   205  010D                     # 3037 "C:\Program Files (x86)\Microchip\xc8\v2.00\pic\include\pic16f18875.h"
   206                           ADLTH equ 010Eh ;# 
   207  010E                     # 3044 "C:\Program Files (x86)\Microchip\xc8\v2.00\pic\include\pic16f18875.h"
   208                           ADLTHL equ 010Eh ;# 
   209  010E                     # 3114 "C:\Program Files (x86)\Microchip\xc8\v2.00\pic\include\pic16f18875.h"
   210                           ADLTHH equ 010Fh ;# 
   211  010F                     # 3184 "C:\Program Files (x86)\Microchip\xc8\v2.00\pic\include\pic16f18875.h"
   212                           ADUTH equ 0110h ;# 
   213  0110                     # 3191 "C:\Program Files (x86)\Microchip\xc8\v2.00\pic\include\pic16f18875.h"
   214                           ADUTHL equ 0110h ;# 
   215  0110                     # 3261 "C:\Program Files (x86)\Microchip\xc8\v2.00\pic\include\pic16f18875.h"
   216                           ADUTHH equ 0111h ;# 
   217  0111                     # 3331 "C:\Program Files (x86)\Microchip\xc8\v2.00\pic\include\pic16f18875.h"
   218                           ADSTPT equ 0112h ;# 
   219  0112                     # 3338 "C:\Program Files (x86)\Microchip\xc8\v2.00\pic\include\pic16f18875.h"
   220                           ADSTPTL equ 0112h ;# 
   221  0112                     # 3408 "C:\Program Files (x86)\Microchip\xc8\v2.00\pic\include\pic16f18875.h"
   222                           ADSTPTH equ 0113h ;# 
   223  0113                     # 3478 "C:\Program Files (x86)\Microchip\xc8\v2.00\pic\include\pic16f18875.h"
   224                           ADFLTR equ 0114h ;# 
   225  0114                     # 3485 "C:\Program Files (x86)\Microchip\xc8\v2.00\pic\include\pic16f18875.h"
   226                           ADFLTRL equ 0114h ;# 
   227  0114                     # 3555 "C:\Program Files (x86)\Microchip\xc8\v2.00\pic\include\pic16f18875.h"
   228                           ADFLTRH equ 0115h ;# 
   229  0115                     # 3625 "C:\Program Files (x86)\Microchip\xc8\v2.00\pic\include\pic16f18875.h"
   230                           ADERR equ 0116h ;# 
   231  0116                     # 3632 "C:\Program Files (x86)\Microchip\xc8\v2.00\pic\include\pic16f18875.h"
   232                           ADERRL equ 0116h ;# 
   233  0116                     # 3702 "C:\Program Files (x86)\Microchip\xc8\v2.00\pic\include\pic16f18875.h"
   234                           ADERRH equ 0117h ;# 
   235  0117                     # 3772 "C:\Program Files (x86)\Microchip\xc8\v2.00\pic\include\pic16f18875.h"
   236                           RC1REG equ 0119h ;# 
   237  0119                     # 3777 "C:\Program Files (x86)\Microchip\xc8\v2.00\pic\include\pic16f18875.h"
   238                           RCREG equ 0119h ;# 
   239  0119                     # 3781 "C:\Program Files (x86)\Microchip\xc8\v2.00\pic\include\pic16f18875.h"
   240                           RCREG1 equ 0119h ;# 
   241  0119                     # 3826 "C:\Program Files (x86)\Microchip\xc8\v2.00\pic\include\pic16f18875.h"
   242                           TX1REG equ 011Ah ;# 
   243  011A                     # 3831 "C:\Program Files (x86)\Microchip\xc8\v2.00\pic\include\pic16f18875.h"
   244                           TXREG1 equ 011Ah ;# 
   245  011A                     # 3835 "C:\Program Files (x86)\Microchip\xc8\v2.00\pic\include\pic16f18875.h"
   246                           TXREG equ 011Ah ;# 
   247  011A                     # 3880 "C:\Program Files (x86)\Microchip\xc8\v2.00\pic\include\pic16f18875.h"
   248                           SP1BRG equ 011Bh ;# 
   249  011B                     # 3887 "C:\Program Files (x86)\Microchip\xc8\v2.00\pic\include\pic16f18875.h"
   250                           SP1BRGL equ 011Bh ;# 
   251  011B                     # 3892 "C:\Program Files (x86)\Microchip\xc8\v2.00\pic\include\pic16f18875.h"
   252                           SPBRG equ 011Bh ;# 
   253  011B                     # 3896 "C:\Program Files (x86)\Microchip\xc8\v2.00\pic\include\pic16f18875.h"
   254                           SPBRG1 equ 011Bh ;# 
   255  011B                     # 3900 "C:\Program Files (x86)\Microchip\xc8\v2.00\pic\include\pic16f18875.h"
   256                           SPBRGL equ 011Bh ;# 
   257  011B                     # 3957 "C:\Program Files (x86)\Microchip\xc8\v2.00\pic\include\pic16f18875.h"
   258                           SP1BRGH equ 011Ch ;# 
   259  011C                     # 3962 "C:\Program Files (x86)\Microchip\xc8\v2.00\pic\include\pic16f18875.h"
   260                           SPBRGH equ 011Ch ;# 
   261  011C                     # 3966 "C:\Program Files (x86)\Microchip\xc8\v2.00\pic\include\pic16f18875.h"
   262                           SPBRGH1 equ 011Ch ;# 
   263  011C                     # 4011 "C:\Program Files (x86)\Microchip\xc8\v2.00\pic\include\pic16f18875.h"
   264                           RC1STA equ 011Dh ;# 
   265  011D                     # 4016 "C:\Program Files (x86)\Microchip\xc8\v2.00\pic\include\pic16f18875.h"
   266                           RCSTA1 equ 011Dh ;# 
   267  011D                     # 4020 "C:\Program Files (x86)\Microchip\xc8\v2.00\pic\include\pic16f18875.h"
   268                           RCSTA equ 011Dh ;# 
   269  011D                     # 4191 "C:\Program Files (x86)\Microchip\xc8\v2.00\pic\include\pic16f18875.h"
   270                           TX1STA equ 011Eh ;# 
   271  011E                     # 4196 "C:\Program Files (x86)\Microchip\xc8\v2.00\pic\include\pic16f18875.h"
   272                           TXSTA1 equ 011Eh ;# 
   273  011E                     # 4200 "C:\Program Files (x86)\Microchip\xc8\v2.00\pic\include\pic16f18875.h"
   274                           TXSTA equ 011Eh ;# 
   275  011E                     # 4371 "C:\Program Files (x86)\Microchip\xc8\v2.00\pic\include\pic16f18875.h"
   276                           BAUD1CON equ 011Fh ;# 
   277  011F                     # 4376 "C:\Program Files (x86)\Microchip\xc8\v2.00\pic\include\pic16f18875.h"
   278                           BAUDCON1 equ 011Fh ;# 
   279  011F                     # 4380 "C:\Program Files (x86)\Microchip\xc8\v2.00\pic\include\pic16f18875.h"
   280                           BAUDCTL1 equ 011Fh ;# 
   281  011F                     # 4384 "C:\Program Files (x86)\Microchip\xc8\v2.00\pic\include\pic16f18875.h"
   282                           BAUDCON equ 011Fh ;# 
   283  011F                     # 4388 "C:\Program Files (x86)\Microchip\xc8\v2.00\pic\include\pic16f18875.h"
   284                           BAUDCTL equ 011Fh ;# 
   285  011F                     # 4617 "C:\Program Files (x86)\Microchip\xc8\v2.00\pic\include\pic16f18875.h"
   286                           SSP1BUF equ 018Ch ;# 
   287  018C                     # 4637 "C:\Program Files (x86)\Microchip\xc8\v2.00\pic\include\pic16f18875.h"
   288                           SSP1ADD equ 018Dh ;# 
   289  018D                     # 4757 "C:\Program Files (x86)\Microchip\xc8\v2.00\pic\include\pic16f18875.h"
   290                           SSP1MSK equ 018Eh ;# 
   291  018E                     # 4827 "C:\Program Files (x86)\Microchip\xc8\v2.00\pic\include\pic16f18875.h"
   292                           SSP1STAT equ 018Fh ;# 
   293  018F                     # 5191 "C:\Program Files (x86)\Microchip\xc8\v2.00\pic\include\pic16f18875.h"
   294                           SSP1CON1 equ 0190h ;# 
   295  0190                     # 5311 "C:\Program Files (x86)\Microchip\xc8\v2.00\pic\include\pic16f18875.h"
   296                           SSP1CON2 equ 0191h ;# 
   297  0191                     # 5498 "C:\Program Files (x86)\Microchip\xc8\v2.00\pic\include\pic16f18875.h"
   298                           SSP1CON3 equ 0192h ;# 
   299  0192                     # 5560 "C:\Program Files (x86)\Microchip\xc8\v2.00\pic\include\pic16f18875.h"
   300                           SSP2BUF equ 0196h ;# 
   301  0196                     # 5580 "C:\Program Files (x86)\Microchip\xc8\v2.00\pic\include\pic16f18875.h"
   302                           SSP2ADD equ 0197h ;# 
   303  0197                     # 5700 "C:\Program Files (x86)\Microchip\xc8\v2.00\pic\include\pic16f18875.h"
   304                           SSP2MSK equ 0198h ;# 
   305  0198                     # 5770 "C:\Program Files (x86)\Microchip\xc8\v2.00\pic\include\pic16f18875.h"
   306                           SSP2STAT equ 0199h ;# 
   307  0199                     # 6134 "C:\Program Files (x86)\Microchip\xc8\v2.00\pic\include\pic16f18875.h"
   308                           SSP2CON1 equ 019Ah ;# 
   309  019A                     # 6254 "C:\Program Files (x86)\Microchip\xc8\v2.00\pic\include\pic16f18875.h"
   310                           SSP2CON2 equ 019Bh ;# 
   311  019B                     # 6441 "C:\Program Files (x86)\Microchip\xc8\v2.00\pic\include\pic16f18875.h"
   312                           SSP2CON3 equ 019Ch ;# 
   313  019C                     # 6503 "C:\Program Files (x86)\Microchip\xc8\v2.00\pic\include\pic16f18875.h"
   314                           TMR1 equ 020Ch ;# 
   315  020C                     # 6510 "C:\Program Files (x86)\Microchip\xc8\v2.00\pic\include\pic16f18875.h"
   316                           TMR1L equ 020Ch ;# 
   317  020C                     # 6680 "C:\Program Files (x86)\Microchip\xc8\v2.00\pic\include\pic16f18875.h"
   318                           TMR1H equ 020Dh ;# 
   319  020D                     # 6800 "C:\Program Files (x86)\Microchip\xc8\v2.00\pic\include\pic16f18875.h"
   320                           T1CON equ 020Eh ;# 
   321  020E                     # 6896 "C:\Program Files (x86)\Microchip\xc8\v2.00\pic\include\pic16f18875.h"
   322                           T1GCON equ 020Fh ;# 
   323  020F                     # 6901 "C:\Program Files (x86)\Microchip\xc8\v2.00\pic\include\pic16f18875.h"
   324                           PR1 equ 020Fh ;# 
   325  020F                     # 7092 "C:\Program Files (x86)\Microchip\xc8\v2.00\pic\include\pic16f18875.h"
   326                           T1GATE equ 0210h ;# 
   327  0210                     # 7097 "C:\Program Files (x86)\Microchip\xc8\v2.00\pic\include\pic16f18875.h"
   328                           TMR1GATE equ 0210h ;# 
   329  0210                     # 7258 "C:\Program Files (x86)\Microchip\xc8\v2.00\pic\include\pic16f18875.h"
   330                           T1CLK equ 0211h ;# 
   331  0211                     # 7263 "C:\Program Files (x86)\Microchip\xc8\v2.00\pic\include\pic16f18875.h"
   332                           TMR1CLK equ 0211h ;# 
   333  0211                     # 7400 "C:\Program Files (x86)\Microchip\xc8\v2.00\pic\include\pic16f18875.h"
   334                           TMR3 equ 0212h ;# 
   335  0212                     # 7407 "C:\Program Files (x86)\Microchip\xc8\v2.00\pic\include\pic16f18875.h"
   336                           TMR3L equ 0212h ;# 
   337  0212                     # 7577 "C:\Program Files (x86)\Microchip\xc8\v2.00\pic\include\pic16f18875.h"
   338                           TMR3H equ 0213h ;# 
   339  0213                     # 7697 "C:\Program Files (x86)\Microchip\xc8\v2.00\pic\include\pic16f18875.h"
   340                           T3CON equ 0214h ;# 
   341  0214                     # 7793 "C:\Program Files (x86)\Microchip\xc8\v2.00\pic\include\pic16f18875.h"
   342                           T3GCON equ 0215h ;# 
   343  0215                     # 7798 "C:\Program Files (x86)\Microchip\xc8\v2.00\pic\include\pic16f18875.h"
   344                           PR3 equ 0215h ;# 
   345  0215                     # 7989 "C:\Program Files (x86)\Microchip\xc8\v2.00\pic\include\pic16f18875.h"
   346                           T3GATE equ 0216h ;# 
   347  0216                     # 7994 "C:\Program Files (x86)\Microchip\xc8\v2.00\pic\include\pic16f18875.h"
   348                           TMR3GATE equ 0216h ;# 
   349  0216                     # 8155 "C:\Program Files (x86)\Microchip\xc8\v2.00\pic\include\pic16f18875.h"
   350                           T3CLK equ 0217h ;# 
   351  0217                     # 8160 "C:\Program Files (x86)\Microchip\xc8\v2.00\pic\include\pic16f18875.h"
   352                           TMR3CLK equ 0217h ;# 
   353  0217                     # 8297 "C:\Program Files (x86)\Microchip\xc8\v2.00\pic\include\pic16f18875.h"
   354                           TMR5 equ 0218h ;# 
   355  0218                     # 8304 "C:\Program Files (x86)\Microchip\xc8\v2.00\pic\include\pic16f18875.h"
   356                           TMR5L equ 0218h ;# 
   357  0218                     # 8474 "C:\Program Files (x86)\Microchip\xc8\v2.00\pic\include\pic16f18875.h"
   358                           TMR5H equ 0219h ;# 
   359  0219                     # 8594 "C:\Program Files (x86)\Microchip\xc8\v2.00\pic\include\pic16f18875.h"
   360                           T5CON equ 021Ah ;# 
   361  021A                     # 8690 "C:\Program Files (x86)\Microchip\xc8\v2.00\pic\include\pic16f18875.h"
   362                           T5GCON equ 021Bh ;# 
   363  021B                     # 8695 "C:\Program Files (x86)\Microchip\xc8\v2.00\pic\include\pic16f18875.h"
   364                           PR5 equ 021Bh ;# 
   365  021B                     # 8886 "C:\Program Files (x86)\Microchip\xc8\v2.00\pic\include\pic16f18875.h"
   366                           T5GATE equ 021Ch ;# 
   367  021C                     # 8891 "C:\Program Files (x86)\Microchip\xc8\v2.00\pic\include\pic16f18875.h"
   368                           TMR5GATE equ 021Ch ;# 
   369  021C                     # 9052 "C:\Program Files (x86)\Microchip\xc8\v2.00\pic\include\pic16f18875.h"
   370                           T5CLK equ 021Dh ;# 
   371  021D                     # 9057 "C:\Program Files (x86)\Microchip\xc8\v2.00\pic\include\pic16f18875.h"
   372                           TMR5CLK equ 021Dh ;# 
   373  021D                     # 9194 "C:\Program Files (x86)\Microchip\xc8\v2.00\pic\include\pic16f18875.h"
   374                           CCPTMRS0 equ 021Eh ;# 
   375  021E                     # 9282 "C:\Program Files (x86)\Microchip\xc8\v2.00\pic\include\pic16f18875.h"
   376                           CCPTMRS1 equ 021Fh ;# 
   377  021F                     # 9352 "C:\Program Files (x86)\Microchip\xc8\v2.00\pic\include\pic16f18875.h"
   378                           T2TMR equ 028Ch ;# 
   379  028C                     # 9357 "C:\Program Files (x86)\Microchip\xc8\v2.00\pic\include\pic16f18875.h"
   380                           TMR2 equ 028Ch ;# 
   381  028C                     # 9390 "C:\Program Files (x86)\Microchip\xc8\v2.00\pic\include\pic16f18875.h"
   382                           T2PR equ 028Dh ;# 
   383  028D                     # 9395 "C:\Program Files (x86)\Microchip\xc8\v2.00\pic\include\pic16f18875.h"
   384                           PR2 equ 028Dh ;# 
   385  028D                     # 9428 "C:\Program Files (x86)\Microchip\xc8\v2.00\pic\include\pic16f18875.h"
   386                           T2CON equ 028Eh ;# 
   387  028E                     # 9574 "C:\Program Files (x86)\Microchip\xc8\v2.00\pic\include\pic16f18875.h"
   388                           T2HLT equ 028Fh ;# 
   389  028F                     # 9702 "C:\Program Files (x86)\Microchip\xc8\v2.00\pic\include\pic16f18875.h"
   390                           T2CLKCON equ 0290h ;# 
   391  0290                     # 9707 "C:\Program Files (x86)\Microchip\xc8\v2.00\pic\include\pic16f18875.h"
   392                           T2CLK equ 0290h ;# 
   393  0290                     # 9860 "C:\Program Files (x86)\Microchip\xc8\v2.00\pic\include\pic16f18875.h"
   394                           T2RST equ 0291h ;# 
   395  0291                     # 9952 "C:\Program Files (x86)\Microchip\xc8\v2.00\pic\include\pic16f18875.h"
   396                           T4TMR equ 0292h ;# 
   397  0292                     # 9957 "C:\Program Files (x86)\Microchip\xc8\v2.00\pic\include\pic16f18875.h"
   398                           TMR4 equ 0292h ;# 
   399  0292                     # 9990 "C:\Program Files (x86)\Microchip\xc8\v2.00\pic\include\pic16f18875.h"
   400                           T4PR equ 0293h ;# 
   401  0293                     # 9995 "C:\Program Files (x86)\Microchip\xc8\v2.00\pic\include\pic16f18875.h"
   402                           PR4 equ 0293h ;# 
   403  0293                     # 10028 "C:\Program Files (x86)\Microchip\xc8\v2.00\pic\include\pic16f18875.h"
   404                           T4CON equ 0294h ;# 
   405  0294                     # 10174 "C:\Program Files (x86)\Microchip\xc8\v2.00\pic\include\pic16f18875.h"
   406                           T4HLT equ 0295h ;# 
   407  0295                     # 10302 "C:\Program Files (x86)\Microchip\xc8\v2.00\pic\include\pic16f18875.h"
   408                           T4CLKCON equ 0296h ;# 
   409  0296                     # 10307 "C:\Program Files (x86)\Microchip\xc8\v2.00\pic\include\pic16f18875.h"
   410                           T4CLK equ 0296h ;# 
   411  0296                     # 10460 "C:\Program Files (x86)\Microchip\xc8\v2.00\pic\include\pic16f18875.h"
   412                           T4RST equ 0297h ;# 
   413  0297                     # 10552 "C:\Program Files (x86)\Microchip\xc8\v2.00\pic\include\pic16f18875.h"
   414                           T6TMR equ 0298h ;# 
   415  0298                     # 10557 "C:\Program Files (x86)\Microchip\xc8\v2.00\pic\include\pic16f18875.h"
   416                           TMR6 equ 0298h ;# 
   417  0298                     # 10590 "C:\Program Files (x86)\Microchip\xc8\v2.00\pic\include\pic16f18875.h"
   418                           T6PR equ 0299h ;# 
   419  0299                     # 10595 "C:\Program Files (x86)\Microchip\xc8\v2.00\pic\include\pic16f18875.h"
   420                           PR6 equ 0299h ;# 
   421  0299                     # 10628 "C:\Program Files (x86)\Microchip\xc8\v2.00\pic\include\pic16f18875.h"
   422                           T6CON equ 029Ah ;# 
   423  029A                     # 10774 "C:\Program Files (x86)\Microchip\xc8\v2.00\pic\include\pic16f18875.h"
   424                           T6HLT equ 029Bh ;# 
   425  029B                     # 10902 "C:\Program Files (x86)\Microchip\xc8\v2.00\pic\include\pic16f18875.h"
   426                           T6CLKCON equ 029Ch ;# 
   427  029C                     # 10907 "C:\Program Files (x86)\Microchip\xc8\v2.00\pic\include\pic16f18875.h"
   428                           T6CLK equ 029Ch ;# 
   429  029C                     # 11060 "C:\Program Files (x86)\Microchip\xc8\v2.00\pic\include\pic16f18875.h"
   430                           T6RST equ 029Dh ;# 
   431  029D                     # 11152 "C:\Program Files (x86)\Microchip\xc8\v2.00\pic\include\pic16f18875.h"
   432                           CCPR1 equ 030Ch ;# 
   433  030C                     # 11159 "C:\Program Files (x86)\Microchip\xc8\v2.00\pic\include\pic16f18875.h"
   434                           CCPR1L equ 030Ch ;# 
   435  030C                     # 11179 "C:\Program Files (x86)\Microchip\xc8\v2.00\pic\include\pic16f18875.h"
   436                           CCPR1H equ 030Dh ;# 
   437  030D                     # 11199 "C:\Program Files (x86)\Microchip\xc8\v2.00\pic\include\pic16f18875.h"
   438                           CCP1CON equ 030Eh ;# 
   439  030E                     # 11342 "C:\Program Files (x86)\Microchip\xc8\v2.00\pic\include\pic16f18875.h"
   440                           CCP1CAP equ 030Fh ;# 
   441  030F                     # 11410 "C:\Program Files (x86)\Microchip\xc8\v2.00\pic\include\pic16f18875.h"
   442                           CCPR2 equ 0310h ;# 
   443  0310                     # 11417 "C:\Program Files (x86)\Microchip\xc8\v2.00\pic\include\pic16f18875.h"
   444                           CCPR2L equ 0310h ;# 
   445  0310                     # 11437 "C:\Program Files (x86)\Microchip\xc8\v2.00\pic\include\pic16f18875.h"
   446                           CCPR2H equ 0311h ;# 
   447  0311                     # 11457 "C:\Program Files (x86)\Microchip\xc8\v2.00\pic\include\pic16f18875.h"
   448                           CCP2CON equ 0312h ;# 
   449  0312                     # 11600 "C:\Program Files (x86)\Microchip\xc8\v2.00\pic\include\pic16f18875.h"
   450                           CCP2CAP equ 0313h ;# 
   451  0313                     # 11668 "C:\Program Files (x86)\Microchip\xc8\v2.00\pic\include\pic16f18875.h"
   452                           CCPR3 equ 0314h ;# 
   453  0314                     # 11675 "C:\Program Files (x86)\Microchip\xc8\v2.00\pic\include\pic16f18875.h"
   454                           CCPR3L equ 0314h ;# 
   455  0314                     # 11695 "C:\Program Files (x86)\Microchip\xc8\v2.00\pic\include\pic16f18875.h"
   456                           CCPR3H equ 0315h ;# 
   457  0315                     # 11715 "C:\Program Files (x86)\Microchip\xc8\v2.00\pic\include\pic16f18875.h"
   458                           CCP3CON equ 0316h ;# 
   459  0316                     # 11858 "C:\Program Files (x86)\Microchip\xc8\v2.00\pic\include\pic16f18875.h"
   460                           CCP3CAP equ 0317h ;# 
   461  0317                     # 11926 "C:\Program Files (x86)\Microchip\xc8\v2.00\pic\include\pic16f18875.h"
   462                           CCPR4 equ 0318h ;# 
   463  0318                     # 11933 "C:\Program Files (x86)\Microchip\xc8\v2.00\pic\include\pic16f18875.h"
   464                           CCPR4L equ 0318h ;# 
   465  0318                     # 11953 "C:\Program Files (x86)\Microchip\xc8\v2.00\pic\include\pic16f18875.h"
   466                           CCPR4H equ 0319h ;# 
   467  0319                     # 11973 "C:\Program Files (x86)\Microchip\xc8\v2.00\pic\include\pic16f18875.h"
   468                           CCP4CON equ 031Ah ;# 
   469  031A                     # 12116 "C:\Program Files (x86)\Microchip\xc8\v2.00\pic\include\pic16f18875.h"
   470                           CCP4CAP equ 031Bh ;# 
   471  031B                     # 12184 "C:\Program Files (x86)\Microchip\xc8\v2.00\pic\include\pic16f18875.h"
   472                           CCPR5 equ 031Ch ;# 
   473  031C                     # 12191 "C:\Program Files (x86)\Microchip\xc8\v2.00\pic\include\pic16f18875.h"
   474                           CCPR5L equ 031Ch ;# 
   475  031C                     # 12211 "C:\Program Files (x86)\Microchip\xc8\v2.00\pic\include\pic16f18875.h"
   476                           CCPR5H equ 031Dh ;# 
   477  031D                     # 12231 "C:\Program Files (x86)\Microchip\xc8\v2.00\pic\include\pic16f18875.h"
   478                           CCP5CON equ 031Eh ;# 
   479  031E                     # 12374 "C:\Program Files (x86)\Microchip\xc8\v2.00\pic\include\pic16f18875.h"
   480                           CCP5CAP equ 031Fh ;# 
   481  031F                     # 12442 "C:\Program Files (x86)\Microchip\xc8\v2.00\pic\include\pic16f18875.h"
   482                           PWM6DC equ 038Ch ;# 
   483  038C                     # 12449 "C:\Program Files (x86)\Microchip\xc8\v2.00\pic\include\pic16f18875.h"
   484                           PWM6DCL equ 038Ch ;# 
   485  038C                     # 12515 "C:\Program Files (x86)\Microchip\xc8\v2.00\pic\include\pic16f18875.h"
   486                           PWM6DCH equ 038Dh ;# 
   487  038D                     # 12685 "C:\Program Files (x86)\Microchip\xc8\v2.00\pic\include\pic16f18875.h"
   488                           PWM6CON equ 038Eh ;# 
   489  038E                     # 12751 "C:\Program Files (x86)\Microchip\xc8\v2.00\pic\include\pic16f18875.h"
   490                           PWM7DC equ 0390h ;# 
   491  0390                     # 12758 "C:\Program Files (x86)\Microchip\xc8\v2.00\pic\include\pic16f18875.h"
   492                           PWM7DCL equ 0390h ;# 
   493  0390                     # 12824 "C:\Program Files (x86)\Microchip\xc8\v2.00\pic\include\pic16f18875.h"
   494                           PWM7DCH equ 0391h ;# 
   495  0391                     # 12994 "C:\Program Files (x86)\Microchip\xc8\v2.00\pic\include\pic16f18875.h"
   496                           PWM7CON equ 0392h ;# 
   497  0392                     # 13060 "C:\Program Files (x86)\Microchip\xc8\v2.00\pic\include\pic16f18875.h"
   498                           SCANLADRL equ 040Ch ;# 
   499  040C                     # 13188 "C:\Program Files (x86)\Microchip\xc8\v2.00\pic\include\pic16f18875.h"
   500                           SCANLADRH equ 040Dh ;# 
   501  040D                     # 13316 "C:\Program Files (x86)\Microchip\xc8\v2.00\pic\include\pic16f18875.h"
   502                           SCANHADRL equ 040Eh ;# 
   503  040E                     # 13444 "C:\Program Files (x86)\Microchip\xc8\v2.00\pic\include\pic16f18875.h"
   504                           SCANHADRH equ 040Fh ;# 
   505  040F                     # 13572 "C:\Program Files (x86)\Microchip\xc8\v2.00\pic\include\pic16f18875.h"
   506                           SCANCON0 equ 0410h ;# 
   507  0410                     # 13694 "C:\Program Files (x86)\Microchip\xc8\v2.00\pic\include\pic16f18875.h"
   508                           SCANTRIG equ 0411h ;# 
   509  0411                     # 13774 "C:\Program Files (x86)\Microchip\xc8\v2.00\pic\include\pic16f18875.h"
   510                           CRCDATA equ 0416h ;# 
   511  0416                     # 13781 "C:\Program Files (x86)\Microchip\xc8\v2.00\pic\include\pic16f18875.h"
   512                           CRCDATL equ 0416h ;# 
   513  0416                     # 13843 "C:\Program Files (x86)\Microchip\xc8\v2.00\pic\include\pic16f18875.h"
   514                           CRCDATH equ 0417h ;# 
   515  0417                     # 13905 "C:\Program Files (x86)\Microchip\xc8\v2.00\pic\include\pic16f18875.h"
   516                           CRCACC equ 0418h ;# 
   517  0418                     # 13912 "C:\Program Files (x86)\Microchip\xc8\v2.00\pic\include\pic16f18875.h"
   518                           CRCACCL equ 0418h ;# 
   519  0418                     # 13974 "C:\Program Files (x86)\Microchip\xc8\v2.00\pic\include\pic16f18875.h"
   520                           CRCACCH equ 0419h ;# 
   521  0419                     # 14036 "C:\Program Files (x86)\Microchip\xc8\v2.00\pic\include\pic16f18875.h"
   522                           CRCSHFT equ 041Ah ;# 
   523  041A                     # 14043 "C:\Program Files (x86)\Microchip\xc8\v2.00\pic\include\pic16f18875.h"
   524                           CRCSHIFTL equ 041Ah ;# 
   525  041A                     # 14105 "C:\Program Files (x86)\Microchip\xc8\v2.00\pic\include\pic16f18875.h"
   526                           CRCSHIFTH equ 041Bh ;# 
   527  041B                     # 14167 "C:\Program Files (x86)\Microchip\xc8\v2.00\pic\include\pic16f18875.h"
   528                           CRCXOR equ 041Ch ;# 
   529  041C                     # 14174 "C:\Program Files (x86)\Microchip\xc8\v2.00\pic\include\pic16f18875.h"
   530                           CRCXORL equ 041Ch ;# 
   531  041C                     # 14231 "C:\Program Files (x86)\Microchip\xc8\v2.00\pic\include\pic16f18875.h"
   532                           CRCXORH equ 041Dh ;# 
   533  041D                     # 14293 "C:\Program Files (x86)\Microchip\xc8\v2.00\pic\include\pic16f18875.h"
   534                           CRCCON0 equ 041Eh ;# 
   535  041E                     # 14353 "C:\Program Files (x86)\Microchip\xc8\v2.00\pic\include\pic16f18875.h"
   536                           CRCCON1 equ 041Fh ;# 
   537  041F                     # 14431 "C:\Program Files (x86)\Microchip\xc8\v2.00\pic\include\pic16f18875.h"
   538                           SMT1TMR equ 048Ch ;# 
   539  048C                     # 14438 "C:\Program Files (x86)\Microchip\xc8\v2.00\pic\include\pic16f18875.h"
   540                           SMT1TMRL equ 048Ch ;# 
   541  048C                     # 14566 "C:\Program Files (x86)\Microchip\xc8\v2.00\pic\include\pic16f18875.h"
   542                           SMT1TMRH equ 048Dh ;# 
   543  048D                     # 14694 "C:\Program Files (x86)\Microchip\xc8\v2.00\pic\include\pic16f18875.h"
   544                           SMT1TMRU equ 048Eh ;# 
   545  048E                     # 14824 "C:\Program Files (x86)\Microchip\xc8\v2.00\pic\include\pic16f18875.h"
   546                           SMT1CPR equ 048Fh ;# 
   547  048F                     # 14831 "C:\Program Files (x86)\Microchip\xc8\v2.00\pic\include\pic16f18875.h"
   548                           SMT1CPRL equ 048Fh ;# 
   549  048F                     # 14959 "C:\Program Files (x86)\Microchip\xc8\v2.00\pic\include\pic16f18875.h"
   550                           SMT1CPRH equ 0490h ;# 
   551  0490                     # 15087 "C:\Program Files (x86)\Microchip\xc8\v2.00\pic\include\pic16f18875.h"
   552                           SMT1CPRU equ 0491h ;# 
   553  0491                     # 15217 "C:\Program Files (x86)\Microchip\xc8\v2.00\pic\include\pic16f18875.h"
   554                           SMT1CPW equ 0492h ;# 
   555  0492                     # 15224 "C:\Program Files (x86)\Microchip\xc8\v2.00\pic\include\pic16f18875.h"
   556                           SMT1CPWL equ 0492h ;# 
   557  0492                     # 15352 "C:\Program Files (x86)\Microchip\xc8\v2.00\pic\include\pic16f18875.h"
   558                           SMT1CPWH equ 0493h ;# 
   559  0493                     # 15480 "C:\Program Files (x86)\Microchip\xc8\v2.00\pic\include\pic16f18875.h"
   560                           SMT1CPWU equ 0494h ;# 
   561  0494                     # 15610 "C:\Program Files (x86)\Microchip\xc8\v2.00\pic\include\pic16f18875.h"
   562                           SMT1PR equ 0495h ;# 
   563  0495                     # 15617 "C:\Program Files (x86)\Microchip\xc8\v2.00\pic\include\pic16f18875.h"
   564                           SMT1PRL equ 0495h ;# 
   565  0495                     # 15745 "C:\Program Files (x86)\Microchip\xc8\v2.00\pic\include\pic16f18875.h"
   566                           SMT1PRH equ 0496h ;# 
   567  0496                     # 15873 "C:\Program Files (x86)\Microchip\xc8\v2.00\pic\include\pic16f18875.h"
   568                           SMT1PRU equ 0497h ;# 
   569  0497                     # 16001 "C:\Program Files (x86)\Microchip\xc8\v2.00\pic\include\pic16f18875.h"
   570                           SMT1CON0 equ 0498h ;# 
   571  0498                     # 16119 "C:\Program Files (x86)\Microchip\xc8\v2.00\pic\include\pic16f18875.h"
   572                           SMT1CON1 equ 0499h ;# 
   573  0499                     # 16199 "C:\Program Files (x86)\Microchip\xc8\v2.00\pic\include\pic16f18875.h"
   574                           SMT1STAT equ 049Ah ;# 
   575  049A                     # 16298 "C:\Program Files (x86)\Microchip\xc8\v2.00\pic\include\pic16f18875.h"
   576                           SMT1CLK equ 049Bh ;# 
   577  049B                     # 16366 "C:\Program Files (x86)\Microchip\xc8\v2.00\pic\include\pic16f18875.h"
   578                           SMT1SIG equ 049Ch ;# 
   579  049C                     # 16458 "C:\Program Files (x86)\Microchip\xc8\v2.00\pic\include\pic16f18875.h"
   580                           SMT1WIN equ 049Dh ;# 
   581  049D                     # 16552 "C:\Program Files (x86)\Microchip\xc8\v2.00\pic\include\pic16f18875.h"
   582                           SMT2TMR equ 050Ch ;# 
   583  050C                     # 16559 "C:\Program Files (x86)\Microchip\xc8\v2.00\pic\include\pic16f18875.h"
   584                           SMT2TMRL equ 050Ch ;# 
   585  050C                     # 16687 "C:\Program Files (x86)\Microchip\xc8\v2.00\pic\include\pic16f18875.h"
   586                           SMT2TMRH equ 050Dh ;# 
   587  050D                     # 16815 "C:\Program Files (x86)\Microchip\xc8\v2.00\pic\include\pic16f18875.h"
   588                           SMT2TMRU equ 050Eh ;# 
   589  050E                     # 16945 "C:\Program Files (x86)\Microchip\xc8\v2.00\pic\include\pic16f18875.h"
   590                           SMT2CPR equ 050Fh ;# 
   591  050F                     # 16952 "C:\Program Files (x86)\Microchip\xc8\v2.00\pic\include\pic16f18875.h"
   592                           SMT2CPRL equ 050Fh ;# 
   593  050F                     # 17080 "C:\Program Files (x86)\Microchip\xc8\v2.00\pic\include\pic16f18875.h"
   594                           SMT2CPRH equ 0510h ;# 
   595  0510                     # 17208 "C:\Program Files (x86)\Microchip\xc8\v2.00\pic\include\pic16f18875.h"
   596                           SMT2CPRU equ 0511h ;# 
   597  0511                     # 17338 "C:\Program Files (x86)\Microchip\xc8\v2.00\pic\include\pic16f18875.h"
   598                           SMT2CPW equ 0512h ;# 
   599  0512                     # 17345 "C:\Program Files (x86)\Microchip\xc8\v2.00\pic\include\pic16f18875.h"
   600                           SMT2CPWL equ 0512h ;# 
   601  0512                     # 17473 "C:\Program Files (x86)\Microchip\xc8\v2.00\pic\include\pic16f18875.h"
   602                           SMT2CPWH equ 0513h ;# 
   603  0513                     # 17601 "C:\Program Files (x86)\Microchip\xc8\v2.00\pic\include\pic16f18875.h"
   604                           SMT2CPWU equ 0514h ;# 
   605  0514                     # 17731 "C:\Program Files (x86)\Microchip\xc8\v2.00\pic\include\pic16f18875.h"
   606                           SMT2PR equ 0515h ;# 
   607  0515                     # 17738 "C:\Program Files (x86)\Microchip\xc8\v2.00\pic\include\pic16f18875.h"
   608                           SMT2PRL equ 0515h ;# 
   609  0515                     # 17866 "C:\Program Files (x86)\Microchip\xc8\v2.00\pic\include\pic16f18875.h"
   610                           SMT2PRH equ 0516h ;# 
   611  0516                     # 17994 "C:\Program Files (x86)\Microchip\xc8\v2.00\pic\include\pic16f18875.h"
   612                           SMT2PRU equ 0517h ;# 
   613  0517                     # 18122 "C:\Program Files (x86)\Microchip\xc8\v2.00\pic\include\pic16f18875.h"
   614                           SMT2CON0 equ 0518h ;# 
   615  0518                     # 18240 "C:\Program Files (x86)\Microchip\xc8\v2.00\pic\include\pic16f18875.h"
   616                           SMT2CON1 equ 0519h ;# 
   617  0519                     # 18320 "C:\Program Files (x86)\Microchip\xc8\v2.00\pic\include\pic16f18875.h"
   618                           SMT2STAT equ 051Ah ;# 
   619  051A                     # 18419 "C:\Program Files (x86)\Microchip\xc8\v2.00\pic\include\pic16f18875.h"
   620                           SMT2CLK equ 051Bh ;# 
   621  051B                     # 18487 "C:\Program Files (x86)\Microchip\xc8\v2.00\pic\include\pic16f18875.h"
   622                           SMT2SIG equ 051Ch ;# 
   623  051C                     # 18579 "C:\Program Files (x86)\Microchip\xc8\v2.00\pic\include\pic16f18875.h"
   624                           SMT2WIN equ 051Dh ;# 
   625  051D                     # 18673 "C:\Program Files (x86)\Microchip\xc8\v2.00\pic\include\pic16f18875.h"
   626                           NCO1ACC equ 058Ch ;# 
   627  058C                     # 18680 "C:\Program Files (x86)\Microchip\xc8\v2.00\pic\include\pic16f18875.h"
   628                           NCO1ACCL equ 058Ch ;# 
   629  058C                     # 18750 "C:\Program Files (x86)\Microchip\xc8\v2.00\pic\include\pic16f18875.h"
   630                           NCO1ACCH equ 058Dh ;# 
   631  058D                     # 18820 "C:\Program Files (x86)\Microchip\xc8\v2.00\pic\include\pic16f18875.h"
   632                           NCO1ACCU equ 058Eh ;# 
   633  058E                     # 18868 "C:\Program Files (x86)\Microchip\xc8\v2.00\pic\include\pic16f18875.h"
   634                           NCO1INC equ 058Fh ;# 
   635  058F                     # 18875 "C:\Program Files (x86)\Microchip\xc8\v2.00\pic\include\pic16f18875.h"
   636                           NCO1INCL equ 058Fh ;# 
   637  058F                     # 18945 "C:\Program Files (x86)\Microchip\xc8\v2.00\pic\include\pic16f18875.h"
   638                           NCO1INCH equ 0590h ;# 
   639  0590                     # 19015 "C:\Program Files (x86)\Microchip\xc8\v2.00\pic\include\pic16f18875.h"
   640                           NCO1INCU equ 0591h ;# 
   641  0591                     # 19061 "C:\Program Files (x86)\Microchip\xc8\v2.00\pic\include\pic16f18875.h"
   642                           NCO1CON equ 0592h ;# 
   643  0592                     # 19101 "C:\Program Files (x86)\Microchip\xc8\v2.00\pic\include\pic16f18875.h"
   644                           NCO1CLK equ 0593h ;# 
   645  0593                     # 19167 "C:\Program Files (x86)\Microchip\xc8\v2.00\pic\include\pic16f18875.h"
   646                           CWG1CLKCON equ 060Ch ;# 
   647  060C                     # 19195 "C:\Program Files (x86)\Microchip\xc8\v2.00\pic\include\pic16f18875.h"
   648                           CWG1ISM equ 060Dh ;# 
   649  060D                     # 19241 "C:\Program Files (x86)\Microchip\xc8\v2.00\pic\include\pic16f18875.h"
   650                           CWG1DBR equ 060Eh ;# 
   651  060E                     # 19345 "C:\Program Files (x86)\Microchip\xc8\v2.00\pic\include\pic16f18875.h"
   652                           CWG1DBF equ 060Fh ;# 
   653  060F                     # 19449 "C:\Program Files (x86)\Microchip\xc8\v2.00\pic\include\pic16f18875.h"
   654                           CWG1CON0 equ 0610h ;# 
   655  0610                     # 19550 "C:\Program Files (x86)\Microchip\xc8\v2.00\pic\include\pic16f18875.h"
   656                           CWG1CON1 equ 0611h ;# 
   657  0611                     # 19628 "C:\Program Files (x86)\Microchip\xc8\v2.00\pic\include\pic16f18875.h"
   658                           CWG1AS0 equ 0612h ;# 
   659  0612                     # 19748 "C:\Program Files (x86)\Microchip\xc8\v2.00\pic\include\pic16f18875.h"
   660                           CWG1AS1 equ 0613h ;# 
   661  0613                     # 19804 "C:\Program Files (x86)\Microchip\xc8\v2.00\pic\include\pic16f18875.h"
   662                           CWG1STR equ 0614h ;# 
   663  0614                     # 19916 "C:\Program Files (x86)\Microchip\xc8\v2.00\pic\include\pic16f18875.h"
   664                           CWG2CLKCON equ 0616h ;# 
   665  0616                     # 19944 "C:\Program Files (x86)\Microchip\xc8\v2.00\pic\include\pic16f18875.h"
   666                           CWG2ISM equ 0617h ;# 
   667  0617                     # 19990 "C:\Program Files (x86)\Microchip\xc8\v2.00\pic\include\pic16f18875.h"
   668                           CWG2DBR equ 0618h ;# 
   669  0618                     # 20094 "C:\Program Files (x86)\Microchip\xc8\v2.00\pic\include\pic16f18875.h"
   670                           CWG2DBF equ 0619h ;# 
   671  0619                     # 20198 "C:\Program Files (x86)\Microchip\xc8\v2.00\pic\include\pic16f18875.h"
   672                           CWG2CON0 equ 061Ah ;# 
   673  061A                     # 20299 "C:\Program Files (x86)\Microchip\xc8\v2.00\pic\include\pic16f18875.h"
   674                           CWG2CON1 equ 061Bh ;# 
   675  061B                     # 20377 "C:\Program Files (x86)\Microchip\xc8\v2.00\pic\include\pic16f18875.h"
   676                           CWG2AS0 equ 061Ch ;# 
   677  061C                     # 20497 "C:\Program Files (x86)\Microchip\xc8\v2.00\pic\include\pic16f18875.h"
   678                           CWG2AS1 equ 061Dh ;# 
   679  061D                     # 20553 "C:\Program Files (x86)\Microchip\xc8\v2.00\pic\include\pic16f18875.h"
   680                           CWG2STR equ 061Eh ;# 
   681  061E                     # 20665 "C:\Program Files (x86)\Microchip\xc8\v2.00\pic\include\pic16f18875.h"
   682                           CWG3CLKCON equ 068Ch ;# 
   683  068C                     # 20693 "C:\Program Files (x86)\Microchip\xc8\v2.00\pic\include\pic16f18875.h"
   684                           CWG3ISM equ 068Dh ;# 
   685  068D                     # 20739 "C:\Program Files (x86)\Microchip\xc8\v2.00\pic\include\pic16f18875.h"
   686                           CWG3DBR equ 068Eh ;# 
   687  068E                     # 20843 "C:\Program Files (x86)\Microchip\xc8\v2.00\pic\include\pic16f18875.h"
   688                           CWG3DBF equ 068Fh ;# 
   689  068F                     # 20947 "C:\Program Files (x86)\Microchip\xc8\v2.00\pic\include\pic16f18875.h"
   690                           CWG3CON0 equ 0690h ;# 
   691  0690                     # 21048 "C:\Program Files (x86)\Microchip\xc8\v2.00\pic\include\pic16f18875.h"
   692                           CWG3CON1 equ 0691h ;# 
   693  0691                     # 21126 "C:\Program Files (x86)\Microchip\xc8\v2.00\pic\include\pic16f18875.h"
   694                           CWG3AS0 equ 0692h ;# 
   695  0692                     # 21246 "C:\Program Files (x86)\Microchip\xc8\v2.00\pic\include\pic16f18875.h"
   696                           CWG3AS1 equ 0693h ;# 
   697  0693                     # 21302 "C:\Program Files (x86)\Microchip\xc8\v2.00\pic\include\pic16f18875.h"
   698                           CWG3STR equ 0694h ;# 
   699  0694                     # 21414 "C:\Program Files (x86)\Microchip\xc8\v2.00\pic\include\pic16f18875.h"
   700                           PIR0 equ 070Ch ;# 
   701  070C                     # 21447 "C:\Program Files (x86)\Microchip\xc8\v2.00\pic\include\pic16f18875.h"
   702                           PIR1 equ 070Dh ;# 
   703  070D                     # 21486 "C:\Program Files (x86)\Microchip\xc8\v2.00\pic\include\pic16f18875.h"
   704                           PIR2 equ 070Eh ;# 
   705  070E                     # 21519 "C:\Program Files (x86)\Microchip\xc8\v2.00\pic\include\pic16f18875.h"
   706                           PIR3 equ 070Fh ;# 
   707  070F                     # 21569 "C:\Program Files (x86)\Microchip\xc8\v2.00\pic\include\pic16f18875.h"
   708                           PIR4 equ 0710h ;# 
   709  0710                     # 21619 "C:\Program Files (x86)\Microchip\xc8\v2.00\pic\include\pic16f18875.h"
   710                           PIR5 equ 0711h ;# 
   711  0711                     # 21676 "C:\Program Files (x86)\Microchip\xc8\v2.00\pic\include\pic16f18875.h"
   712                           PIR6 equ 0712h ;# 
   713  0712                     # 21720 "C:\Program Files (x86)\Microchip\xc8\v2.00\pic\include\pic16f18875.h"
   714                           PIR7 equ 0713h ;# 
   715  0713                     # 21786 "C:\Program Files (x86)\Microchip\xc8\v2.00\pic\include\pic16f18875.h"
   716                           PIR8 equ 0714h ;# 
   717  0714                     # 21836 "C:\Program Files (x86)\Microchip\xc8\v2.00\pic\include\pic16f18875.h"
   718                           PIE0 equ 0716h ;# 
   719  0716                     # 21869 "C:\Program Files (x86)\Microchip\xc8\v2.00\pic\include\pic16f18875.h"
   720                           PIE1 equ 0717h ;# 
   721  0717                     # 21908 "C:\Program Files (x86)\Microchip\xc8\v2.00\pic\include\pic16f18875.h"
   722                           PIE2 equ 0718h ;# 
   723  0718                     # 21941 "C:\Program Files (x86)\Microchip\xc8\v2.00\pic\include\pic16f18875.h"
   724                           PIE3 equ 0719h ;# 
   725  0719                     # 21991 "C:\Program Files (x86)\Microchip\xc8\v2.00\pic\include\pic16f18875.h"
   726                           PIE4 equ 071Ah ;# 
   727  071A                     # 22041 "C:\Program Files (x86)\Microchip\xc8\v2.00\pic\include\pic16f18875.h"
   728                           PIE5 equ 071Bh ;# 
   729  071B                     # 22098 "C:\Program Files (x86)\Microchip\xc8\v2.00\pic\include\pic16f18875.h"
   730                           PIE6 equ 071Ch ;# 
   731  071C                     # 22142 "C:\Program Files (x86)\Microchip\xc8\v2.00\pic\include\pic16f18875.h"
   732                           PIE7 equ 071Dh ;# 
   733  071D                     # 22208 "C:\Program Files (x86)\Microchip\xc8\v2.00\pic\include\pic16f18875.h"
   734                           PIE8 equ 071Eh ;# 
   735  071E                     # 22258 "C:\Program Files (x86)\Microchip\xc8\v2.00\pic\include\pic16f18875.h"
   736                           PMD0 equ 0796h ;# 
   737  0796                     # 22315 "C:\Program Files (x86)\Microchip\xc8\v2.00\pic\include\pic16f18875.h"
   738                           PMD1 equ 0797h ;# 
   739  0797                     # 22386 "C:\Program Files (x86)\Microchip\xc8\v2.00\pic\include\pic16f18875.h"
   740                           PMD2 equ 0798h ;# 
   741  0798                     # 22431 "C:\Program Files (x86)\Microchip\xc8\v2.00\pic\include\pic16f18875.h"
   742                           PMD3 equ 0799h ;# 
   743  0799                     # 22487 "C:\Program Files (x86)\Microchip\xc8\v2.00\pic\include\pic16f18875.h"
   744                           PMD4 equ 079Ah ;# 
   745  079A                     # 22538 "C:\Program Files (x86)\Microchip\xc8\v2.00\pic\include\pic16f18875.h"
   746                           PMD5 equ 079Bh ;# 
   747  079B                     # 22595 "C:\Program Files (x86)\Microchip\xc8\v2.00\pic\include\pic16f18875.h"
   748                           WDTCON0 equ 080Ch ;# 
   749  080C                     # 22670 "C:\Program Files (x86)\Microchip\xc8\v2.00\pic\include\pic16f18875.h"
   750                           WDTCON1 equ 080Dh ;# 
   751  080D                     # 22764 "C:\Program Files (x86)\Microchip\xc8\v2.00\pic\include\pic16f18875.h"
   752                           WDTPSL equ 080Eh ;# 
   753  080E                     # 22892 "C:\Program Files (x86)\Microchip\xc8\v2.00\pic\include\pic16f18875.h"
   754                           WDTPSH equ 080Fh ;# 
   755  080F                     # 23020 "C:\Program Files (x86)\Microchip\xc8\v2.00\pic\include\pic16f18875.h"
   756                           WDTTMR equ 0810h ;# 
   757  0810                     # 23102 "C:\Program Files (x86)\Microchip\xc8\v2.00\pic\include\pic16f18875.h"
   758                           BORCON equ 0811h ;# 
   759  0811                     # 23129 "C:\Program Files (x86)\Microchip\xc8\v2.00\pic\include\pic16f18875.h"
   760                           VREGCON equ 0812h ;# 
   761  0812                     # 23164 "C:\Program Files (x86)\Microchip\xc8\v2.00\pic\include\pic16f18875.h"
   762                           PCON0 equ 0813h ;# 
   763  0813                     # 23226 "C:\Program Files (x86)\Microchip\xc8\v2.00\pic\include\pic16f18875.h"
   764                           CCDCON equ 0814h ;# 
   765  0814                     # 23259 "C:\Program Files (x86)\Microchip\xc8\v2.00\pic\include\pic16f18875.h"
   766                           NVMADRL equ 081Ah ;# 
   767  081A                     # 23321 "C:\Program Files (x86)\Microchip\xc8\v2.00\pic\include\pic16f18875.h"
   768                           NVMADRH equ 081Bh ;# 
   769  081B                     # 23377 "C:\Program Files (x86)\Microchip\xc8\v2.00\pic\include\pic16f18875.h"
   770                           NVMDATL equ 081Ch ;# 
   771  081C                     # 23439 "C:\Program Files (x86)\Microchip\xc8\v2.00\pic\include\pic16f18875.h"
   772                           NVMDATH equ 081Dh ;# 
   773  081D                     # 23489 "C:\Program Files (x86)\Microchip\xc8\v2.00\pic\include\pic16f18875.h"
   774                           NVMCON1 equ 081Eh ;# 
   775  081E                     # 23545 "C:\Program Files (x86)\Microchip\xc8\v2.00\pic\include\pic16f18875.h"
   776                           NVMCON2 equ 081Fh ;# 
   777  081F                     # 23552 "C:\Program Files (x86)\Microchip\xc8\v2.00\pic\include\pic16f18875.h"
   778                           CPUDOZE equ 088Ch ;# 
   779  088C                     # 23609 "C:\Program Files (x86)\Microchip\xc8\v2.00\pic\include\pic16f18875.h"
   780                           OSCCON1 equ 088Dh ;# 
   781  088D                     # 23679 "C:\Program Files (x86)\Microchip\xc8\v2.00\pic\include\pic16f18875.h"
   782                           OSCCON2 equ 088Eh ;# 
   783  088E                     # 23749 "C:\Program Files (x86)\Microchip\xc8\v2.00\pic\include\pic16f18875.h"
   784                           OSCCON3 equ 088Fh ;# 
   785  088F                     # 23789 "C:\Program Files (x86)\Microchip\xc8\v2.00\pic\include\pic16f18875.h"
   786                           OSCSTAT equ 0890h ;# 
   787  0890                     # 23846 "C:\Program Files (x86)\Microchip\xc8\v2.00\pic\include\pic16f18875.h"
   788                           OSCEN equ 0891h ;# 
   789  0891                     # 23897 "C:\Program Files (x86)\Microchip\xc8\v2.00\pic\include\pic16f18875.h"
   790                           OSCTUNE equ 0892h ;# 
   791  0892                     # 23955 "C:\Program Files (x86)\Microchip\xc8\v2.00\pic\include\pic16f18875.h"
   792                           OSCFRQ equ 0893h ;# 
   793  0893                     # 23995 "C:\Program Files (x86)\Microchip\xc8\v2.00\pic\include\pic16f18875.h"
   794                           CLKRCON equ 0895h ;# 
   795  0895                     # 24060 "C:\Program Files (x86)\Microchip\xc8\v2.00\pic\include\pic16f18875.h"
   796                           CLKRCLK equ 0896h ;# 
   797  0896                     # 24106 "C:\Program Files (x86)\Microchip\xc8\v2.00\pic\include\pic16f18875.h"
   798                           MDCON0 equ 0897h ;# 
   799  0897                     # 24146 "C:\Program Files (x86)\Microchip\xc8\v2.00\pic\include\pic16f18875.h"
   800                           MDCON1 equ 0898h ;# 
   801  0898                     # 24185 "C:\Program Files (x86)\Microchip\xc8\v2.00\pic\include\pic16f18875.h"
   802                           MDSRC equ 0899h ;# 
   803  0899                     # 24237 "C:\Program Files (x86)\Microchip\xc8\v2.00\pic\include\pic16f18875.h"
   804                           MDCARL equ 089Ah ;# 
   805  089A                     # 24283 "C:\Program Files (x86)\Microchip\xc8\v2.00\pic\include\pic16f18875.h"
   806                           MDCARH equ 089Bh ;# 
   807  089B                     # 24329 "C:\Program Files (x86)\Microchip\xc8\v2.00\pic\include\pic16f18875.h"
   808                           FVRCON equ 090Ch ;# 
   809  090C                     # 24405 "C:\Program Files (x86)\Microchip\xc8\v2.00\pic\include\pic16f18875.h"
   810                           DAC1CON0 equ 090Eh ;# 
   811  090E                     # 24506 "C:\Program Files (x86)\Microchip\xc8\v2.00\pic\include\pic16f18875.h"
   812                           DAC1CON1 equ 090Fh ;# 
   813  090F                     # 24558 "C:\Program Files (x86)\Microchip\xc8\v2.00\pic\include\pic16f18875.h"
   814                           ZCD1CON equ 091Fh ;# 
   815  091F                     # 24563 "C:\Program Files (x86)\Microchip\xc8\v2.00\pic\include\pic16f18875.h"
   816                           ZCDCON equ 091Fh ;# 
   817  091F                     # 24784 "C:\Program Files (x86)\Microchip\xc8\v2.00\pic\include\pic16f18875.h"
   818                           CMOUT equ 098Fh ;# 
   819  098F                     # 24789 "C:\Program Files (x86)\Microchip\xc8\v2.00\pic\include\pic16f18875.h"
   820                           CMSTAT equ 098Fh ;# 
   821  098F                     # 24862 "C:\Program Files (x86)\Microchip\xc8\v2.00\pic\include\pic16f18875.h"
   822                           CM1CON0 equ 0990h ;# 
   823  0990                     # 24948 "C:\Program Files (x86)\Microchip\xc8\v2.00\pic\include\pic16f18875.h"
   824                           CM1CON1 equ 0991h ;# 
   825  0991                     # 24988 "C:\Program Files (x86)\Microchip\xc8\v2.00\pic\include\pic16f18875.h"
   826                           CM1NSEL equ 0992h ;# 
   827  0992                     # 25056 "C:\Program Files (x86)\Microchip\xc8\v2.00\pic\include\pic16f18875.h"
   828                           CM1PSEL equ 0993h ;# 
   829  0993                     # 25124 "C:\Program Files (x86)\Microchip\xc8\v2.00\pic\include\pic16f18875.h"
   830                           CM2CON0 equ 0994h ;# 
   831  0994                     # 25210 "C:\Program Files (x86)\Microchip\xc8\v2.00\pic\include\pic16f18875.h"
   832                           CM2CON1 equ 0995h ;# 
   833  0995                     # 25250 "C:\Program Files (x86)\Microchip\xc8\v2.00\pic\include\pic16f18875.h"
   834                           CM2NSEL equ 0996h ;# 
   835  0996                     # 25318 "C:\Program Files (x86)\Microchip\xc8\v2.00\pic\include\pic16f18875.h"
   836                           CM2PSEL equ 0997h ;# 
   837  0997                     # 25386 "C:\Program Files (x86)\Microchip\xc8\v2.00\pic\include\pic16f18875.h"
   838                           CLCDATA equ 0E0Fh ;# 
   839  0E0F                     # 25424 "C:\Program Files (x86)\Microchip\xc8\v2.00\pic\include\pic16f18875.h"
   840                           CLC1CON equ 0E10h ;# 
   841  0E10                     # 25542 "C:\Program Files (x86)\Microchip\xc8\v2.00\pic\include\pic16f18875.h"
   842                           CLC1POL equ 0E11h ;# 
   843  0E11                     # 25620 "C:\Program Files (x86)\Microchip\xc8\v2.00\pic\include\pic16f18875.h"
   844                           CLC1SEL0 equ 0E12h ;# 
   845  0E12                     # 25748 "C:\Program Files (x86)\Microchip\xc8\v2.00\pic\include\pic16f18875.h"
   846                           CLC1SEL1 equ 0E13h ;# 
   847  0E13                     # 25876 "C:\Program Files (x86)\Microchip\xc8\v2.00\pic\include\pic16f18875.h"
   848                           CLC1SEL2 equ 0E14h ;# 
   849  0E14                     # 26004 "C:\Program Files (x86)\Microchip\xc8\v2.00\pic\include\pic16f18875.h"
   850                           CLC1SEL3 equ 0E15h ;# 
   851  0E15                     # 26132 "C:\Program Files (x86)\Microchip\xc8\v2.00\pic\include\pic16f18875.h"
   852                           CLC1GLS0 equ 0E16h ;# 
   853  0E16                     # 26244 "C:\Program Files (x86)\Microchip\xc8\v2.00\pic\include\pic16f18875.h"
   854                           CLC1GLS1 equ 0E17h ;# 
   855  0E17                     # 26356 "C:\Program Files (x86)\Microchip\xc8\v2.00\pic\include\pic16f18875.h"
   856                           CLC1GLS2 equ 0E18h ;# 
   857  0E18                     # 26468 "C:\Program Files (x86)\Microchip\xc8\v2.00\pic\include\pic16f18875.h"
   858                           CLC1GLS3 equ 0E19h ;# 
   859  0E19                     # 26580 "C:\Program Files (x86)\Microchip\xc8\v2.00\pic\include\pic16f18875.h"
   860                           CLC2CON equ 0E1Ah ;# 
   861  0E1A                     # 26698 "C:\Program Files (x86)\Microchip\xc8\v2.00\pic\include\pic16f18875.h"
   862                           CLC2POL equ 0E1Bh ;# 
   863  0E1B                     # 26776 "C:\Program Files (x86)\Microchip\xc8\v2.00\pic\include\pic16f18875.h"
   864                           CLC2SEL0 equ 0E1Ch ;# 
   865  0E1C                     # 26904 "C:\Program Files (x86)\Microchip\xc8\v2.00\pic\include\pic16f18875.h"
   866                           CLC2SEL1 equ 0E1Dh ;# 
   867  0E1D                     # 27032 "C:\Program Files (x86)\Microchip\xc8\v2.00\pic\include\pic16f18875.h"
   868                           CLC2SEL2 equ 0E1Eh ;# 
   869  0E1E                     # 27160 "C:\Program Files (x86)\Microchip\xc8\v2.00\pic\include\pic16f18875.h"
   870                           CLC2SEL3 equ 0E1Fh ;# 
   871  0E1F                     # 27288 "C:\Program Files (x86)\Microchip\xc8\v2.00\pic\include\pic16f18875.h"
   872                           CLC2GLS0 equ 0E20h ;# 
   873  0E20                     # 27400 "C:\Program Files (x86)\Microchip\xc8\v2.00\pic\include\pic16f18875.h"
   874                           CLC2GLS1 equ 0E21h ;# 
   875  0E21                     # 27512 "C:\Program Files (x86)\Microchip\xc8\v2.00\pic\include\pic16f18875.h"
   876                           CLC2GLS2 equ 0E22h ;# 
   877  0E22                     # 27624 "C:\Program Files (x86)\Microchip\xc8\v2.00\pic\include\pic16f18875.h"
   878                           CLC2GLS3 equ 0E23h ;# 
   879  0E23                     # 27736 "C:\Program Files (x86)\Microchip\xc8\v2.00\pic\include\pic16f18875.h"
   880                           CLC3CON equ 0E24h ;# 
   881  0E24                     # 27854 "C:\Program Files (x86)\Microchip\xc8\v2.00\pic\include\pic16f18875.h"
   882                           CLC3POL equ 0E25h ;# 
   883  0E25                     # 27932 "C:\Program Files (x86)\Microchip\xc8\v2.00\pic\include\pic16f18875.h"
   884                           CLC3SEL0 equ 0E26h ;# 
   885  0E26                     # 28060 "C:\Program Files (x86)\Microchip\xc8\v2.00\pic\include\pic16f18875.h"
   886                           CLC3SEL1 equ 0E27h ;# 
   887  0E27                     # 28188 "C:\Program Files (x86)\Microchip\xc8\v2.00\pic\include\pic16f18875.h"
   888                           CLC3SEL2 equ 0E28h ;# 
   889  0E28                     # 28316 "C:\Program Files (x86)\Microchip\xc8\v2.00\pic\include\pic16f18875.h"
   890                           CLC3SEL3 equ 0E29h ;# 
   891  0E29                     # 28444 "C:\Program Files (x86)\Microchip\xc8\v2.00\pic\include\pic16f18875.h"
   892                           CLC3GLS0 equ 0E2Ah ;# 
   893  0E2A                     # 28556 "C:\Program Files (x86)\Microchip\xc8\v2.00\pic\include\pic16f18875.h"
   894                           CLC3GLS1 equ 0E2Bh ;# 
   895  0E2B                     # 28668 "C:\Program Files (x86)\Microchip\xc8\v2.00\pic\include\pic16f18875.h"
   896                           CLC3GLS2 equ 0E2Ch ;# 
   897  0E2C                     # 28780 "C:\Program Files (x86)\Microchip\xc8\v2.00\pic\include\pic16f18875.h"
   898                           CLC3GLS3 equ 0E2Dh ;# 
   899  0E2D                     # 28892 "C:\Program Files (x86)\Microchip\xc8\v2.00\pic\include\pic16f18875.h"
   900                           CLC4CON equ 0E2Eh ;# 
   901  0E2E                     # 29010 "C:\Program Files (x86)\Microchip\xc8\v2.00\pic\include\pic16f18875.h"
   902                           CLC4POL equ 0E2Fh ;# 
   903  0E2F                     # 29088 "C:\Program Files (x86)\Microchip\xc8\v2.00\pic\include\pic16f18875.h"
   904                           CLC4SEL0 equ 0E30h ;# 
   905  0E30                     # 29216 "C:\Program Files (x86)\Microchip\xc8\v2.00\pic\include\pic16f18875.h"
   906                           CLC4SEL1 equ 0E31h ;# 
   907  0E31                     # 29344 "C:\Program Files (x86)\Microchip\xc8\v2.00\pic\include\pic16f18875.h"
   908                           CLC4SEL2 equ 0E32h ;# 
   909  0E32                     # 29472 "C:\Program Files (x86)\Microchip\xc8\v2.00\pic\include\pic16f18875.h"
   910                           CLC4SEL3 equ 0E33h ;# 
   911  0E33                     # 29600 "C:\Program Files (x86)\Microchip\xc8\v2.00\pic\include\pic16f18875.h"
   912                           CLC4GLS0 equ 0E34h ;# 
   913  0E34                     # 29712 "C:\Program Files (x86)\Microchip\xc8\v2.00\pic\include\pic16f18875.h"
   914                           CLC4GLS1 equ 0E35h ;# 
   915  0E35                     # 29824 "C:\Program Files (x86)\Microchip\xc8\v2.00\pic\include\pic16f18875.h"
   916                           CLC4GLS2 equ 0E36h ;# 
   917  0E36                     # 29936 "C:\Program Files (x86)\Microchip\xc8\v2.00\pic\include\pic16f18875.h"
   918                           CLC4GLS3 equ 0E37h ;# 
   919  0E37                     # 30048 "C:\Program Files (x86)\Microchip\xc8\v2.00\pic\include\pic16f18875.h"
   920                           PPSLOCK equ 0E8Fh ;# 
   921  0E8F                     # 30068 "C:\Program Files (x86)\Microchip\xc8\v2.00\pic\include\pic16f18875.h"
   922                           INTPPS equ 0E90h ;# 
   923  0E90                     # 30114 "C:\Program Files (x86)\Microchip\xc8\v2.00\pic\include\pic16f18875.h"
   924                           T0CKIPPS equ 0E91h ;# 
   925  0E91                     # 30160 "C:\Program Files (x86)\Microchip\xc8\v2.00\pic\include\pic16f18875.h"
   926                           T1CKIPPS equ 0E92h ;# 
   927  0E92                     # 30212 "C:\Program Files (x86)\Microchip\xc8\v2.00\pic\include\pic16f18875.h"
   928                           T1GPPS equ 0E93h ;# 
   929  0E93                     # 30264 "C:\Program Files (x86)\Microchip\xc8\v2.00\pic\include\pic16f18875.h"
   930                           T3CKIPPS equ 0E94h ;# 
   931  0E94                     # 30316 "C:\Program Files (x86)\Microchip\xc8\v2.00\pic\include\pic16f18875.h"
   932                           T3GPPS equ 0E95h ;# 
   933  0E95                     # 30368 "C:\Program Files (x86)\Microchip\xc8\v2.00\pic\include\pic16f18875.h"
   934                           T5CKIPPS equ 0E96h ;# 
   935  0E96                     # 30420 "C:\Program Files (x86)\Microchip\xc8\v2.00\pic\include\pic16f18875.h"
   936                           T5GPPS equ 0E97h ;# 
   937  0E97                     # 30472 "C:\Program Files (x86)\Microchip\xc8\v2.00\pic\include\pic16f18875.h"
   938                           T2AINPPS equ 0E9Ch ;# 
   939  0E9C                     # 30524 "C:\Program Files (x86)\Microchip\xc8\v2.00\pic\include\pic16f18875.h"
   940                           T4AINPPS equ 0E9Dh ;# 
   941  0E9D                     # 30576 "C:\Program Files (x86)\Microchip\xc8\v2.00\pic\include\pic16f18875.h"
   942                           T6AINPPS equ 0E9Eh ;# 
   943  0E9E                     # 30628 "C:\Program Files (x86)\Microchip\xc8\v2.00\pic\include\pic16f18875.h"
   944                           CCP1PPS equ 0EA1h ;# 
   945  0EA1                     # 30680 "C:\Program Files (x86)\Microchip\xc8\v2.00\pic\include\pic16f18875.h"
   946                           CCP2PPS equ 0EA2h ;# 
   947  0EA2                     # 30732 "C:\Program Files (x86)\Microchip\xc8\v2.00\pic\include\pic16f18875.h"
   948                           CCP3PPS equ 0EA3h ;# 
   949  0EA3                     # 30784 "C:\Program Files (x86)\Microchip\xc8\v2.00\pic\include\pic16f18875.h"
   950                           CCP4PPS equ 0EA4h ;# 
   951  0EA4                     # 30836 "C:\Program Files (x86)\Microchip\xc8\v2.00\pic\include\pic16f18875.h"
   952                           CCP5PPS equ 0EA5h ;# 
   953  0EA5                     # 30894 "C:\Program Files (x86)\Microchip\xc8\v2.00\pic\include\pic16f18875.h"
   954                           SMT1WINPPS equ 0EA9h ;# 
   955  0EA9                     # 30946 "C:\Program Files (x86)\Microchip\xc8\v2.00\pic\include\pic16f18875.h"
   956                           SMT1SIGPPS equ 0EAAh ;# 
   957  0EAA                     # 30998 "C:\Program Files (x86)\Microchip\xc8\v2.00\pic\include\pic16f18875.h"
   958                           SMT2WINPPS equ 0EABh ;# 
   959  0EAB                     # 31050 "C:\Program Files (x86)\Microchip\xc8\v2.00\pic\include\pic16f18875.h"
   960                           SMT2SIGPPS equ 0EACh ;# 
   961  0EAC                     # 31102 "C:\Program Files (x86)\Microchip\xc8\v2.00\pic\include\pic16f18875.h"
   962                           CWG1PPS equ 0EB1h ;# 
   963  0EB1                     # 31154 "C:\Program Files (x86)\Microchip\xc8\v2.00\pic\include\pic16f18875.h"
   964                           CWG2PPS equ 0EB2h ;# 
   965  0EB2                     # 31206 "C:\Program Files (x86)\Microchip\xc8\v2.00\pic\include\pic16f18875.h"
   966                           CWG3PPS equ 0EB3h ;# 
   967  0EB3                     # 31258 "C:\Program Files (x86)\Microchip\xc8\v2.00\pic\include\pic16f18875.h"
   968                           MDCARLPPS equ 0EB8h ;# 
   969  0EB8                     # 31310 "C:\Program Files (x86)\Microchip\xc8\v2.00\pic\include\pic16f18875.h"
   970                           MDCARHPPS equ 0EB9h ;# 
   971  0EB9                     # 31362 "C:\Program Files (x86)\Microchip\xc8\v2.00\pic\include\pic16f18875.h"
   972                           MDSRCPPS equ 0EBAh ;# 
   973  0EBA                     # 31414 "C:\Program Files (x86)\Microchip\xc8\v2.00\pic\include\pic16f18875.h"
   974                           CLCIN0PPS equ 0EBBh ;# 
   975  0EBB                     # 31466 "C:\Program Files (x86)\Microchip\xc8\v2.00\pic\include\pic16f18875.h"
   976                           CLCIN1PPS equ 0EBCh ;# 
   977  0EBC                     # 31518 "C:\Program Files (x86)\Microchip\xc8\v2.00\pic\include\pic16f18875.h"
   978                           CLCIN2PPS equ 0EBDh ;# 
   979  0EBD                     # 31570 "C:\Program Files (x86)\Microchip\xc8\v2.00\pic\include\pic16f18875.h"
   980                           CLCIN3PPS equ 0EBEh ;# 
   981  0EBE                     # 31622 "C:\Program Files (x86)\Microchip\xc8\v2.00\pic\include\pic16f18875.h"
   982                           ADCACTPPS equ 0EC3h ;# 
   983  0EC3                     # 31674 "C:\Program Files (x86)\Microchip\xc8\v2.00\pic\include\pic16f18875.h"
   984                           SSP1CLKPPS equ 0EC5h ;# 
   985  0EC5                     # 31726 "C:\Program Files (x86)\Microchip\xc8\v2.00\pic\include\pic16f18875.h"
   986                           SSP1DATPPS equ 0EC6h ;# 
   987  0EC6                     # 31778 "C:\Program Files (x86)\Microchip\xc8\v2.00\pic\include\pic16f18875.h"
   988                           SSP1SSPPS equ 0EC7h ;# 
   989  0EC7                     # 31830 "C:\Program Files (x86)\Microchip\xc8\v2.00\pic\include\pic16f18875.h"
   990                           SSP2CLKPPS equ 0EC8h ;# 
   991  0EC8                     # 31882 "C:\Program Files (x86)\Microchip\xc8\v2.00\pic\include\pic16f18875.h"
   992                           SSP2DATPPS equ 0EC9h ;# 
   993  0EC9                     # 31934 "C:\Program Files (x86)\Microchip\xc8\v2.00\pic\include\pic16f18875.h"
   994                           SSP2SSPPS equ 0ECAh ;# 
   995  0ECA                     # 31986 "C:\Program Files (x86)\Microchip\xc8\v2.00\pic\include\pic16f18875.h"
   996                           RXPPS equ 0ECBh ;# 
   997  0ECB                     # 32038 "C:\Program Files (x86)\Microchip\xc8\v2.00\pic\include\pic16f18875.h"
   998                           TXPPS equ 0ECCh ;# 
   999  0ECC                     # 32090 "C:\Program Files (x86)\Microchip\xc8\v2.00\pic\include\pic16f18875.h"
  1000                           RA0PPS equ 0F10h ;# 
  1001  0F10                     # 32140 "C:\Program Files (x86)\Microchip\xc8\v2.00\pic\include\pic16f18875.h"
  1002                           RA1PPS equ 0F11h ;# 
  1003  0F11                     # 32190 "C:\Program Files (x86)\Microchip\xc8\v2.00\pic\include\pic16f18875.h"
  1004                           RA2PPS equ 0F12h ;# 
  1005  0F12                     # 32240 "C:\Program Files (x86)\Microchip\xc8\v2.00\pic\include\pic16f18875.h"
  1006                           RA3PPS equ 0F13h ;# 
  1007  0F13                     # 32290 "C:\Program Files (x86)\Microchip\xc8\v2.00\pic\include\pic16f18875.h"
  1008                           RA4PPS equ 0F14h ;# 
  1009  0F14                     # 32340 "C:\Program Files (x86)\Microchip\xc8\v2.00\pic\include\pic16f18875.h"
  1010                           RA5PPS equ 0F15h ;# 
  1011  0F15                     # 32390 "C:\Program Files (x86)\Microchip\xc8\v2.00\pic\include\pic16f18875.h"
  1012                           RA6PPS equ 0F16h ;# 
  1013  0F16                     # 32440 "C:\Program Files (x86)\Microchip\xc8\v2.00\pic\include\pic16f18875.h"
  1014                           RA7PPS equ 0F17h ;# 
  1015  0F17                     # 32490 "C:\Program Files (x86)\Microchip\xc8\v2.00\pic\include\pic16f18875.h"
  1016                           RB0PPS equ 0F18h ;# 
  1017  0F18                     # 32540 "C:\Program Files (x86)\Microchip\xc8\v2.00\pic\include\pic16f18875.h"
  1018                           RB1PPS equ 0F19h ;# 
  1019  0F19                     # 32590 "C:\Program Files (x86)\Microchip\xc8\v2.00\pic\include\pic16f18875.h"
  1020                           RB2PPS equ 0F1Ah ;# 
  1021  0F1A                     # 32640 "C:\Program Files (x86)\Microchip\xc8\v2.00\pic\include\pic16f18875.h"
  1022                           RB3PPS equ 0F1Bh ;# 
  1023  0F1B                     # 32690 "C:\Program Files (x86)\Microchip\xc8\v2.00\pic\include\pic16f18875.h"
  1024                           RB4PPS equ 0F1Ch ;# 
  1025  0F1C                     # 32740 "C:\Program Files (x86)\Microchip\xc8\v2.00\pic\include\pic16f18875.h"
  1026                           RB5PPS equ 0F1Dh ;# 
  1027  0F1D                     # 32790 "C:\Program Files (x86)\Microchip\xc8\v2.00\pic\include\pic16f18875.h"
  1028                           RB6PPS equ 0F1Eh ;# 
  1029  0F1E                     # 32840 "C:\Program Files (x86)\Microchip\xc8\v2.00\pic\include\pic16f18875.h"
  1030                           RB7PPS equ 0F1Fh ;# 
  1031  0F1F                     # 32890 "C:\Program Files (x86)\Microchip\xc8\v2.00\pic\include\pic16f18875.h"
  1032                           RC0PPS equ 0F20h ;# 
  1033  0F20                     # 32940 "C:\Program Files (x86)\Microchip\xc8\v2.00\pic\include\pic16f18875.h"
  1034                           RC1PPS equ 0F21h ;# 
  1035  0F21                     # 32990 "C:\Program Files (x86)\Microchip\xc8\v2.00\pic\include\pic16f18875.h"
  1036                           RC2PPS equ 0F22h ;# 
  1037  0F22                     # 33040 "C:\Program Files (x86)\Microchip\xc8\v2.00\pic\include\pic16f18875.h"
  1038                           RC3PPS equ 0F23h ;# 
  1039  0F23                     # 33090 "C:\Program Files (x86)\Microchip\xc8\v2.00\pic\include\pic16f18875.h"
  1040                           RC4PPS equ 0F24h ;# 
  1041  0F24                     # 33140 "C:\Program Files (x86)\Microchip\xc8\v2.00\pic\include\pic16f18875.h"
  1042                           RC5PPS equ 0F25h ;# 
  1043  0F25                     # 33190 "C:\Program Files (x86)\Microchip\xc8\v2.00\pic\include\pic16f18875.h"
  1044                           RC6PPS equ 0F26h ;# 
  1045  0F26                     # 33240 "C:\Program Files (x86)\Microchip\xc8\v2.00\pic\include\pic16f18875.h"
  1046                           RC7PPS equ 0F27h ;# 
  1047  0F27                     # 33290 "C:\Program Files (x86)\Microchip\xc8\v2.00\pic\include\pic16f18875.h"
  1048                           RD0PPS equ 0F28h ;# 
  1049  0F28                     # 33340 "C:\Program Files (x86)\Microchip\xc8\v2.00\pic\include\pic16f18875.h"
  1050                           RD1PPS equ 0F29h ;# 
  1051  0F29                     # 33390 "C:\Program Files (x86)\Microchip\xc8\v2.00\pic\include\pic16f18875.h"
  1052                           RD2PPS equ 0F2Ah ;# 
  1053  0F2A                     # 33440 "C:\Program Files (x86)\Microchip\xc8\v2.00\pic\include\pic16f18875.h"
  1054                           RD3PPS equ 0F2Bh ;# 
  1055  0F2B                     # 33490 "C:\Program Files (x86)\Microchip\xc8\v2.00\pic\include\pic16f18875.h"
  1056                           RD4PPS equ 0F2Ch ;# 
  1057  0F2C                     # 33540 "C:\Program Files (x86)\Microchip\xc8\v2.00\pic\include\pic16f18875.h"
  1058                           RD5PPS equ 0F2Dh ;# 
  1059  0F2D                     # 33590 "C:\Program Files (x86)\Microchip\xc8\v2.00\pic\include\pic16f18875.h"
  1060                           RD6PPS equ 0F2Eh ;# 
  1061  0F2E                     # 33640 "C:\Program Files (x86)\Microchip\xc8\v2.00\pic\include\pic16f18875.h"
  1062                           RD7PPS equ 0F2Fh ;# 
  1063  0F2F                     # 33690 "C:\Program Files (x86)\Microchip\xc8\v2.00\pic\include\pic16f18875.h"
  1064                           RE0PPS equ 0F30h ;# 
  1065  0F30                     # 33740 "C:\Program Files (x86)\Microchip\xc8\v2.00\pic\include\pic16f18875.h"
  1066                           RE1PPS equ 0F31h ;# 
  1067  0F31                     # 33790 "C:\Program Files (x86)\Microchip\xc8\v2.00\pic\include\pic16f18875.h"
  1068                           RE2PPS equ 0F32h ;# 
  1069  0F32                     # 33840 "C:\Program Files (x86)\Microchip\xc8\v2.00\pic\include\pic16f18875.h"
  1070                           ANSELA equ 0F38h ;# 
  1071  0F38                     # 33902 "C:\Program Files (x86)\Microchip\xc8\v2.00\pic\include\pic16f18875.h"
  1072                           WPUA equ 0F39h ;# 
  1073  0F39                     # 33964 "C:\Program Files (x86)\Microchip\xc8\v2.00\pic\include\pic16f18875.h"
  1074                           ODCONA equ 0F3Ah ;# 
  1075  0F3A                     # 34026 "C:\Program Files (x86)\Microchip\xc8\v2.00\pic\include\pic16f18875.h"
  1076                           SLRCONA equ 0F3Bh ;# 
  1077  0F3B                     # 34088 "C:\Program Files (x86)\Microchip\xc8\v2.00\pic\include\pic16f18875.h"
  1078                           INLVLA equ 0F3Ch ;# 
  1079  0F3C                     # 34150 "C:\Program Files (x86)\Microchip\xc8\v2.00\pic\include\pic16f18875.h"
  1080                           IOCAP equ 0F3Dh ;# 
  1081  0F3D                     # 34212 "C:\Program Files (x86)\Microchip\xc8\v2.00\pic\include\pic16f18875.h"
  1082                           IOCAN equ 0F3Eh ;# 
  1083  0F3E                     # 34274 "C:\Program Files (x86)\Microchip\xc8\v2.00\pic\include\pic16f18875.h"
  1084                           IOCAF equ 0F3Fh ;# 
  1085  0F3F                     # 34336 "C:\Program Files (x86)\Microchip\xc8\v2.00\pic\include\pic16f18875.h"
  1086                           CCDNA equ 0F40h ;# 
  1087  0F40                     # 34398 "C:\Program Files (x86)\Microchip\xc8\v2.00\pic\include\pic16f18875.h"
  1088                           CCDPA equ 0F41h ;# 
  1089  0F41                     # 34460 "C:\Program Files (x86)\Microchip\xc8\v2.00\pic\include\pic16f18875.h"
  1090                           ANSELB equ 0F43h ;# 
  1091  0F43                     # 34522 "C:\Program Files (x86)\Microchip\xc8\v2.00\pic\include\pic16f18875.h"
  1092                           WPUB equ 0F44h ;# 
  1093  0F44                     # 34584 "C:\Program Files (x86)\Microchip\xc8\v2.00\pic\include\pic16f18875.h"
  1094                           ODCONB equ 0F45h ;# 
  1095  0F45                     # 34646 "C:\Program Files (x86)\Microchip\xc8\v2.00\pic\include\pic16f18875.h"
  1096                           SLRCONB equ 0F46h ;# 
  1097  0F46                     # 34708 "C:\Program Files (x86)\Microchip\xc8\v2.00\pic\include\pic16f18875.h"
  1098                           INLVLB equ 0F47h ;# 
  1099  0F47                     # 34770 "C:\Program Files (x86)\Microchip\xc8\v2.00\pic\include\pic16f18875.h"
  1100                           IOCBP equ 0F48h ;# 
  1101  0F48                     # 34832 "C:\Program Files (x86)\Microchip\xc8\v2.00\pic\include\pic16f18875.h"
  1102                           IOCBN equ 0F49h ;# 
  1103  0F49                     # 34894 "C:\Program Files (x86)\Microchip\xc8\v2.00\pic\include\pic16f18875.h"
  1104                           IOCBF equ 0F4Ah ;# 
  1105  0F4A                     # 34956 "C:\Program Files (x86)\Microchip\xc8\v2.00\pic\include\pic16f18875.h"
  1106                           CCDNB equ 0F4Bh ;# 
  1107  0F4B                     # 35018 "C:\Program Files (x86)\Microchip\xc8\v2.00\pic\include\pic16f18875.h"
  1108                           CCDPB equ 0F4Ch ;# 
  1109  0F4C                     # 35080 "C:\Program Files (x86)\Microchip\xc8\v2.00\pic\include\pic16f18875.h"
  1110                           ANSELC equ 0F4Eh ;# 
  1111  0F4E                     # 35142 "C:\Program Files (x86)\Microchip\xc8\v2.00\pic\include\pic16f18875.h"
  1112                           WPUC equ 0F4Fh ;# 
  1113  0F4F                     # 35204 "C:\Program Files (x86)\Microchip\xc8\v2.00\pic\include\pic16f18875.h"
  1114                           ODCONC equ 0F50h ;# 
  1115  0F50                     # 35266 "C:\Program Files (x86)\Microchip\xc8\v2.00\pic\include\pic16f18875.h"
  1116                           SLRCONC equ 0F51h ;# 
  1117  0F51                     # 35328 "C:\Program Files (x86)\Microchip\xc8\v2.00\pic\include\pic16f18875.h"
  1118                           INLVLC equ 0F52h ;# 
  1119  0F52                     # 35390 "C:\Program Files (x86)\Microchip\xc8\v2.00\pic\include\pic16f18875.h"
  1120                           IOCCP equ 0F53h ;# 
  1121  0F53                     # 35452 "C:\Program Files (x86)\Microchip\xc8\v2.00\pic\include\pic16f18875.h"
  1122                           IOCCN equ 0F54h ;# 
  1123  0F54                     # 35514 "C:\Program Files (x86)\Microchip\xc8\v2.00\pic\include\pic16f18875.h"
  1124                           IOCCF equ 0F55h ;# 
  1125  0F55                     # 35576 "C:\Program Files (x86)\Microchip\xc8\v2.00\pic\include\pic16f18875.h"
  1126                           CCDNC equ 0F56h ;# 
  1127  0F56                     # 35638 "C:\Program Files (x86)\Microchip\xc8\v2.00\pic\include\pic16f18875.h"
  1128                           CCDPC equ 0F57h ;# 
  1129  0F57                     # 35700 "C:\Program Files (x86)\Microchip\xc8\v2.00\pic\include\pic16f18875.h"
  1130                           ANSELD equ 0F59h ;# 
  1131  0F59                     # 35762 "C:\Program Files (x86)\Microchip\xc8\v2.00\pic\include\pic16f18875.h"
  1132                           WPUD equ 0F5Ah ;# 
  1133  0F5A                     # 35824 "C:\Program Files (x86)\Microchip\xc8\v2.00\pic\include\pic16f18875.h"
  1134                           ODCOND equ 0F5Bh ;# 
  1135  0F5B                     # 35886 "C:\Program Files (x86)\Microchip\xc8\v2.00\pic\include\pic16f18875.h"
  1136                           SLRCOND equ 0F5Ch ;# 
  1137  0F5C                     # 35948 "C:\Program Files (x86)\Microchip\xc8\v2.00\pic\include\pic16f18875.h"
  1138                           INLVLD equ 0F5Dh ;# 
  1139  0F5D                     # 36010 "C:\Program Files (x86)\Microchip\xc8\v2.00\pic\include\pic16f18875.h"
  1140                           CCDND equ 0F61h ;# 
  1141  0F61                     # 36072 "C:\Program Files (x86)\Microchip\xc8\v2.00\pic\include\pic16f18875.h"
  1142                           CCDPD equ 0F62h ;# 
  1143  0F62                     # 36134 "C:\Program Files (x86)\Microchip\xc8\v2.00\pic\include\pic16f18875.h"
  1144                           ANSELE equ 0F64h ;# 
  1145  0F64                     # 36166 "C:\Program Files (x86)\Microchip\xc8\v2.00\pic\include\pic16f18875.h"
  1146                           WPUE equ 0F65h ;# 
  1147  0F65                     # 36204 "C:\Program Files (x86)\Microchip\xc8\v2.00\pic\include\pic16f18875.h"
  1148                           ODCONE equ 0F66h ;# 
  1149  0F66                     # 36236 "C:\Program Files (x86)\Microchip\xc8\v2.00\pic\include\pic16f18875.h"
  1150                           SLRCONE equ 0F67h ;# 
  1151  0F67                     # 36268 "C:\Program Files (x86)\Microchip\xc8\v2.00\pic\include\pic16f18875.h"
  1152                           INLVLE equ 0F68h ;# 
  1153  0F68                     # 36306 "C:\Program Files (x86)\Microchip\xc8\v2.00\pic\include\pic16f18875.h"
  1154                           IOCEP equ 0F69h ;# 
  1155  0F69                     # 36327 "C:\Program Files (x86)\Microchip\xc8\v2.00\pic\include\pic16f18875.h"
  1156                           IOCEN equ 0F6Ah ;# 
  1157  0F6A                     # 36348 "C:\Program Files (x86)\Microchip\xc8\v2.00\pic\include\pic16f18875.h"
  1158                           IOCEF equ 0F6Bh ;# 
  1159  0F6B                     # 36369 "C:\Program Files (x86)\Microchip\xc8\v2.00\pic\include\pic16f18875.h"
  1160                           CCDNE equ 0F6Ch ;# 
  1161  0F6C                     # 36401 "C:\Program Files (x86)\Microchip\xc8\v2.00\pic\include\pic16f18875.h"
  1162                           CCDPE equ 0F6Dh ;# 
  1163  0F6D                     # 36433 "C:\Program Files (x86)\Microchip\xc8\v2.00\pic\include\pic16f18875.h"
  1164                           STATUS_SHAD equ 0FE4h ;# 
  1165  0FE4                     # 36465 "C:\Program Files (x86)\Microchip\xc8\v2.00\pic\include\pic16f18875.h"
  1166                           WREG_SHAD equ 0FE5h ;# 
  1167  0FE5                     # 36485 "C:\Program Files (x86)\Microchip\xc8\v2.00\pic\include\pic16f18875.h"
  1168                           BSR_SHAD equ 0FE6h ;# 
  1169  0FE6                     # 36505 "C:\Program Files (x86)\Microchip\xc8\v2.00\pic\include\pic16f18875.h"
  1170                           PCLATH_SHAD equ 0FE7h ;# 
  1171  0FE7                     # 36525 "C:\Program Files (x86)\Microchip\xc8\v2.00\pic\include\pic16f18875.h"
  1172                           FSR0L_SHAD equ 0FE8h ;# 
  1173  0FE8                     # 36545 "C:\Program Files (x86)\Microchip\xc8\v2.00\pic\include\pic16f18875.h"
  1174                           FSR0H_SHAD equ 0FE9h ;# 
  1175  0FE9                     # 36565 "C:\Program Files (x86)\Microchip\xc8\v2.00\pic\include\pic16f18875.h"
  1176                           FSR1L_SHAD equ 0FEAh ;# 
  1177  0FEA                     # 36585 "C:\Program Files (x86)\Microchip\xc8\v2.00\pic\include\pic16f18875.h"
  1178                           FSR1H_SHAD equ 0FEBh ;# 
  1179  0FEB                     # 36605 "C:\Program Files (x86)\Microchip\xc8\v2.00\pic\include\pic16f18875.h"
  1180                           STKPTR equ 0FEDh ;# 
  1181  0FED                     # 36625 "C:\Program Files (x86)\Microchip\xc8\v2.00\pic\include\pic16f18875.h"
  1182                           TOSL equ 0FEEh ;# 
  1183  0FEE                     # 36645 "C:\Program Files (x86)\Microchip\xc8\v2.00\pic\include\pic16f18875.h"
  1184                           TOSH equ 0FEFh ;# 
  1185  0FEF                     # 54 "C:\Program Files (x86)\Microchip\xc8\v2.00\pic\include\pic16f18875.h"
  1186                           INDF0 equ 00h ;# 
  1187  0000                     # 74 "C:\Program Files (x86)\Microchip\xc8\v2.00\pic\include\pic16f18875.h"
  1188                           INDF1 equ 01h ;# 
  1189  0001                     # 94 "C:\Program Files (x86)\Microchip\xc8\v2.00\pic\include\pic16f18875.h"
  1190                           PCL equ 02h ;# 
  1191  0002                     # 114 "C:\Program Files (x86)\Microchip\xc8\v2.00\pic\include\pic16f18875.h"
  1192                           STATUS equ 03h ;# 
  1193  0003                     # 177 "C:\Program Files (x86)\Microchip\xc8\v2.00\pic\include\pic16f18875.h"
  1194                           FSR0L equ 04h ;# 
  1195  0004                     # 197 "C:\Program Files (x86)\Microchip\xc8\v2.00\pic\include\pic16f18875.h"
  1196                           FSR0H equ 05h ;# 
  1197  0005                     # 221 "C:\Program Files (x86)\Microchip\xc8\v2.00\pic\include\pic16f18875.h"
  1198                           FSR1L equ 06h ;# 
  1199  0006                     # 241 "C:\Program Files (x86)\Microchip\xc8\v2.00\pic\include\pic16f18875.h"
  1200                           FSR1H equ 07h ;# 
  1201  0007                     # 261 "C:\Program Files (x86)\Microchip\xc8\v2.00\pic\include\pic16f18875.h"
  1202                           BSR equ 08h ;# 
  1203  0008                     # 313 "C:\Program Files (x86)\Microchip\xc8\v2.00\pic\include\pic16f18875.h"
  1204                           WREG equ 09h ;# 
  1205  0009                     # 333 "C:\Program Files (x86)\Microchip\xc8\v2.00\pic\include\pic16f18875.h"
  1206                           PCLATH equ 0Ah ;# 
  1207  000A                     # 353 "C:\Program Files (x86)\Microchip\xc8\v2.00\pic\include\pic16f18875.h"
  1208                           INTCON equ 0Bh ;# 
  1209  000B                     # 386 "C:\Program Files (x86)\Microchip\xc8\v2.00\pic\include\pic16f18875.h"
  1210                           PORTA equ 0Ch ;# 
  1211  000C                     # 448 "C:\Program Files (x86)\Microchip\xc8\v2.00\pic\include\pic16f18875.h"
  1212                           PORTB equ 0Dh ;# 
  1213  000D                     # 510 "C:\Program Files (x86)\Microchip\xc8\v2.00\pic\include\pic16f18875.h"
  1214                           PORTC equ 0Eh ;# 
  1215  000E                     # 572 "C:\Program Files (x86)\Microchip\xc8\v2.00\pic\include\pic16f18875.h"
  1216                           PORTD equ 0Fh ;# 
  1217  000F                     # 634 "C:\Program Files (x86)\Microchip\xc8\v2.00\pic\include\pic16f18875.h"
  1218                           PORTE equ 010h ;# 
  1219  0010                     # 672 "C:\Program Files (x86)\Microchip\xc8\v2.00\pic\include\pic16f18875.h"
  1220                           TRISA equ 011h ;# 
  1221  0011                     # 734 "C:\Program Files (x86)\Microchip\xc8\v2.00\pic\include\pic16f18875.h"
  1222                           TRISB equ 012h ;# 
  1223  0012                     # 796 "C:\Program Files (x86)\Microchip\xc8\v2.00\pic\include\pic16f18875.h"
  1224                           TRISC equ 013h ;# 
  1225  0013                     # 858 "C:\Program Files (x86)\Microchip\xc8\v2.00\pic\include\pic16f18875.h"
  1226                           TRISD equ 014h ;# 
  1227  0014                     # 920 "C:\Program Files (x86)\Microchip\xc8\v2.00\pic\include\pic16f18875.h"
  1228                           TRISE equ 015h ;# 
  1229  0015                     # 952 "C:\Program Files (x86)\Microchip\xc8\v2.00\pic\include\pic16f18875.h"
  1230                           LATA equ 016h ;# 
  1231  0016                     # 1014 "C:\Program Files (x86)\Microchip\xc8\v2.00\pic\include\pic16f18875.h"
  1232                           LATB equ 017h ;# 
  1233  0017                     # 1076 "C:\Program Files (x86)\Microchip\xc8\v2.00\pic\include\pic16f18875.h"
  1234                           LATC equ 018h ;# 
  1235  0018                     # 1138 "C:\Program Files (x86)\Microchip\xc8\v2.00\pic\include\pic16f18875.h"
  1236                           LATD equ 019h ;# 
  1237  0019                     # 1200 "C:\Program Files (x86)\Microchip\xc8\v2.00\pic\include\pic16f18875.h"
  1238                           LATE equ 01Ah ;# 
  1239  001A                     # 1232 "C:\Program Files (x86)\Microchip\xc8\v2.00\pic\include\pic16f18875.h"
  1240                           TMR0L equ 01Ch ;# 
  1241  001C                     # 1237 "C:\Program Files (x86)\Microchip\xc8\v2.00\pic\include\pic16f18875.h"
  1242                           TMR0 equ 01Ch ;# 
  1243  001C                     # 1370 "C:\Program Files (x86)\Microchip\xc8\v2.00\pic\include\pic16f18875.h"
  1244                           TMR0H equ 01Dh ;# 
  1245  001D                     # 1375 "C:\Program Files (x86)\Microchip\xc8\v2.00\pic\include\pic16f18875.h"
  1246                           PR0 equ 01Dh ;# 
  1247  001D                     # 1624 "C:\Program Files (x86)\Microchip\xc8\v2.00\pic\include\pic16f18875.h"
  1248                           T0CON0 equ 01Eh ;# 
  1249  001E                     # 1689 "C:\Program Files (x86)\Microchip\xc8\v2.00\pic\include\pic16f18875.h"
  1250                           T0CON1 equ 01Fh ;# 
  1251  001F                     # 1800 "C:\Program Files (x86)\Microchip\xc8\v2.00\pic\include\pic16f18875.h"
  1252                           ADRES equ 08Ch ;# 
  1253  008C                     # 1807 "C:\Program Files (x86)\Microchip\xc8\v2.00\pic\include\pic16f18875.h"
  1254                           ADRESL equ 08Ch ;# 
  1255  008C                     # 1827 "C:\Program Files (x86)\Microchip\xc8\v2.00\pic\include\pic16f18875.h"
  1256                           ADRESH equ 08Dh ;# 
  1257  008D                     # 1834 "C:\Program Files (x86)\Microchip\xc8\v2.00\pic\include\pic16f18875.h"
  1258                           ADPREV equ 08Eh ;# 
  1259  008E                     # 1841 "C:\Program Files (x86)\Microchip\xc8\v2.00\pic\include\pic16f18875.h"
  1260                           ADPREVL equ 08Eh ;# 
  1261  008E                     # 1911 "C:\Program Files (x86)\Microchip\xc8\v2.00\pic\include\pic16f18875.h"
  1262                           ADPREVH equ 08Fh ;# 
  1263  008F                     # 1981 "C:\Program Files (x86)\Microchip\xc8\v2.00\pic\include\pic16f18875.h"
  1264                           ADACC equ 090h ;# 
  1265  0090                     # 1988 "C:\Program Files (x86)\Microchip\xc8\v2.00\pic\include\pic16f18875.h"
  1266                           ADACCL equ 090h ;# 
  1267  0090                     # 2058 "C:\Program Files (x86)\Microchip\xc8\v2.00\pic\include\pic16f18875.h"
  1268                           ADACCH equ 091h ;# 
  1269  0091                     # 2128 "C:\Program Files (x86)\Microchip\xc8\v2.00\pic\include\pic16f18875.h"
  1270                           ADCON0 equ 093h ;# 
  1271  0093                     # 2239 "C:\Program Files (x86)\Microchip\xc8\v2.00\pic\include\pic16f18875.h"
  1272                           ADCON1 equ 094h ;# 
  1273  0094                     # 2278 "C:\Program Files (x86)\Microchip\xc8\v2.00\pic\include\pic16f18875.h"
  1274                           ADCON2 equ 095h ;# 
  1275  0095                     # 2355 "C:\Program Files (x86)\Microchip\xc8\v2.00\pic\include\pic16f18875.h"
  1276                           ADCON3 equ 096h ;# 
  1277  0096                     # 2426 "C:\Program Files (x86)\Microchip\xc8\v2.00\pic\include\pic16f18875.h"
  1278                           ADSTAT equ 097h ;# 
  1279  0097                     # 2496 "C:\Program Files (x86)\Microchip\xc8\v2.00\pic\include\pic16f18875.h"
  1280                           ADCLK equ 098h ;# 
  1281  0098                     # 2554 "C:\Program Files (x86)\Microchip\xc8\v2.00\pic\include\pic16f18875.h"
  1282                           ADACT equ 099h ;# 
  1283  0099                     # 2606 "C:\Program Files (x86)\Microchip\xc8\v2.00\pic\include\pic16f18875.h"
  1284                           ADREF equ 09Ah ;# 
  1285  009A                     # 2647 "C:\Program Files (x86)\Microchip\xc8\v2.00\pic\include\pic16f18875.h"
  1286                           ADCAP equ 09Bh ;# 
  1287  009B                     # 2699 "C:\Program Files (x86)\Microchip\xc8\v2.00\pic\include\pic16f18875.h"
  1288                           ADPRE equ 09Ch ;# 
  1289  009C                     # 2769 "C:\Program Files (x86)\Microchip\xc8\v2.00\pic\include\pic16f18875.h"
  1290                           ADACQ equ 09Dh ;# 
  1291  009D                     # 2839 "C:\Program Files (x86)\Microchip\xc8\v2.00\pic\include\pic16f18875.h"
  1292                           ADPCH equ 09Eh ;# 
  1293  009E                     # 2897 "C:\Program Files (x86)\Microchip\xc8\v2.00\pic\include\pic16f18875.h"
  1294                           ADCNT equ 010Ch ;# 
  1295  010C                     # 2967 "C:\Program Files (x86)\Microchip\xc8\v2.00\pic\include\pic16f18875.h"
  1296                           ADRPT equ 010Dh ;# 
  1297  010D                     # 3037 "C:\Program Files (x86)\Microchip\xc8\v2.00\pic\include\pic16f18875.h"
  1298                           ADLTH equ 010Eh ;# 
  1299  010E                     # 3044 "C:\Program Files (x86)\Microchip\xc8\v2.00\pic\include\pic16f18875.h"
  1300                           ADLTHL equ 010Eh ;# 
  1301  010E                     # 3114 "C:\Program Files (x86)\Microchip\xc8\v2.00\pic\include\pic16f18875.h"
  1302                           ADLTHH equ 010Fh ;# 
  1303  010F                     # 3184 "C:\Program Files (x86)\Microchip\xc8\v2.00\pic\include\pic16f18875.h"
  1304                           ADUTH equ 0110h ;# 
  1305  0110                     # 3191 "C:\Program Files (x86)\Microchip\xc8\v2.00\pic\include\pic16f18875.h"
  1306                           ADUTHL equ 0110h ;# 
  1307  0110                     # 3261 "C:\Program Files (x86)\Microchip\xc8\v2.00\pic\include\pic16f18875.h"
  1308                           ADUTHH equ 0111h ;# 
  1309  0111                     # 3331 "C:\Program Files (x86)\Microchip\xc8\v2.00\pic\include\pic16f18875.h"
  1310                           ADSTPT equ 0112h ;# 
  1311  0112                     # 3338 "C:\Program Files (x86)\Microchip\xc8\v2.00\pic\include\pic16f18875.h"
  1312                           ADSTPTL equ 0112h ;# 
  1313  0112                     # 3408 "C:\Program Files (x86)\Microchip\xc8\v2.00\pic\include\pic16f18875.h"
  1314                           ADSTPTH equ 0113h ;# 
  1315  0113                     # 3478 "C:\Program Files (x86)\Microchip\xc8\v2.00\pic\include\pic16f18875.h"
  1316                           ADFLTR equ 0114h ;# 
  1317  0114                     # 3485 "C:\Program Files (x86)\Microchip\xc8\v2.00\pic\include\pic16f18875.h"
  1318                           ADFLTRL equ 0114h ;# 
  1319  0114                     # 3555 "C:\Program Files (x86)\Microchip\xc8\v2.00\pic\include\pic16f18875.h"
  1320                           ADFLTRH equ 0115h ;# 
  1321  0115                     # 3625 "C:\Program Files (x86)\Microchip\xc8\v2.00\pic\include\pic16f18875.h"
  1322                           ADERR equ 0116h ;# 
  1323  0116                     # 3632 "C:\Program Files (x86)\Microchip\xc8\v2.00\pic\include\pic16f18875.h"
  1324                           ADERRL equ 0116h ;# 
  1325  0116                     # 3702 "C:\Program Files (x86)\Microchip\xc8\v2.00\pic\include\pic16f18875.h"
  1326                           ADERRH equ 0117h ;# 
  1327  0117                     # 3772 "C:\Program Files (x86)\Microchip\xc8\v2.00\pic\include\pic16f18875.h"
  1328                           RC1REG equ 0119h ;# 
  1329  0119                     # 3777 "C:\Program Files (x86)\Microchip\xc8\v2.00\pic\include\pic16f18875.h"
  1330                           RCREG equ 0119h ;# 
  1331  0119                     # 3781 "C:\Program Files (x86)\Microchip\xc8\v2.00\pic\include\pic16f18875.h"
  1332                           RCREG1 equ 0119h ;# 
  1333  0119                     # 3826 "C:\Program Files (x86)\Microchip\xc8\v2.00\pic\include\pic16f18875.h"
  1334                           TX1REG equ 011Ah ;# 
  1335  011A                     # 3831 "C:\Program Files (x86)\Microchip\xc8\v2.00\pic\include\pic16f18875.h"
  1336                           TXREG1 equ 011Ah ;# 
  1337  011A                     # 3835 "C:\Program Files (x86)\Microchip\xc8\v2.00\pic\include\pic16f18875.h"
  1338                           TXREG equ 011Ah ;# 
  1339  011A                     # 3880 "C:\Program Files (x86)\Microchip\xc8\v2.00\pic\include\pic16f18875.h"
  1340                           SP1BRG equ 011Bh ;# 
  1341  011B                     # 3887 "C:\Program Files (x86)\Microchip\xc8\v2.00\pic\include\pic16f18875.h"
  1342                           SP1BRGL equ 011Bh ;# 
  1343  011B                     # 3892 "C:\Program Files (x86)\Microchip\xc8\v2.00\pic\include\pic16f18875.h"
  1344                           SPBRG equ 011Bh ;# 
  1345  011B                     # 3896 "C:\Program Files (x86)\Microchip\xc8\v2.00\pic\include\pic16f18875.h"
  1346                           SPBRG1 equ 011Bh ;# 
  1347  011B                     # 3900 "C:\Program Files (x86)\Microchip\xc8\v2.00\pic\include\pic16f18875.h"
  1348                           SPBRGL equ 011Bh ;# 
  1349  011B                     # 3957 "C:\Program Files (x86)\Microchip\xc8\v2.00\pic\include\pic16f18875.h"
  1350                           SP1BRGH equ 011Ch ;# 
  1351  011C                     # 3962 "C:\Program Files (x86)\Microchip\xc8\v2.00\pic\include\pic16f18875.h"
  1352                           SPBRGH equ 011Ch ;# 
  1353  011C                     # 3966 "C:\Program Files (x86)\Microchip\xc8\v2.00\pic\include\pic16f18875.h"
  1354                           SPBRGH1 equ 011Ch ;# 
  1355  011C                     # 4011 "C:\Program Files (x86)\Microchip\xc8\v2.00\pic\include\pic16f18875.h"
  1356                           RC1STA equ 011Dh ;# 
  1357  011D                     # 4016 "C:\Program Files (x86)\Microchip\xc8\v2.00\pic\include\pic16f18875.h"
  1358                           RCSTA1 equ 011Dh ;# 
  1359  011D                     # 4020 "C:\Program Files (x86)\Microchip\xc8\v2.00\pic\include\pic16f18875.h"
  1360                           RCSTA equ 011Dh ;# 
  1361  011D                     # 4191 "C:\Program Files (x86)\Microchip\xc8\v2.00\pic\include\pic16f18875.h"
  1362                           TX1STA equ 011Eh ;# 
  1363  011E                     # 4196 "C:\Program Files (x86)\Microchip\xc8\v2.00\pic\include\pic16f18875.h"
  1364                           TXSTA1 equ 011Eh ;# 
  1365  011E                     # 4200 "C:\Program Files (x86)\Microchip\xc8\v2.00\pic\include\pic16f18875.h"
  1366                           TXSTA equ 011Eh ;# 
  1367  011E                     # 4371 "C:\Program Files (x86)\Microchip\xc8\v2.00\pic\include\pic16f18875.h"
  1368                           BAUD1CON equ 011Fh ;# 
  1369  011F                     # 4376 "C:\Program Files (x86)\Microchip\xc8\v2.00\pic\include\pic16f18875.h"
  1370                           BAUDCON1 equ 011Fh ;# 
  1371  011F                     # 4380 "C:\Program Files (x86)\Microchip\xc8\v2.00\pic\include\pic16f18875.h"
  1372                           BAUDCTL1 equ 011Fh ;# 
  1373  011F                     # 4384 "C:\Program Files (x86)\Microchip\xc8\v2.00\pic\include\pic16f18875.h"
  1374                           BAUDCON equ 011Fh ;# 
  1375  011F                     # 4388 "C:\Program Files (x86)\Microchip\xc8\v2.00\pic\include\pic16f18875.h"
  1376                           BAUDCTL equ 011Fh ;# 
  1377  011F                     # 4617 "C:\Program Files (x86)\Microchip\xc8\v2.00\pic\include\pic16f18875.h"
  1378                           SSP1BUF equ 018Ch ;# 
  1379  018C                     # 4637 "C:\Program Files (x86)\Microchip\xc8\v2.00\pic\include\pic16f18875.h"
  1380                           SSP1ADD equ 018Dh ;# 
  1381  018D                     # 4757 "C:\Program Files (x86)\Microchip\xc8\v2.00\pic\include\pic16f18875.h"
  1382                           SSP1MSK equ 018Eh ;# 
  1383  018E                     # 4827 "C:\Program Files (x86)\Microchip\xc8\v2.00\pic\include\pic16f18875.h"
  1384                           SSP1STAT equ 018Fh ;# 
  1385  018F                     # 5191 "C:\Program Files (x86)\Microchip\xc8\v2.00\pic\include\pic16f18875.h"
  1386                           SSP1CON1 equ 0190h ;# 
  1387  0190                     # 5311 "C:\Program Files (x86)\Microchip\xc8\v2.00\pic\include\pic16f18875.h"
  1388                           SSP1CON2 equ 0191h ;# 
  1389  0191                     # 5498 "C:\Program Files (x86)\Microchip\xc8\v2.00\pic\include\pic16f18875.h"
  1390                           SSP1CON3 equ 0192h ;# 
  1391  0192                     # 5560 "C:\Program Files (x86)\Microchip\xc8\v2.00\pic\include\pic16f18875.h"
  1392                           SSP2BUF equ 0196h ;# 
  1393  0196                     # 5580 "C:\Program Files (x86)\Microchip\xc8\v2.00\pic\include\pic16f18875.h"
  1394                           SSP2ADD equ 0197h ;# 
  1395  0197                     # 5700 "C:\Program Files (x86)\Microchip\xc8\v2.00\pic\include\pic16f18875.h"
  1396                           SSP2MSK equ 0198h ;# 
  1397  0198                     # 5770 "C:\Program Files (x86)\Microchip\xc8\v2.00\pic\include\pic16f18875.h"
  1398                           SSP2STAT equ 0199h ;# 
  1399  0199                     # 6134 "C:\Program Files (x86)\Microchip\xc8\v2.00\pic\include\pic16f18875.h"
  1400                           SSP2CON1 equ 019Ah ;# 
  1401  019A                     # 6254 "C:\Program Files (x86)\Microchip\xc8\v2.00\pic\include\pic16f18875.h"
  1402                           SSP2CON2 equ 019Bh ;# 
  1403  019B                     # 6441 "C:\Program Files (x86)\Microchip\xc8\v2.00\pic\include\pic16f18875.h"
  1404                           SSP2CON3 equ 019Ch ;# 
  1405  019C                     # 6503 "C:\Program Files (x86)\Microchip\xc8\v2.00\pic\include\pic16f18875.h"
  1406                           TMR1 equ 020Ch ;# 
  1407  020C                     # 6510 "C:\Program Files (x86)\Microchip\xc8\v2.00\pic\include\pic16f18875.h"
  1408                           TMR1L equ 020Ch ;# 
  1409  020C                     # 6680 "C:\Program Files (x86)\Microchip\xc8\v2.00\pic\include\pic16f18875.h"
  1410                           TMR1H equ 020Dh ;# 
  1411  020D                     # 6800 "C:\Program Files (x86)\Microchip\xc8\v2.00\pic\include\pic16f18875.h"
  1412                           T1CON equ 020Eh ;# 
  1413  020E                     # 6896 "C:\Program Files (x86)\Microchip\xc8\v2.00\pic\include\pic16f18875.h"
  1414                           T1GCON equ 020Fh ;# 
  1415  020F                     # 6901 "C:\Program Files (x86)\Microchip\xc8\v2.00\pic\include\pic16f18875.h"
  1416                           PR1 equ 020Fh ;# 
  1417  020F                     # 7092 "C:\Program Files (x86)\Microchip\xc8\v2.00\pic\include\pic16f18875.h"
  1418                           T1GATE equ 0210h ;# 
  1419  0210                     # 7097 "C:\Program Files (x86)\Microchip\xc8\v2.00\pic\include\pic16f18875.h"
  1420                           TMR1GATE equ 0210h ;# 
  1421  0210                     # 7258 "C:\Program Files (x86)\Microchip\xc8\v2.00\pic\include\pic16f18875.h"
  1422                           T1CLK equ 0211h ;# 
  1423  0211                     # 7263 "C:\Program Files (x86)\Microchip\xc8\v2.00\pic\include\pic16f18875.h"
  1424                           TMR1CLK equ 0211h ;# 
  1425  0211                     # 7400 "C:\Program Files (x86)\Microchip\xc8\v2.00\pic\include\pic16f18875.h"
  1426                           TMR3 equ 0212h ;# 
  1427  0212                     # 7407 "C:\Program Files (x86)\Microchip\xc8\v2.00\pic\include\pic16f18875.h"
  1428                           TMR3L equ 0212h ;# 
  1429  0212                     # 7577 "C:\Program Files (x86)\Microchip\xc8\v2.00\pic\include\pic16f18875.h"
  1430                           TMR3H equ 0213h ;# 
  1431  0213                     # 7697 "C:\Program Files (x86)\Microchip\xc8\v2.00\pic\include\pic16f18875.h"
  1432                           T3CON equ 0214h ;# 
  1433  0214                     # 7793 "C:\Program Files (x86)\Microchip\xc8\v2.00\pic\include\pic16f18875.h"
  1434                           T3GCON equ 0215h ;# 
  1435  0215                     # 7798 "C:\Program Files (x86)\Microchip\xc8\v2.00\pic\include\pic16f18875.h"
  1436                           PR3 equ 0215h ;# 
  1437  0215                     # 7989 "C:\Program Files (x86)\Microchip\xc8\v2.00\pic\include\pic16f18875.h"
  1438                           T3GATE equ 0216h ;# 
  1439  0216                     # 7994 "C:\Program Files (x86)\Microchip\xc8\v2.00\pic\include\pic16f18875.h"
  1440                           TMR3GATE equ 0216h ;# 
  1441  0216                     # 8155 "C:\Program Files (x86)\Microchip\xc8\v2.00\pic\include\pic16f18875.h"
  1442                           T3CLK equ 0217h ;# 
  1443  0217                     # 8160 "C:\Program Files (x86)\Microchip\xc8\v2.00\pic\include\pic16f18875.h"
  1444                           TMR3CLK equ 0217h ;# 
  1445  0217                     # 8297 "C:\Program Files (x86)\Microchip\xc8\v2.00\pic\include\pic16f18875.h"
  1446                           TMR5 equ 0218h ;# 
  1447  0218                     # 8304 "C:\Program Files (x86)\Microchip\xc8\v2.00\pic\include\pic16f18875.h"
  1448                           TMR5L equ 0218h ;# 
  1449  0218                     # 8474 "C:\Program Files (x86)\Microchip\xc8\v2.00\pic\include\pic16f18875.h"
  1450                           TMR5H equ 0219h ;# 
  1451  0219                     # 8594 "C:\Program Files (x86)\Microchip\xc8\v2.00\pic\include\pic16f18875.h"
  1452                           T5CON equ 021Ah ;# 
  1453  021A                     # 8690 "C:\Program Files (x86)\Microchip\xc8\v2.00\pic\include\pic16f18875.h"
  1454                           T5GCON equ 021Bh ;# 
  1455  021B                     # 8695 "C:\Program Files (x86)\Microchip\xc8\v2.00\pic\include\pic16f18875.h"
  1456                           PR5 equ 021Bh ;# 
  1457  021B                     # 8886 "C:\Program Files (x86)\Microchip\xc8\v2.00\pic\include\pic16f18875.h"
  1458                           T5GATE equ 021Ch ;# 
  1459  021C                     # 8891 "C:\Program Files (x86)\Microchip\xc8\v2.00\pic\include\pic16f18875.h"
  1460                           TMR5GATE equ 021Ch ;# 
  1461  021C                     # 9052 "C:\Program Files (x86)\Microchip\xc8\v2.00\pic\include\pic16f18875.h"
  1462                           T5CLK equ 021Dh ;# 
  1463  021D                     # 9057 "C:\Program Files (x86)\Microchip\xc8\v2.00\pic\include\pic16f18875.h"
  1464                           TMR5CLK equ 021Dh ;# 
  1465  021D                     # 9194 "C:\Program Files (x86)\Microchip\xc8\v2.00\pic\include\pic16f18875.h"
  1466                           CCPTMRS0 equ 021Eh ;# 
  1467  021E                     # 9282 "C:\Program Files (x86)\Microchip\xc8\v2.00\pic\include\pic16f18875.h"
  1468                           CCPTMRS1 equ 021Fh ;# 
  1469  021F                     # 9352 "C:\Program Files (x86)\Microchip\xc8\v2.00\pic\include\pic16f18875.h"
  1470                           T2TMR equ 028Ch ;# 
  1471  028C                     # 9357 "C:\Program Files (x86)\Microchip\xc8\v2.00\pic\include\pic16f18875.h"
  1472                           TMR2 equ 028Ch ;# 
  1473  028C                     # 9390 "C:\Program Files (x86)\Microchip\xc8\v2.00\pic\include\pic16f18875.h"
  1474                           T2PR equ 028Dh ;# 
  1475  028D                     # 9395 "C:\Program Files (x86)\Microchip\xc8\v2.00\pic\include\pic16f18875.h"
  1476                           PR2 equ 028Dh ;# 
  1477  028D                     # 9428 "C:\Program Files (x86)\Microchip\xc8\v2.00\pic\include\pic16f18875.h"
  1478                           T2CON equ 028Eh ;# 
  1479  028E                     # 9574 "C:\Program Files (x86)\Microchip\xc8\v2.00\pic\include\pic16f18875.h"
  1480                           T2HLT equ 028Fh ;# 
  1481  028F                     # 9702 "C:\Program Files (x86)\Microchip\xc8\v2.00\pic\include\pic16f18875.h"
  1482                           T2CLKCON equ 0290h ;# 
  1483  0290                     # 9707 "C:\Program Files (x86)\Microchip\xc8\v2.00\pic\include\pic16f18875.h"
  1484                           T2CLK equ 0290h ;# 
  1485  0290                     # 9860 "C:\Program Files (x86)\Microchip\xc8\v2.00\pic\include\pic16f18875.h"
  1486                           T2RST equ 0291h ;# 
  1487  0291                     # 9952 "C:\Program Files (x86)\Microchip\xc8\v2.00\pic\include\pic16f18875.h"
  1488                           T4TMR equ 0292h ;# 
  1489  0292                     # 9957 "C:\Program Files (x86)\Microchip\xc8\v2.00\pic\include\pic16f18875.h"
  1490                           TMR4 equ 0292h ;# 
  1491  0292                     # 9990 "C:\Program Files (x86)\Microchip\xc8\v2.00\pic\include\pic16f18875.h"
  1492                           T4PR equ 0293h ;# 
  1493  0293                     # 9995 "C:\Program Files (x86)\Microchip\xc8\v2.00\pic\include\pic16f18875.h"
  1494                           PR4 equ 0293h ;# 
  1495  0293                     # 10028 "C:\Program Files (x86)\Microchip\xc8\v2.00\pic\include\pic16f18875.h"
  1496                           T4CON equ 0294h ;# 
  1497  0294                     # 10174 "C:\Program Files (x86)\Microchip\xc8\v2.00\pic\include\pic16f18875.h"
  1498                           T4HLT equ 0295h ;# 
  1499  0295                     # 10302 "C:\Program Files (x86)\Microchip\xc8\v2.00\pic\include\pic16f18875.h"
  1500                           T4CLKCON equ 0296h ;# 
  1501  0296                     # 10307 "C:\Program Files (x86)\Microchip\xc8\v2.00\pic\include\pic16f18875.h"
  1502                           T4CLK equ 0296h ;# 
  1503  0296                     # 10460 "C:\Program Files (x86)\Microchip\xc8\v2.00\pic\include\pic16f18875.h"
  1504                           T4RST equ 0297h ;# 
  1505  0297                     # 10552 "C:\Program Files (x86)\Microchip\xc8\v2.00\pic\include\pic16f18875.h"
  1506                           T6TMR equ 0298h ;# 
  1507  0298                     # 10557 "C:\Program Files (x86)\Microchip\xc8\v2.00\pic\include\pic16f18875.h"
  1508                           TMR6 equ 0298h ;# 
  1509  0298                     # 10590 "C:\Program Files (x86)\Microchip\xc8\v2.00\pic\include\pic16f18875.h"
  1510                           T6PR equ 0299h ;# 
  1511  0299                     # 10595 "C:\Program Files (x86)\Microchip\xc8\v2.00\pic\include\pic16f18875.h"
  1512                           PR6 equ 0299h ;# 
  1513  0299                     # 10628 "C:\Program Files (x86)\Microchip\xc8\v2.00\pic\include\pic16f18875.h"
  1514                           T6CON equ 029Ah ;# 
  1515  029A                     # 10774 "C:\Program Files (x86)\Microchip\xc8\v2.00\pic\include\pic16f18875.h"
  1516                           T6HLT equ 029Bh ;# 
  1517  029B                     # 10902 "C:\Program Files (x86)\Microchip\xc8\v2.00\pic\include\pic16f18875.h"
  1518                           T6CLKCON equ 029Ch ;# 
  1519  029C                     # 10907 "C:\Program Files (x86)\Microchip\xc8\v2.00\pic\include\pic16f18875.h"
  1520                           T6CLK equ 029Ch ;# 
  1521  029C                     # 11060 "C:\Program Files (x86)\Microchip\xc8\v2.00\pic\include\pic16f18875.h"
  1522                           T6RST equ 029Dh ;# 
  1523  029D                     # 11152 "C:\Program Files (x86)\Microchip\xc8\v2.00\pic\include\pic16f18875.h"
  1524                           CCPR1 equ 030Ch ;# 
  1525  030C                     # 11159 "C:\Program Files (x86)\Microchip\xc8\v2.00\pic\include\pic16f18875.h"
  1526                           CCPR1L equ 030Ch ;# 
  1527  030C                     # 11179 "C:\Program Files (x86)\Microchip\xc8\v2.00\pic\include\pic16f18875.h"
  1528                           CCPR1H equ 030Dh ;# 
  1529  030D                     # 11199 "C:\Program Files (x86)\Microchip\xc8\v2.00\pic\include\pic16f18875.h"
  1530                           CCP1CON equ 030Eh ;# 
  1531  030E                     # 11342 "C:\Program Files (x86)\Microchip\xc8\v2.00\pic\include\pic16f18875.h"
  1532                           CCP1CAP equ 030Fh ;# 
  1533  030F                     # 11410 "C:\Program Files (x86)\Microchip\xc8\v2.00\pic\include\pic16f18875.h"
  1534                           CCPR2 equ 0310h ;# 
  1535  0310                     # 11417 "C:\Program Files (x86)\Microchip\xc8\v2.00\pic\include\pic16f18875.h"
  1536                           CCPR2L equ 0310h ;# 
  1537  0310                     # 11437 "C:\Program Files (x86)\Microchip\xc8\v2.00\pic\include\pic16f18875.h"
  1538                           CCPR2H equ 0311h ;# 
  1539  0311                     # 11457 "C:\Program Files (x86)\Microchip\xc8\v2.00\pic\include\pic16f18875.h"
  1540                           CCP2CON equ 0312h ;# 
  1541  0312                     # 11600 "C:\Program Files (x86)\Microchip\xc8\v2.00\pic\include\pic16f18875.h"
  1542                           CCP2CAP equ 0313h ;# 
  1543  0313                     # 11668 "C:\Program Files (x86)\Microchip\xc8\v2.00\pic\include\pic16f18875.h"
  1544                           CCPR3 equ 0314h ;# 
  1545  0314                     # 11675 "C:\Program Files (x86)\Microchip\xc8\v2.00\pic\include\pic16f18875.h"
  1546                           CCPR3L equ 0314h ;# 
  1547  0314                     # 11695 "C:\Program Files (x86)\Microchip\xc8\v2.00\pic\include\pic16f18875.h"
  1548                           CCPR3H equ 0315h ;# 
  1549  0315                     # 11715 "C:\Program Files (x86)\Microchip\xc8\v2.00\pic\include\pic16f18875.h"
  1550                           CCP3CON equ 0316h ;# 
  1551  0316                     # 11858 "C:\Program Files (x86)\Microchip\xc8\v2.00\pic\include\pic16f18875.h"
  1552                           CCP3CAP equ 0317h ;# 
  1553  0317                     # 11926 "C:\Program Files (x86)\Microchip\xc8\v2.00\pic\include\pic16f18875.h"
  1554                           CCPR4 equ 0318h ;# 
  1555  0318                     # 11933 "C:\Program Files (x86)\Microchip\xc8\v2.00\pic\include\pic16f18875.h"
  1556                           CCPR4L equ 0318h ;# 
  1557  0318                     # 11953 "C:\Program Files (x86)\Microchip\xc8\v2.00\pic\include\pic16f18875.h"
  1558                           CCPR4H equ 0319h ;# 
  1559  0319                     # 11973 "C:\Program Files (x86)\Microchip\xc8\v2.00\pic\include\pic16f18875.h"
  1560                           CCP4CON equ 031Ah ;# 
  1561  031A                     # 12116 "C:\Program Files (x86)\Microchip\xc8\v2.00\pic\include\pic16f18875.h"
  1562                           CCP4CAP equ 031Bh ;# 
  1563  031B                     # 12184 "C:\Program Files (x86)\Microchip\xc8\v2.00\pic\include\pic16f18875.h"
  1564                           CCPR5 equ 031Ch ;# 
  1565  031C                     # 12191 "C:\Program Files (x86)\Microchip\xc8\v2.00\pic\include\pic16f18875.h"
  1566                           CCPR5L equ 031Ch ;# 
  1567  031C                     # 12211 "C:\Program Files (x86)\Microchip\xc8\v2.00\pic\include\pic16f18875.h"
  1568                           CCPR5H equ 031Dh ;# 
  1569  031D                     # 12231 "C:\Program Files (x86)\Microchip\xc8\v2.00\pic\include\pic16f18875.h"
  1570                           CCP5CON equ 031Eh ;# 
  1571  031E                     # 12374 "C:\Program Files (x86)\Microchip\xc8\v2.00\pic\include\pic16f18875.h"
  1572                           CCP5CAP equ 031Fh ;# 
  1573  031F                     # 12442 "C:\Program Files (x86)\Microchip\xc8\v2.00\pic\include\pic16f18875.h"
  1574                           PWM6DC equ 038Ch ;# 
  1575  038C                     # 12449 "C:\Program Files (x86)\Microchip\xc8\v2.00\pic\include\pic16f18875.h"
  1576                           PWM6DCL equ 038Ch ;# 
  1577  038C                     # 12515 "C:\Program Files (x86)\Microchip\xc8\v2.00\pic\include\pic16f18875.h"
  1578                           PWM6DCH equ 038Dh ;# 
  1579  038D                     # 12685 "C:\Program Files (x86)\Microchip\xc8\v2.00\pic\include\pic16f18875.h"
  1580                           PWM6CON equ 038Eh ;# 
  1581  038E                     # 12751 "C:\Program Files (x86)\Microchip\xc8\v2.00\pic\include\pic16f18875.h"
  1582                           PWM7DC equ 0390h ;# 
  1583  0390                     # 12758 "C:\Program Files (x86)\Microchip\xc8\v2.00\pic\include\pic16f18875.h"
  1584                           PWM7DCL equ 0390h ;# 
  1585  0390                     # 12824 "C:\Program Files (x86)\Microchip\xc8\v2.00\pic\include\pic16f18875.h"
  1586                           PWM7DCH equ 0391h ;# 
  1587  0391                     # 12994 "C:\Program Files (x86)\Microchip\xc8\v2.00\pic\include\pic16f18875.h"
  1588                           PWM7CON equ 0392h ;# 
  1589  0392                     # 13060 "C:\Program Files (x86)\Microchip\xc8\v2.00\pic\include\pic16f18875.h"
  1590                           SCANLADRL equ 040Ch ;# 
  1591  040C                     # 13188 "C:\Program Files (x86)\Microchip\xc8\v2.00\pic\include\pic16f18875.h"
  1592                           SCANLADRH equ 040Dh ;# 
  1593  040D                     # 13316 "C:\Program Files (x86)\Microchip\xc8\v2.00\pic\include\pic16f18875.h"
  1594                           SCANHADRL equ 040Eh ;# 
  1595  040E                     # 13444 "C:\Program Files (x86)\Microchip\xc8\v2.00\pic\include\pic16f18875.h"
  1596                           SCANHADRH equ 040Fh ;# 
  1597  040F                     # 13572 "C:\Program Files (x86)\Microchip\xc8\v2.00\pic\include\pic16f18875.h"
  1598                           SCANCON0 equ 0410h ;# 
  1599  0410                     # 13694 "C:\Program Files (x86)\Microchip\xc8\v2.00\pic\include\pic16f18875.h"
  1600                           SCANTRIG equ 0411h ;# 
  1601  0411                     # 13774 "C:\Program Files (x86)\Microchip\xc8\v2.00\pic\include\pic16f18875.h"
  1602                           CRCDATA equ 0416h ;# 
  1603  0416                     # 13781 "C:\Program Files (x86)\Microchip\xc8\v2.00\pic\include\pic16f18875.h"
  1604                           CRCDATL equ 0416h ;# 
  1605  0416                     # 13843 "C:\Program Files (x86)\Microchip\xc8\v2.00\pic\include\pic16f18875.h"
  1606                           CRCDATH equ 0417h ;# 
  1607  0417                     # 13905 "C:\Program Files (x86)\Microchip\xc8\v2.00\pic\include\pic16f18875.h"
  1608                           CRCACC equ 0418h ;# 
  1609  0418                     # 13912 "C:\Program Files (x86)\Microchip\xc8\v2.00\pic\include\pic16f18875.h"
  1610                           CRCACCL equ 0418h ;# 
  1611  0418                     # 13974 "C:\Program Files (x86)\Microchip\xc8\v2.00\pic\include\pic16f18875.h"
  1612                           CRCACCH equ 0419h ;# 
  1613  0419                     # 14036 "C:\Program Files (x86)\Microchip\xc8\v2.00\pic\include\pic16f18875.h"
  1614                           CRCSHFT equ 041Ah ;# 
  1615  041A                     # 14043 "C:\Program Files (x86)\Microchip\xc8\v2.00\pic\include\pic16f18875.h"
  1616                           CRCSHIFTL equ 041Ah ;# 
  1617  041A                     # 14105 "C:\Program Files (x86)\Microchip\xc8\v2.00\pic\include\pic16f18875.h"
  1618                           CRCSHIFTH equ 041Bh ;# 
  1619  041B                     # 14167 "C:\Program Files (x86)\Microchip\xc8\v2.00\pic\include\pic16f18875.h"
  1620                           CRCXOR equ 041Ch ;# 
  1621  041C                     # 14174 "C:\Program Files (x86)\Microchip\xc8\v2.00\pic\include\pic16f18875.h"
  1622                           CRCXORL equ 041Ch ;# 
  1623  041C                     # 14231 "C:\Program Files (x86)\Microchip\xc8\v2.00\pic\include\pic16f18875.h"
  1624                           CRCXORH equ 041Dh ;# 
  1625  041D                     # 14293 "C:\Program Files (x86)\Microchip\xc8\v2.00\pic\include\pic16f18875.h"
  1626                           CRCCON0 equ 041Eh ;# 
  1627  041E                     # 14353 "C:\Program Files (x86)\Microchip\xc8\v2.00\pic\include\pic16f18875.h"
  1628                           CRCCON1 equ 041Fh ;# 
  1629  041F                     # 14431 "C:\Program Files (x86)\Microchip\xc8\v2.00\pic\include\pic16f18875.h"
  1630                           SMT1TMR equ 048Ch ;# 
  1631  048C                     # 14438 "C:\Program Files (x86)\Microchip\xc8\v2.00\pic\include\pic16f18875.h"
  1632                           SMT1TMRL equ 048Ch ;# 
  1633  048C                     # 14566 "C:\Program Files (x86)\Microchip\xc8\v2.00\pic\include\pic16f18875.h"
  1634                           SMT1TMRH equ 048Dh ;# 
  1635  048D                     # 14694 "C:\Program Files (x86)\Microchip\xc8\v2.00\pic\include\pic16f18875.h"
  1636                           SMT1TMRU equ 048Eh ;# 
  1637  048E                     # 14824 "C:\Program Files (x86)\Microchip\xc8\v2.00\pic\include\pic16f18875.h"
  1638                           SMT1CPR equ 048Fh ;# 
  1639  048F                     # 14831 "C:\Program Files (x86)\Microchip\xc8\v2.00\pic\include\pic16f18875.h"
  1640                           SMT1CPRL equ 048Fh ;# 
  1641  048F                     # 14959 "C:\Program Files (x86)\Microchip\xc8\v2.00\pic\include\pic16f18875.h"
  1642                           SMT1CPRH equ 0490h ;# 
  1643  0490                     # 15087 "C:\Program Files (x86)\Microchip\xc8\v2.00\pic\include\pic16f18875.h"
  1644                           SMT1CPRU equ 0491h ;# 
  1645  0491                     # 15217 "C:\Program Files (x86)\Microchip\xc8\v2.00\pic\include\pic16f18875.h"
  1646                           SMT1CPW equ 0492h ;# 
  1647  0492                     # 15224 "C:\Program Files (x86)\Microchip\xc8\v2.00\pic\include\pic16f18875.h"
  1648                           SMT1CPWL equ 0492h ;# 
  1649  0492                     # 15352 "C:\Program Files (x86)\Microchip\xc8\v2.00\pic\include\pic16f18875.h"
  1650                           SMT1CPWH equ 0493h ;# 
  1651  0493                     # 15480 "C:\Program Files (x86)\Microchip\xc8\v2.00\pic\include\pic16f18875.h"
  1652                           SMT1CPWU equ 0494h ;# 
  1653  0494                     # 15610 "C:\Program Files (x86)\Microchip\xc8\v2.00\pic\include\pic16f18875.h"
  1654                           SMT1PR equ 0495h ;# 
  1655  0495                     # 15617 "C:\Program Files (x86)\Microchip\xc8\v2.00\pic\include\pic16f18875.h"
  1656                           SMT1PRL equ 0495h ;# 
  1657  0495                     # 15745 "C:\Program Files (x86)\Microchip\xc8\v2.00\pic\include\pic16f18875.h"
  1658                           SMT1PRH equ 0496h ;# 
  1659  0496                     # 15873 "C:\Program Files (x86)\Microchip\xc8\v2.00\pic\include\pic16f18875.h"
  1660                           SMT1PRU equ 0497h ;# 
  1661  0497                     # 16001 "C:\Program Files (x86)\Microchip\xc8\v2.00\pic\include\pic16f18875.h"
  1662                           SMT1CON0 equ 0498h ;# 
  1663  0498                     # 16119 "C:\Program Files (x86)\Microchip\xc8\v2.00\pic\include\pic16f18875.h"
  1664                           SMT1CON1 equ 0499h ;# 
  1665  0499                     # 16199 "C:\Program Files (x86)\Microchip\xc8\v2.00\pic\include\pic16f18875.h"
  1666                           SMT1STAT equ 049Ah ;# 
  1667  049A                     # 16298 "C:\Program Files (x86)\Microchip\xc8\v2.00\pic\include\pic16f18875.h"
  1668                           SMT1CLK equ 049Bh ;# 
  1669  049B                     # 16366 "C:\Program Files (x86)\Microchip\xc8\v2.00\pic\include\pic16f18875.h"
  1670                           SMT1SIG equ 049Ch ;# 
  1671  049C                     # 16458 "C:\Program Files (x86)\Microchip\xc8\v2.00\pic\include\pic16f18875.h"
  1672                           SMT1WIN equ 049Dh ;# 
  1673  049D                     # 16552 "C:\Program Files (x86)\Microchip\xc8\v2.00\pic\include\pic16f18875.h"
  1674                           SMT2TMR equ 050Ch ;# 
  1675  050C                     # 16559 "C:\Program Files (x86)\Microchip\xc8\v2.00\pic\include\pic16f18875.h"
  1676                           SMT2TMRL equ 050Ch ;# 
  1677  050C                     # 16687 "C:\Program Files (x86)\Microchip\xc8\v2.00\pic\include\pic16f18875.h"
  1678                           SMT2TMRH equ 050Dh ;# 
  1679  050D                     # 16815 "C:\Program Files (x86)\Microchip\xc8\v2.00\pic\include\pic16f18875.h"
  1680                           SMT2TMRU equ 050Eh ;# 
  1681  050E                     # 16945 "C:\Program Files (x86)\Microchip\xc8\v2.00\pic\include\pic16f18875.h"
  1682                           SMT2CPR equ 050Fh ;# 
  1683  050F                     # 16952 "C:\Program Files (x86)\Microchip\xc8\v2.00\pic\include\pic16f18875.h"
  1684                           SMT2CPRL equ 050Fh ;# 
  1685  050F                     # 17080 "C:\Program Files (x86)\Microchip\xc8\v2.00\pic\include\pic16f18875.h"
  1686                           SMT2CPRH equ 0510h ;# 
  1687  0510                     # 17208 "C:\Program Files (x86)\Microchip\xc8\v2.00\pic\include\pic16f18875.h"
  1688                           SMT2CPRU equ 0511h ;# 
  1689  0511                     # 17338 "C:\Program Files (x86)\Microchip\xc8\v2.00\pic\include\pic16f18875.h"
  1690                           SMT2CPW equ 0512h ;# 
  1691  0512                     # 17345 "C:\Program Files (x86)\Microchip\xc8\v2.00\pic\include\pic16f18875.h"
  1692                           SMT2CPWL equ 0512h ;# 
  1693  0512                     # 17473 "C:\Program Files (x86)\Microchip\xc8\v2.00\pic\include\pic16f18875.h"
  1694                           SMT2CPWH equ 0513h ;# 
  1695  0513                     # 17601 "C:\Program Files (x86)\Microchip\xc8\v2.00\pic\include\pic16f18875.h"
  1696                           SMT2CPWU equ 0514h ;# 
  1697  0514                     # 17731 "C:\Program Files (x86)\Microchip\xc8\v2.00\pic\include\pic16f18875.h"
  1698                           SMT2PR equ 0515h ;# 
  1699  0515                     # 17738 "C:\Program Files (x86)\Microchip\xc8\v2.00\pic\include\pic16f18875.h"
  1700                           SMT2PRL equ 0515h ;# 
  1701  0515                     # 17866 "C:\Program Files (x86)\Microchip\xc8\v2.00\pic\include\pic16f18875.h"
  1702                           SMT2PRH equ 0516h ;# 
  1703  0516                     # 17994 "C:\Program Files (x86)\Microchip\xc8\v2.00\pic\include\pic16f18875.h"
  1704                           SMT2PRU equ 0517h ;# 
  1705  0517                     # 18122 "C:\Program Files (x86)\Microchip\xc8\v2.00\pic\include\pic16f18875.h"
  1706                           SMT2CON0 equ 0518h ;# 
  1707  0518                     # 18240 "C:\Program Files (x86)\Microchip\xc8\v2.00\pic\include\pic16f18875.h"
  1708                           SMT2CON1 equ 0519h ;# 
  1709  0519                     # 18320 "C:\Program Files (x86)\Microchip\xc8\v2.00\pic\include\pic16f18875.h"
  1710                           SMT2STAT equ 051Ah ;# 
  1711  051A                     # 18419 "C:\Program Files (x86)\Microchip\xc8\v2.00\pic\include\pic16f18875.h"
  1712                           SMT2CLK equ 051Bh ;# 
  1713  051B                     # 18487 "C:\Program Files (x86)\Microchip\xc8\v2.00\pic\include\pic16f18875.h"
  1714                           SMT2SIG equ 051Ch ;# 
  1715  051C                     # 18579 "C:\Program Files (x86)\Microchip\xc8\v2.00\pic\include\pic16f18875.h"
  1716                           SMT2WIN equ 051Dh ;# 
  1717  051D                     # 18673 "C:\Program Files (x86)\Microchip\xc8\v2.00\pic\include\pic16f18875.h"
  1718                           NCO1ACC equ 058Ch ;# 
  1719  058C                     # 18680 "C:\Program Files (x86)\Microchip\xc8\v2.00\pic\include\pic16f18875.h"
  1720                           NCO1ACCL equ 058Ch ;# 
  1721  058C                     # 18750 "C:\Program Files (x86)\Microchip\xc8\v2.00\pic\include\pic16f18875.h"
  1722                           NCO1ACCH equ 058Dh ;# 
  1723  058D                     # 18820 "C:\Program Files (x86)\Microchip\xc8\v2.00\pic\include\pic16f18875.h"
  1724                           NCO1ACCU equ 058Eh ;# 
  1725  058E                     # 18868 "C:\Program Files (x86)\Microchip\xc8\v2.00\pic\include\pic16f18875.h"
  1726                           NCO1INC equ 058Fh ;# 
  1727  058F                     # 18875 "C:\Program Files (x86)\Microchip\xc8\v2.00\pic\include\pic16f18875.h"
  1728                           NCO1INCL equ 058Fh ;# 
  1729  058F                     # 18945 "C:\Program Files (x86)\Microchip\xc8\v2.00\pic\include\pic16f18875.h"
  1730                           NCO1INCH equ 0590h ;# 
  1731  0590                     # 19015 "C:\Program Files (x86)\Microchip\xc8\v2.00\pic\include\pic16f18875.h"
  1732                           NCO1INCU equ 0591h ;# 
  1733  0591                     # 19061 "C:\Program Files (x86)\Microchip\xc8\v2.00\pic\include\pic16f18875.h"
  1734                           NCO1CON equ 0592h ;# 
  1735  0592                     # 19101 "C:\Program Files (x86)\Microchip\xc8\v2.00\pic\include\pic16f18875.h"
  1736                           NCO1CLK equ 0593h ;# 
  1737  0593                     # 19167 "C:\Program Files (x86)\Microchip\xc8\v2.00\pic\include\pic16f18875.h"
  1738                           CWG1CLKCON equ 060Ch ;# 
  1739  060C                     # 19195 "C:\Program Files (x86)\Microchip\xc8\v2.00\pic\include\pic16f18875.h"
  1740                           CWG1ISM equ 060Dh ;# 
  1741  060D                     # 19241 "C:\Program Files (x86)\Microchip\xc8\v2.00\pic\include\pic16f18875.h"
  1742                           CWG1DBR equ 060Eh ;# 
  1743  060E                     # 19345 "C:\Program Files (x86)\Microchip\xc8\v2.00\pic\include\pic16f18875.h"
  1744                           CWG1DBF equ 060Fh ;# 
  1745  060F                     # 19449 "C:\Program Files (x86)\Microchip\xc8\v2.00\pic\include\pic16f18875.h"
  1746                           CWG1CON0 equ 0610h ;# 
  1747  0610                     # 19550 "C:\Program Files (x86)\Microchip\xc8\v2.00\pic\include\pic16f18875.h"
  1748                           CWG1CON1 equ 0611h ;# 
  1749  0611                     # 19628 "C:\Program Files (x86)\Microchip\xc8\v2.00\pic\include\pic16f18875.h"
  1750                           CWG1AS0 equ 0612h ;# 
  1751  0612                     # 19748 "C:\Program Files (x86)\Microchip\xc8\v2.00\pic\include\pic16f18875.h"
  1752                           CWG1AS1 equ 0613h ;# 
  1753  0613                     # 19804 "C:\Program Files (x86)\Microchip\xc8\v2.00\pic\include\pic16f18875.h"
  1754                           CWG1STR equ 0614h ;# 
  1755  0614                     # 19916 "C:\Program Files (x86)\Microchip\xc8\v2.00\pic\include\pic16f18875.h"
  1756                           CWG2CLKCON equ 0616h ;# 
  1757  0616                     # 19944 "C:\Program Files (x86)\Microchip\xc8\v2.00\pic\include\pic16f18875.h"
  1758                           CWG2ISM equ 0617h ;# 
  1759  0617                     # 19990 "C:\Program Files (x86)\Microchip\xc8\v2.00\pic\include\pic16f18875.h"
  1760                           CWG2DBR equ 0618h ;# 
  1761  0618                     # 20094 "C:\Program Files (x86)\Microchip\xc8\v2.00\pic\include\pic16f18875.h"
  1762                           CWG2DBF equ 0619h ;# 
  1763  0619                     # 20198 "C:\Program Files (x86)\Microchip\xc8\v2.00\pic\include\pic16f18875.h"
  1764                           CWG2CON0 equ 061Ah ;# 
  1765  061A                     # 20299 "C:\Program Files (x86)\Microchip\xc8\v2.00\pic\include\pic16f18875.h"
  1766                           CWG2CON1 equ 061Bh ;# 
  1767  061B                     # 20377 "C:\Program Files (x86)\Microchip\xc8\v2.00\pic\include\pic16f18875.h"
  1768                           CWG2AS0 equ 061Ch ;# 
  1769  061C                     # 20497 "C:\Program Files (x86)\Microchip\xc8\v2.00\pic\include\pic16f18875.h"
  1770                           CWG2AS1 equ 061Dh ;# 
  1771  061D                     # 20553 "C:\Program Files (x86)\Microchip\xc8\v2.00\pic\include\pic16f18875.h"
  1772                           CWG2STR equ 061Eh ;# 
  1773  061E                     # 20665 "C:\Program Files (x86)\Microchip\xc8\v2.00\pic\include\pic16f18875.h"
  1774                           CWG3CLKCON equ 068Ch ;# 
  1775  068C                     # 20693 "C:\Program Files (x86)\Microchip\xc8\v2.00\pic\include\pic16f18875.h"
  1776                           CWG3ISM equ 068Dh ;# 
  1777  068D                     # 20739 "C:\Program Files (x86)\Microchip\xc8\v2.00\pic\include\pic16f18875.h"
  1778                           CWG3DBR equ 068Eh ;# 
  1779  068E                     # 20843 "C:\Program Files (x86)\Microchip\xc8\v2.00\pic\include\pic16f18875.h"
  1780                           CWG3DBF equ 068Fh ;# 
  1781  068F                     # 20947 "C:\Program Files (x86)\Microchip\xc8\v2.00\pic\include\pic16f18875.h"
  1782                           CWG3CON0 equ 0690h ;# 
  1783  0690                     # 21048 "C:\Program Files (x86)\Microchip\xc8\v2.00\pic\include\pic16f18875.h"
  1784                           CWG3CON1 equ 0691h ;# 
  1785  0691                     # 21126 "C:\Program Files (x86)\Microchip\xc8\v2.00\pic\include\pic16f18875.h"
  1786                           CWG3AS0 equ 0692h ;# 
  1787  0692                     # 21246 "C:\Program Files (x86)\Microchip\xc8\v2.00\pic\include\pic16f18875.h"
  1788                           CWG3AS1 equ 0693h ;# 
  1789  0693                     # 21302 "C:\Program Files (x86)\Microchip\xc8\v2.00\pic\include\pic16f18875.h"
  1790                           CWG3STR equ 0694h ;# 
  1791  0694                     # 21414 "C:\Program Files (x86)\Microchip\xc8\v2.00\pic\include\pic16f18875.h"
  1792                           PIR0 equ 070Ch ;# 
  1793  070C                     # 21447 "C:\Program Files (x86)\Microchip\xc8\v2.00\pic\include\pic16f18875.h"
  1794                           PIR1 equ 070Dh ;# 
  1795  070D                     # 21486 "C:\Program Files (x86)\Microchip\xc8\v2.00\pic\include\pic16f18875.h"
  1796                           PIR2 equ 070Eh ;# 
  1797  070E                     # 21519 "C:\Program Files (x86)\Microchip\xc8\v2.00\pic\include\pic16f18875.h"
  1798                           PIR3 equ 070Fh ;# 
  1799  070F                     # 21569 "C:\Program Files (x86)\Microchip\xc8\v2.00\pic\include\pic16f18875.h"
  1800                           PIR4 equ 0710h ;# 
  1801  0710                     # 21619 "C:\Program Files (x86)\Microchip\xc8\v2.00\pic\include\pic16f18875.h"
  1802                           PIR5 equ 0711h ;# 
  1803  0711                     # 21676 "C:\Program Files (x86)\Microchip\xc8\v2.00\pic\include\pic16f18875.h"
  1804                           PIR6 equ 0712h ;# 
  1805  0712                     # 21720 "C:\Program Files (x86)\Microchip\xc8\v2.00\pic\include\pic16f18875.h"
  1806                           PIR7 equ 0713h ;# 
  1807  0713                     # 21786 "C:\Program Files (x86)\Microchip\xc8\v2.00\pic\include\pic16f18875.h"
  1808                           PIR8 equ 0714h ;# 
  1809  0714                     # 21836 "C:\Program Files (x86)\Microchip\xc8\v2.00\pic\include\pic16f18875.h"
  1810                           PIE0 equ 0716h ;# 
  1811  0716                     # 21869 "C:\Program Files (x86)\Microchip\xc8\v2.00\pic\include\pic16f18875.h"
  1812                           PIE1 equ 0717h ;# 
  1813  0717                     # 21908 "C:\Program Files (x86)\Microchip\xc8\v2.00\pic\include\pic16f18875.h"
  1814                           PIE2 equ 0718h ;# 
  1815  0718                     # 21941 "C:\Program Files (x86)\Microchip\xc8\v2.00\pic\include\pic16f18875.h"
  1816                           PIE3 equ 0719h ;# 
  1817  0719                     # 21991 "C:\Program Files (x86)\Microchip\xc8\v2.00\pic\include\pic16f18875.h"
  1818                           PIE4 equ 071Ah ;# 
  1819  071A                     # 22041 "C:\Program Files (x86)\Microchip\xc8\v2.00\pic\include\pic16f18875.h"
  1820                           PIE5 equ 071Bh ;# 
  1821  071B                     # 22098 "C:\Program Files (x86)\Microchip\xc8\v2.00\pic\include\pic16f18875.h"
  1822                           PIE6 equ 071Ch ;# 
  1823  071C                     # 22142 "C:\Program Files (x86)\Microchip\xc8\v2.00\pic\include\pic16f18875.h"
  1824                           PIE7 equ 071Dh ;# 
  1825  071D                     # 22208 "C:\Program Files (x86)\Microchip\xc8\v2.00\pic\include\pic16f18875.h"
  1826                           PIE8 equ 071Eh ;# 
  1827  071E                     # 22258 "C:\Program Files (x86)\Microchip\xc8\v2.00\pic\include\pic16f18875.h"
  1828                           PMD0 equ 0796h ;# 
  1829  0796                     # 22315 "C:\Program Files (x86)\Microchip\xc8\v2.00\pic\include\pic16f18875.h"
  1830                           PMD1 equ 0797h ;# 
  1831  0797                     # 22386 "C:\Program Files (x86)\Microchip\xc8\v2.00\pic\include\pic16f18875.h"
  1832                           PMD2 equ 0798h ;# 
  1833  0798                     # 22431 "C:\Program Files (x86)\Microchip\xc8\v2.00\pic\include\pic16f18875.h"
  1834                           PMD3 equ 0799h ;# 
  1835  0799                     # 22487 "C:\Program Files (x86)\Microchip\xc8\v2.00\pic\include\pic16f18875.h"
  1836                           PMD4 equ 079Ah ;# 
  1837  079A                     # 22538 "C:\Program Files (x86)\Microchip\xc8\v2.00\pic\include\pic16f18875.h"
  1838                           PMD5 equ 079Bh ;# 
  1839  079B                     # 22595 "C:\Program Files (x86)\Microchip\xc8\v2.00\pic\include\pic16f18875.h"
  1840                           WDTCON0 equ 080Ch ;# 
  1841  080C                     # 22670 "C:\Program Files (x86)\Microchip\xc8\v2.00\pic\include\pic16f18875.h"
  1842                           WDTCON1 equ 080Dh ;# 
  1843  080D                     # 22764 "C:\Program Files (x86)\Microchip\xc8\v2.00\pic\include\pic16f18875.h"
  1844                           WDTPSL equ 080Eh ;# 
  1845  080E                     # 22892 "C:\Program Files (x86)\Microchip\xc8\v2.00\pic\include\pic16f18875.h"
  1846                           WDTPSH equ 080Fh ;# 
  1847  080F                     # 23020 "C:\Program Files (x86)\Microchip\xc8\v2.00\pic\include\pic16f18875.h"
  1848                           WDTTMR equ 0810h ;# 
  1849  0810                     # 23102 "C:\Program Files (x86)\Microchip\xc8\v2.00\pic\include\pic16f18875.h"
  1850                           BORCON equ 0811h ;# 
  1851  0811                     # 23129 "C:\Program Files (x86)\Microchip\xc8\v2.00\pic\include\pic16f18875.h"
  1852                           VREGCON equ 0812h ;# 
  1853  0812                     # 23164 "C:\Program Files (x86)\Microchip\xc8\v2.00\pic\include\pic16f18875.h"
  1854                           PCON0 equ 0813h ;# 
  1855  0813                     # 23226 "C:\Program Files (x86)\Microchip\xc8\v2.00\pic\include\pic16f18875.h"
  1856                           CCDCON equ 0814h ;# 
  1857  0814                     # 23259 "C:\Program Files (x86)\Microchip\xc8\v2.00\pic\include\pic16f18875.h"
  1858                           NVMADRL equ 081Ah ;# 
  1859  081A                     # 23321 "C:\Program Files (x86)\Microchip\xc8\v2.00\pic\include\pic16f18875.h"
  1860                           NVMADRH equ 081Bh ;# 
  1861  081B                     # 23377 "C:\Program Files (x86)\Microchip\xc8\v2.00\pic\include\pic16f18875.h"
  1862                           NVMDATL equ 081Ch ;# 
  1863  081C                     # 23439 "C:\Program Files (x86)\Microchip\xc8\v2.00\pic\include\pic16f18875.h"
  1864                           NVMDATH equ 081Dh ;# 
  1865  081D                     # 23489 "C:\Program Files (x86)\Microchip\xc8\v2.00\pic\include\pic16f18875.h"
  1866                           NVMCON1 equ 081Eh ;# 
  1867  081E                     # 23545 "C:\Program Files (x86)\Microchip\xc8\v2.00\pic\include\pic16f18875.h"
  1868                           NVMCON2 equ 081Fh ;# 
  1869  081F                     # 23552 "C:\Program Files (x86)\Microchip\xc8\v2.00\pic\include\pic16f18875.h"
  1870                           CPUDOZE equ 088Ch ;# 
  1871  088C                     # 23609 "C:\Program Files (x86)\Microchip\xc8\v2.00\pic\include\pic16f18875.h"
  1872                           OSCCON1 equ 088Dh ;# 
  1873  088D                     # 23679 "C:\Program Files (x86)\Microchip\xc8\v2.00\pic\include\pic16f18875.h"
  1874                           OSCCON2 equ 088Eh ;# 
  1875  088E                     # 23749 "C:\Program Files (x86)\Microchip\xc8\v2.00\pic\include\pic16f18875.h"
  1876                           OSCCON3 equ 088Fh ;# 
  1877  088F                     # 23789 "C:\Program Files (x86)\Microchip\xc8\v2.00\pic\include\pic16f18875.h"
  1878                           OSCSTAT equ 0890h ;# 
  1879  0890                     # 23846 "C:\Program Files (x86)\Microchip\xc8\v2.00\pic\include\pic16f18875.h"
  1880                           OSCEN equ 0891h ;# 
  1881  0891                     # 23897 "C:\Program Files (x86)\Microchip\xc8\v2.00\pic\include\pic16f18875.h"
  1882                           OSCTUNE equ 0892h ;# 
  1883  0892                     # 23955 "C:\Program Files (x86)\Microchip\xc8\v2.00\pic\include\pic16f18875.h"
  1884                           OSCFRQ equ 0893h ;# 
  1885  0893                     # 23995 "C:\Program Files (x86)\Microchip\xc8\v2.00\pic\include\pic16f18875.h"
  1886                           CLKRCON equ 0895h ;# 
  1887  0895                     # 24060 "C:\Program Files (x86)\Microchip\xc8\v2.00\pic\include\pic16f18875.h"
  1888                           CLKRCLK equ 0896h ;# 
  1889  0896                     # 24106 "C:\Program Files (x86)\Microchip\xc8\v2.00\pic\include\pic16f18875.h"
  1890                           MDCON0 equ 0897h ;# 
  1891  0897                     # 24146 "C:\Program Files (x86)\Microchip\xc8\v2.00\pic\include\pic16f18875.h"
  1892                           MDCON1 equ 0898h ;# 
  1893  0898                     # 24185 "C:\Program Files (x86)\Microchip\xc8\v2.00\pic\include\pic16f18875.h"
  1894                           MDSRC equ 0899h ;# 
  1895  0899                     # 24237 "C:\Program Files (x86)\Microchip\xc8\v2.00\pic\include\pic16f18875.h"
  1896                           MDCARL equ 089Ah ;# 
  1897  089A                     # 24283 "C:\Program Files (x86)\Microchip\xc8\v2.00\pic\include\pic16f18875.h"
  1898                           MDCARH equ 089Bh ;# 
  1899  089B                     # 24329 "C:\Program Files (x86)\Microchip\xc8\v2.00\pic\include\pic16f18875.h"
  1900                           FVRCON equ 090Ch ;# 
  1901  090C                     # 24405 "C:\Program Files (x86)\Microchip\xc8\v2.00\pic\include\pic16f18875.h"
  1902                           DAC1CON0 equ 090Eh ;# 
  1903  090E                     # 24506 "C:\Program Files (x86)\Microchip\xc8\v2.00\pic\include\pic16f18875.h"
  1904                           DAC1CON1 equ 090Fh ;# 
  1905  090F                     # 24558 "C:\Program Files (x86)\Microchip\xc8\v2.00\pic\include\pic16f18875.h"
  1906                           ZCD1CON equ 091Fh ;# 
  1907  091F                     # 24563 "C:\Program Files (x86)\Microchip\xc8\v2.00\pic\include\pic16f18875.h"
  1908                           ZCDCON equ 091Fh ;# 
  1909  091F                     # 24784 "C:\Program Files (x86)\Microchip\xc8\v2.00\pic\include\pic16f18875.h"
  1910                           CMOUT equ 098Fh ;# 
  1911  098F                     # 24789 "C:\Program Files (x86)\Microchip\xc8\v2.00\pic\include\pic16f18875.h"
  1912                           CMSTAT equ 098Fh ;# 
  1913  098F                     # 24862 "C:\Program Files (x86)\Microchip\xc8\v2.00\pic\include\pic16f18875.h"
  1914                           CM1CON0 equ 0990h ;# 
  1915  0990                     # 24948 "C:\Program Files (x86)\Microchip\xc8\v2.00\pic\include\pic16f18875.h"
  1916                           CM1CON1 equ 0991h ;# 
  1917  0991                     # 24988 "C:\Program Files (x86)\Microchip\xc8\v2.00\pic\include\pic16f18875.h"
  1918                           CM1NSEL equ 0992h ;# 
  1919  0992                     # 25056 "C:\Program Files (x86)\Microchip\xc8\v2.00\pic\include\pic16f18875.h"
  1920                           CM1PSEL equ 0993h ;# 
  1921  0993                     # 25124 "C:\Program Files (x86)\Microchip\xc8\v2.00\pic\include\pic16f18875.h"
  1922                           CM2CON0 equ 0994h ;# 
  1923  0994                     # 25210 "C:\Program Files (x86)\Microchip\xc8\v2.00\pic\include\pic16f18875.h"
  1924                           CM2CON1 equ 0995h ;# 
  1925  0995                     # 25250 "C:\Program Files (x86)\Microchip\xc8\v2.00\pic\include\pic16f18875.h"
  1926                           CM2NSEL equ 0996h ;# 
  1927  0996                     # 25318 "C:\Program Files (x86)\Microchip\xc8\v2.00\pic\include\pic16f18875.h"
  1928                           CM2PSEL equ 0997h ;# 
  1929  0997                     # 25386 "C:\Program Files (x86)\Microchip\xc8\v2.00\pic\include\pic16f18875.h"
  1930                           CLCDATA equ 0E0Fh ;# 
  1931  0E0F                     # 25424 "C:\Program Files (x86)\Microchip\xc8\v2.00\pic\include\pic16f18875.h"
  1932                           CLC1CON equ 0E10h ;# 
  1933  0E10                     # 25542 "C:\Program Files (x86)\Microchip\xc8\v2.00\pic\include\pic16f18875.h"
  1934                           CLC1POL equ 0E11h ;# 
  1935  0E11                     # 25620 "C:\Program Files (x86)\Microchip\xc8\v2.00\pic\include\pic16f18875.h"
  1936                           CLC1SEL0 equ 0E12h ;# 
  1937  0E12                     # 25748 "C:\Program Files (x86)\Microchip\xc8\v2.00\pic\include\pic16f18875.h"
  1938                           CLC1SEL1 equ 0E13h ;# 
  1939  0E13                     # 25876 "C:\Program Files (x86)\Microchip\xc8\v2.00\pic\include\pic16f18875.h"
  1940                           CLC1SEL2 equ 0E14h ;# 
  1941  0E14                     # 26004 "C:\Program Files (x86)\Microchip\xc8\v2.00\pic\include\pic16f18875.h"
  1942                           CLC1SEL3 equ 0E15h ;# 
  1943  0E15                     # 26132 "C:\Program Files (x86)\Microchip\xc8\v2.00\pic\include\pic16f18875.h"
  1944                           CLC1GLS0 equ 0E16h ;# 
  1945  0E16                     # 26244 "C:\Program Files (x86)\Microchip\xc8\v2.00\pic\include\pic16f18875.h"
  1946                           CLC1GLS1 equ 0E17h ;# 
  1947  0E17                     # 26356 "C:\Program Files (x86)\Microchip\xc8\v2.00\pic\include\pic16f18875.h"
  1948                           CLC1GLS2 equ 0E18h ;# 
  1949  0E18                     # 26468 "C:\Program Files (x86)\Microchip\xc8\v2.00\pic\include\pic16f18875.h"
  1950                           CLC1GLS3 equ 0E19h ;# 
  1951  0E19                     # 26580 "C:\Program Files (x86)\Microchip\xc8\v2.00\pic\include\pic16f18875.h"
  1952                           CLC2CON equ 0E1Ah ;# 
  1953  0E1A                     # 26698 "C:\Program Files (x86)\Microchip\xc8\v2.00\pic\include\pic16f18875.h"
  1954                           CLC2POL equ 0E1Bh ;# 
  1955  0E1B                     # 26776 "C:\Program Files (x86)\Microchip\xc8\v2.00\pic\include\pic16f18875.h"
  1956                           CLC2SEL0 equ 0E1Ch ;# 
  1957  0E1C                     # 26904 "C:\Program Files (x86)\Microchip\xc8\v2.00\pic\include\pic16f18875.h"
  1958                           CLC2SEL1 equ 0E1Dh ;# 
  1959  0E1D                     # 27032 "C:\Program Files (x86)\Microchip\xc8\v2.00\pic\include\pic16f18875.h"
  1960                           CLC2SEL2 equ 0E1Eh ;# 
  1961  0E1E                     # 27160 "C:\Program Files (x86)\Microchip\xc8\v2.00\pic\include\pic16f18875.h"
  1962                           CLC2SEL3 equ 0E1Fh ;# 
  1963  0E1F                     # 27288 "C:\Program Files (x86)\Microchip\xc8\v2.00\pic\include\pic16f18875.h"
  1964                           CLC2GLS0 equ 0E20h ;# 
  1965  0E20                     # 27400 "C:\Program Files (x86)\Microchip\xc8\v2.00\pic\include\pic16f18875.h"
  1966                           CLC2GLS1 equ 0E21h ;# 
  1967  0E21                     # 27512 "C:\Program Files (x86)\Microchip\xc8\v2.00\pic\include\pic16f18875.h"
  1968                           CLC2GLS2 equ 0E22h ;# 
  1969  0E22                     # 27624 "C:\Program Files (x86)\Microchip\xc8\v2.00\pic\include\pic16f18875.h"
  1970                           CLC2GLS3 equ 0E23h ;# 
  1971  0E23                     # 27736 "C:\Program Files (x86)\Microchip\xc8\v2.00\pic\include\pic16f18875.h"
  1972                           CLC3CON equ 0E24h ;# 
  1973  0E24                     # 27854 "C:\Program Files (x86)\Microchip\xc8\v2.00\pic\include\pic16f18875.h"
  1974                           CLC3POL equ 0E25h ;# 
  1975  0E25                     # 27932 "C:\Program Files (x86)\Microchip\xc8\v2.00\pic\include\pic16f18875.h"
  1976                           CLC3SEL0 equ 0E26h ;# 
  1977  0E26                     # 28060 "C:\Program Files (x86)\Microchip\xc8\v2.00\pic\include\pic16f18875.h"
  1978                           CLC3SEL1 equ 0E27h ;# 
  1979  0E27                     # 28188 "C:\Program Files (x86)\Microchip\xc8\v2.00\pic\include\pic16f18875.h"
  1980                           CLC3SEL2 equ 0E28h ;# 
  1981  0E28                     # 28316 "C:\Program Files (x86)\Microchip\xc8\v2.00\pic\include\pic16f18875.h"
  1982                           CLC3SEL3 equ 0E29h ;# 
  1983  0E29                     # 28444 "C:\Program Files (x86)\Microchip\xc8\v2.00\pic\include\pic16f18875.h"
  1984                           CLC3GLS0 equ 0E2Ah ;# 
  1985  0E2A                     # 28556 "C:\Program Files (x86)\Microchip\xc8\v2.00\pic\include\pic16f18875.h"
  1986                           CLC3GLS1 equ 0E2Bh ;# 
  1987  0E2B                     # 28668 "C:\Program Files (x86)\Microchip\xc8\v2.00\pic\include\pic16f18875.h"
  1988                           CLC3GLS2 equ 0E2Ch ;# 
  1989  0E2C                     # 28780 "C:\Program Files (x86)\Microchip\xc8\v2.00\pic\include\pic16f18875.h"
  1990                           CLC3GLS3 equ 0E2Dh ;# 
  1991  0E2D                     # 28892 "C:\Program Files (x86)\Microchip\xc8\v2.00\pic\include\pic16f18875.h"
  1992                           CLC4CON equ 0E2Eh ;# 
  1993  0E2E                     # 29010 "C:\Program Files (x86)\Microchip\xc8\v2.00\pic\include\pic16f18875.h"
  1994                           CLC4POL equ 0E2Fh ;# 
  1995  0E2F                     # 29088 "C:\Program Files (x86)\Microchip\xc8\v2.00\pic\include\pic16f18875.h"
  1996                           CLC4SEL0 equ 0E30h ;# 
  1997  0E30                     # 29216 "C:\Program Files (x86)\Microchip\xc8\v2.00\pic\include\pic16f18875.h"
  1998                           CLC4SEL1 equ 0E31h ;# 
  1999  0E31                     # 29344 "C:\Program Files (x86)\Microchip\xc8\v2.00\pic\include\pic16f18875.h"
  2000                           CLC4SEL2 equ 0E32h ;# 
  2001  0E32                     # 29472 "C:\Program Files (x86)\Microchip\xc8\v2.00\pic\include\pic16f18875.h"
  2002                           CLC4SEL3 equ 0E33h ;# 
  2003  0E33                     # 29600 "C:\Program Files (x86)\Microchip\xc8\v2.00\pic\include\pic16f18875.h"
  2004                           CLC4GLS0 equ 0E34h ;# 
  2005  0E34                     # 29712 "C:\Program Files (x86)\Microchip\xc8\v2.00\pic\include\pic16f18875.h"
  2006                           CLC4GLS1 equ 0E35h ;# 
  2007  0E35                     # 29824 "C:\Program Files (x86)\Microchip\xc8\v2.00\pic\include\pic16f18875.h"
  2008                           CLC4GLS2 equ 0E36h ;# 
  2009  0E36                     # 29936 "C:\Program Files (x86)\Microchip\xc8\v2.00\pic\include\pic16f18875.h"
  2010                           CLC4GLS3 equ 0E37h ;# 
  2011  0E37                     # 30048 "C:\Program Files (x86)\Microchip\xc8\v2.00\pic\include\pic16f18875.h"
  2012                           PPSLOCK equ 0E8Fh ;# 
  2013  0E8F                     # 30068 "C:\Program Files (x86)\Microchip\xc8\v2.00\pic\include\pic16f18875.h"
  2014                           INTPPS equ 0E90h ;# 
  2015  0E90                     # 30114 "C:\Program Files (x86)\Microchip\xc8\v2.00\pic\include\pic16f18875.h"
  2016                           T0CKIPPS equ 0E91h ;# 
  2017  0E91                     # 30160 "C:\Program Files (x86)\Microchip\xc8\v2.00\pic\include\pic16f18875.h"
  2018                           T1CKIPPS equ 0E92h ;# 
  2019  0E92                     # 30212 "C:\Program Files (x86)\Microchip\xc8\v2.00\pic\include\pic16f18875.h"
  2020                           T1GPPS equ 0E93h ;# 
  2021  0E93                     # 30264 "C:\Program Files (x86)\Microchip\xc8\v2.00\pic\include\pic16f18875.h"
  2022                           T3CKIPPS equ 0E94h ;# 
  2023  0E94                     # 30316 "C:\Program Files (x86)\Microchip\xc8\v2.00\pic\include\pic16f18875.h"
  2024                           T3GPPS equ 0E95h ;# 
  2025  0E95                     # 30368 "C:\Program Files (x86)\Microchip\xc8\v2.00\pic\include\pic16f18875.h"
  2026                           T5CKIPPS equ 0E96h ;# 
  2027  0E96                     # 30420 "C:\Program Files (x86)\Microchip\xc8\v2.00\pic\include\pic16f18875.h"
  2028                           T5GPPS equ 0E97h ;# 
  2029  0E97                     # 30472 "C:\Program Files (x86)\Microchip\xc8\v2.00\pic\include\pic16f18875.h"
  2030                           T2AINPPS equ 0E9Ch ;# 
  2031  0E9C                     # 30524 "C:\Program Files (x86)\Microchip\xc8\v2.00\pic\include\pic16f18875.h"
  2032                           T4AINPPS equ 0E9Dh ;# 
  2033  0E9D                     # 30576 "C:\Program Files (x86)\Microchip\xc8\v2.00\pic\include\pic16f18875.h"
  2034                           T6AINPPS equ 0E9Eh ;# 
  2035  0E9E                     # 30628 "C:\Program Files (x86)\Microchip\xc8\v2.00\pic\include\pic16f18875.h"
  2036                           CCP1PPS equ 0EA1h ;# 
  2037  0EA1                     # 30680 "C:\Program Files (x86)\Microchip\xc8\v2.00\pic\include\pic16f18875.h"
  2038                           CCP2PPS equ 0EA2h ;# 
  2039  0EA2                     # 30732 "C:\Program Files (x86)\Microchip\xc8\v2.00\pic\include\pic16f18875.h"
  2040                           CCP3PPS equ 0EA3h ;# 
  2041  0EA3                     # 30784 "C:\Program Files (x86)\Microchip\xc8\v2.00\pic\include\pic16f18875.h"
  2042                           CCP4PPS equ 0EA4h ;# 
  2043  0EA4                     # 30836 "C:\Program Files (x86)\Microchip\xc8\v2.00\pic\include\pic16f18875.h"
  2044                           CCP5PPS equ 0EA5h ;# 
  2045  0EA5                     # 30894 "C:\Program Files (x86)\Microchip\xc8\v2.00\pic\include\pic16f18875.h"
  2046                           SMT1WINPPS equ 0EA9h ;# 
  2047  0EA9                     # 30946 "C:\Program Files (x86)\Microchip\xc8\v2.00\pic\include\pic16f18875.h"
  2048                           SMT1SIGPPS equ 0EAAh ;# 
  2049  0EAA                     # 30998 "C:\Program Files (x86)\Microchip\xc8\v2.00\pic\include\pic16f18875.h"
  2050                           SMT2WINPPS equ 0EABh ;# 
  2051  0EAB                     # 31050 "C:\Program Files (x86)\Microchip\xc8\v2.00\pic\include\pic16f18875.h"
  2052                           SMT2SIGPPS equ 0EACh ;# 
  2053  0EAC                     # 31102 "C:\Program Files (x86)\Microchip\xc8\v2.00\pic\include\pic16f18875.h"
  2054                           CWG1PPS equ 0EB1h ;# 
  2055  0EB1                     # 31154 "C:\Program Files (x86)\Microchip\xc8\v2.00\pic\include\pic16f18875.h"
  2056                           CWG2PPS equ 0EB2h ;# 
  2057  0EB2                     # 31206 "C:\Program Files (x86)\Microchip\xc8\v2.00\pic\include\pic16f18875.h"
  2058                           CWG3PPS equ 0EB3h ;# 
  2059  0EB3                     # 31258 "C:\Program Files (x86)\Microchip\xc8\v2.00\pic\include\pic16f18875.h"
  2060                           MDCARLPPS equ 0EB8h ;# 
  2061  0EB8                     # 31310 "C:\Program Files (x86)\Microchip\xc8\v2.00\pic\include\pic16f18875.h"
  2062                           MDCARHPPS equ 0EB9h ;# 
  2063  0EB9                     # 31362 "C:\Program Files (x86)\Microchip\xc8\v2.00\pic\include\pic16f18875.h"
  2064                           MDSRCPPS equ 0EBAh ;# 
  2065  0EBA                     # 31414 "C:\Program Files (x86)\Microchip\xc8\v2.00\pic\include\pic16f18875.h"
  2066                           CLCIN0PPS equ 0EBBh ;# 
  2067  0EBB                     # 31466 "C:\Program Files (x86)\Microchip\xc8\v2.00\pic\include\pic16f18875.h"
  2068                           CLCIN1PPS equ 0EBCh ;# 
  2069  0EBC                     # 31518 "C:\Program Files (x86)\Microchip\xc8\v2.00\pic\include\pic16f18875.h"
  2070                           CLCIN2PPS equ 0EBDh ;# 
  2071  0EBD                     # 31570 "C:\Program Files (x86)\Microchip\xc8\v2.00\pic\include\pic16f18875.h"
  2072                           CLCIN3PPS equ 0EBEh ;# 
  2073  0EBE                     # 31622 "C:\Program Files (x86)\Microchip\xc8\v2.00\pic\include\pic16f18875.h"
  2074                           ADCACTPPS equ 0EC3h ;# 
  2075  0EC3                     # 31674 "C:\Program Files (x86)\Microchip\xc8\v2.00\pic\include\pic16f18875.h"
  2076                           SSP1CLKPPS equ 0EC5h ;# 
  2077  0EC5                     # 31726 "C:\Program Files (x86)\Microchip\xc8\v2.00\pic\include\pic16f18875.h"
  2078                           SSP1DATPPS equ 0EC6h ;# 
  2079  0EC6                     # 31778 "C:\Program Files (x86)\Microchip\xc8\v2.00\pic\include\pic16f18875.h"
  2080                           SSP1SSPPS equ 0EC7h ;# 
  2081  0EC7                     # 31830 "C:\Program Files (x86)\Microchip\xc8\v2.00\pic\include\pic16f18875.h"
  2082                           SSP2CLKPPS equ 0EC8h ;# 
  2083  0EC8                     # 31882 "C:\Program Files (x86)\Microchip\xc8\v2.00\pic\include\pic16f18875.h"
  2084                           SSP2DATPPS equ 0EC9h ;# 
  2085  0EC9                     # 31934 "C:\Program Files (x86)\Microchip\xc8\v2.00\pic\include\pic16f18875.h"
  2086                           SSP2SSPPS equ 0ECAh ;# 
  2087  0ECA                     # 31986 "C:\Program Files (x86)\Microchip\xc8\v2.00\pic\include\pic16f18875.h"
  2088                           RXPPS equ 0ECBh ;# 
  2089  0ECB                     # 32038 "C:\Program Files (x86)\Microchip\xc8\v2.00\pic\include\pic16f18875.h"
  2090                           TXPPS equ 0ECCh ;# 
  2091  0ECC                     # 32090 "C:\Program Files (x86)\Microchip\xc8\v2.00\pic\include\pic16f18875.h"
  2092                           RA0PPS equ 0F10h ;# 
  2093  0F10                     # 32140 "C:\Program Files (x86)\Microchip\xc8\v2.00\pic\include\pic16f18875.h"
  2094                           RA1PPS equ 0F11h ;# 
  2095  0F11                     # 32190 "C:\Program Files (x86)\Microchip\xc8\v2.00\pic\include\pic16f18875.h"
  2096                           RA2PPS equ 0F12h ;# 
  2097  0F12                     # 32240 "C:\Program Files (x86)\Microchip\xc8\v2.00\pic\include\pic16f18875.h"
  2098                           RA3PPS equ 0F13h ;# 
  2099  0F13                     # 32290 "C:\Program Files (x86)\Microchip\xc8\v2.00\pic\include\pic16f18875.h"
  2100                           RA4PPS equ 0F14h ;# 
  2101  0F14                     # 32340 "C:\Program Files (x86)\Microchip\xc8\v2.00\pic\include\pic16f18875.h"
  2102                           RA5PPS equ 0F15h ;# 
  2103  0F15                     # 32390 "C:\Program Files (x86)\Microchip\xc8\v2.00\pic\include\pic16f18875.h"
  2104                           RA6PPS equ 0F16h ;# 
  2105  0F16                     # 32440 "C:\Program Files (x86)\Microchip\xc8\v2.00\pic\include\pic16f18875.h"
  2106                           RA7PPS equ 0F17h ;# 
  2107  0F17                     # 32490 "C:\Program Files (x86)\Microchip\xc8\v2.00\pic\include\pic16f18875.h"
  2108                           RB0PPS equ 0F18h ;# 
  2109  0F18                     # 32540 "C:\Program Files (x86)\Microchip\xc8\v2.00\pic\include\pic16f18875.h"
  2110                           RB1PPS equ 0F19h ;# 
  2111  0F19                     # 32590 "C:\Program Files (x86)\Microchip\xc8\v2.00\pic\include\pic16f18875.h"
  2112                           RB2PPS equ 0F1Ah ;# 
  2113  0F1A                     # 32640 "C:\Program Files (x86)\Microchip\xc8\v2.00\pic\include\pic16f18875.h"
  2114                           RB3PPS equ 0F1Bh ;# 
  2115  0F1B                     # 32690 "C:\Program Files (x86)\Microchip\xc8\v2.00\pic\include\pic16f18875.h"
  2116                           RB4PPS equ 0F1Ch ;# 
  2117  0F1C                     # 32740 "C:\Program Files (x86)\Microchip\xc8\v2.00\pic\include\pic16f18875.h"
  2118                           RB5PPS equ 0F1Dh ;# 
  2119  0F1D                     # 32790 "C:\Program Files (x86)\Microchip\xc8\v2.00\pic\include\pic16f18875.h"
  2120                           RB6PPS equ 0F1Eh ;# 
  2121  0F1E                     # 32840 "C:\Program Files (x86)\Microchip\xc8\v2.00\pic\include\pic16f18875.h"
  2122                           RB7PPS equ 0F1Fh ;# 
  2123  0F1F                     # 32890 "C:\Program Files (x86)\Microchip\xc8\v2.00\pic\include\pic16f18875.h"
  2124                           RC0PPS equ 0F20h ;# 
  2125  0F20                     # 32940 "C:\Program Files (x86)\Microchip\xc8\v2.00\pic\include\pic16f18875.h"
  2126                           RC1PPS equ 0F21h ;# 
  2127  0F21                     # 32990 "C:\Program Files (x86)\Microchip\xc8\v2.00\pic\include\pic16f18875.h"
  2128                           RC2PPS equ 0F22h ;# 
  2129  0F22                     # 33040 "C:\Program Files (x86)\Microchip\xc8\v2.00\pic\include\pic16f18875.h"
  2130                           RC3PPS equ 0F23h ;# 
  2131  0F23                     # 33090 "C:\Program Files (x86)\Microchip\xc8\v2.00\pic\include\pic16f18875.h"
  2132                           RC4PPS equ 0F24h ;# 
  2133  0F24                     # 33140 "C:\Program Files (x86)\Microchip\xc8\v2.00\pic\include\pic16f18875.h"
  2134                           RC5PPS equ 0F25h ;# 
  2135  0F25                     # 33190 "C:\Program Files (x86)\Microchip\xc8\v2.00\pic\include\pic16f18875.h"
  2136                           RC6PPS equ 0F26h ;# 
  2137  0F26                     # 33240 "C:\Program Files (x86)\Microchip\xc8\v2.00\pic\include\pic16f18875.h"
  2138                           RC7PPS equ 0F27h ;# 
  2139  0F27                     # 33290 "C:\Program Files (x86)\Microchip\xc8\v2.00\pic\include\pic16f18875.h"
  2140                           RD0PPS equ 0F28h ;# 
  2141  0F28                     # 33340 "C:\Program Files (x86)\Microchip\xc8\v2.00\pic\include\pic16f18875.h"
  2142                           RD1PPS equ 0F29h ;# 
  2143  0F29                     # 33390 "C:\Program Files (x86)\Microchip\xc8\v2.00\pic\include\pic16f18875.h"
  2144                           RD2PPS equ 0F2Ah ;# 
  2145  0F2A                     # 33440 "C:\Program Files (x86)\Microchip\xc8\v2.00\pic\include\pic16f18875.h"
  2146                           RD3PPS equ 0F2Bh ;# 
  2147  0F2B                     # 33490 "C:\Program Files (x86)\Microchip\xc8\v2.00\pic\include\pic16f18875.h"
  2148                           RD4PPS equ 0F2Ch ;# 
  2149  0F2C                     # 33540 "C:\Program Files (x86)\Microchip\xc8\v2.00\pic\include\pic16f18875.h"
  2150                           RD5PPS equ 0F2Dh ;# 
  2151  0F2D                     # 33590 "C:\Program Files (x86)\Microchip\xc8\v2.00\pic\include\pic16f18875.h"
  2152                           RD6PPS equ 0F2Eh ;# 
  2153  0F2E                     # 33640 "C:\Program Files (x86)\Microchip\xc8\v2.00\pic\include\pic16f18875.h"
  2154                           RD7PPS equ 0F2Fh ;# 
  2155  0F2F                     # 33690 "C:\Program Files (x86)\Microchip\xc8\v2.00\pic\include\pic16f18875.h"
  2156                           RE0PPS equ 0F30h ;# 
  2157  0F30                     # 33740 "C:\Program Files (x86)\Microchip\xc8\v2.00\pic\include\pic16f18875.h"
  2158                           RE1PPS equ 0F31h ;# 
  2159  0F31                     # 33790 "C:\Program Files (x86)\Microchip\xc8\v2.00\pic\include\pic16f18875.h"
  2160                           RE2PPS equ 0F32h ;# 
  2161  0F32                     # 33840 "C:\Program Files (x86)\Microchip\xc8\v2.00\pic\include\pic16f18875.h"
  2162                           ANSELA equ 0F38h ;# 
  2163  0F38                     # 33902 "C:\Program Files (x86)\Microchip\xc8\v2.00\pic\include\pic16f18875.h"
  2164                           WPUA equ 0F39h ;# 
  2165  0F39                     # 33964 "C:\Program Files (x86)\Microchip\xc8\v2.00\pic\include\pic16f18875.h"
  2166                           ODCONA equ 0F3Ah ;# 
  2167  0F3A                     # 34026 "C:\Program Files (x86)\Microchip\xc8\v2.00\pic\include\pic16f18875.h"
  2168                           SLRCONA equ 0F3Bh ;# 
  2169  0F3B                     # 34088 "C:\Program Files (x86)\Microchip\xc8\v2.00\pic\include\pic16f18875.h"
  2170                           INLVLA equ 0F3Ch ;# 
  2171  0F3C                     # 34150 "C:\Program Files (x86)\Microchip\xc8\v2.00\pic\include\pic16f18875.h"
  2172                           IOCAP equ 0F3Dh ;# 
  2173  0F3D                     # 34212 "C:\Program Files (x86)\Microchip\xc8\v2.00\pic\include\pic16f18875.h"
  2174                           IOCAN equ 0F3Eh ;# 
  2175  0F3E                     # 34274 "C:\Program Files (x86)\Microchip\xc8\v2.00\pic\include\pic16f18875.h"
  2176                           IOCAF equ 0F3Fh ;# 
  2177  0F3F                     # 34336 "C:\Program Files (x86)\Microchip\xc8\v2.00\pic\include\pic16f18875.h"
  2178                           CCDNA equ 0F40h ;# 
  2179  0F40                     # 34398 "C:\Program Files (x86)\Microchip\xc8\v2.00\pic\include\pic16f18875.h"
  2180                           CCDPA equ 0F41h ;# 
  2181  0F41                     # 34460 "C:\Program Files (x86)\Microchip\xc8\v2.00\pic\include\pic16f18875.h"
  2182                           ANSELB equ 0F43h ;# 
  2183  0F43                     # 34522 "C:\Program Files (x86)\Microchip\xc8\v2.00\pic\include\pic16f18875.h"
  2184                           WPUB equ 0F44h ;# 
  2185  0F44                     # 34584 "C:\Program Files (x86)\Microchip\xc8\v2.00\pic\include\pic16f18875.h"
  2186                           ODCONB equ 0F45h ;# 
  2187  0F45                     # 34646 "C:\Program Files (x86)\Microchip\xc8\v2.00\pic\include\pic16f18875.h"
  2188                           SLRCONB equ 0F46h ;# 
  2189  0F46                     # 34708 "C:\Program Files (x86)\Microchip\xc8\v2.00\pic\include\pic16f18875.h"
  2190                           INLVLB equ 0F47h ;# 
  2191  0F47                     # 34770 "C:\Program Files (x86)\Microchip\xc8\v2.00\pic\include\pic16f18875.h"
  2192                           IOCBP equ 0F48h ;# 
  2193  0F48                     # 34832 "C:\Program Files (x86)\Microchip\xc8\v2.00\pic\include\pic16f18875.h"
  2194                           IOCBN equ 0F49h ;# 
  2195  0F49                     # 34894 "C:\Program Files (x86)\Microchip\xc8\v2.00\pic\include\pic16f18875.h"
  2196                           IOCBF equ 0F4Ah ;# 
  2197  0F4A                     # 34956 "C:\Program Files (x86)\Microchip\xc8\v2.00\pic\include\pic16f18875.h"
  2198                           CCDNB equ 0F4Bh ;# 
  2199  0F4B                     # 35018 "C:\Program Files (x86)\Microchip\xc8\v2.00\pic\include\pic16f18875.h"
  2200                           CCDPB equ 0F4Ch ;# 
  2201  0F4C                     # 35080 "C:\Program Files (x86)\Microchip\xc8\v2.00\pic\include\pic16f18875.h"
  2202                           ANSELC equ 0F4Eh ;# 
  2203  0F4E                     # 35142 "C:\Program Files (x86)\Microchip\xc8\v2.00\pic\include\pic16f18875.h"
  2204                           WPUC equ 0F4Fh ;# 
  2205  0F4F                     # 35204 "C:\Program Files (x86)\Microchip\xc8\v2.00\pic\include\pic16f18875.h"
  2206                           ODCONC equ 0F50h ;# 
  2207  0F50                     # 35266 "C:\Program Files (x86)\Microchip\xc8\v2.00\pic\include\pic16f18875.h"
  2208                           SLRCONC equ 0F51h ;# 
  2209  0F51                     # 35328 "C:\Program Files (x86)\Microchip\xc8\v2.00\pic\include\pic16f18875.h"
  2210                           INLVLC equ 0F52h ;# 
  2211  0F52                     # 35390 "C:\Program Files (x86)\Microchip\xc8\v2.00\pic\include\pic16f18875.h"
  2212                           IOCCP equ 0F53h ;# 
  2213  0F53                     # 35452 "C:\Program Files (x86)\Microchip\xc8\v2.00\pic\include\pic16f18875.h"
  2214                           IOCCN equ 0F54h ;# 
  2215  0F54                     # 35514 "C:\Program Files (x86)\Microchip\xc8\v2.00\pic\include\pic16f18875.h"
  2216                           IOCCF equ 0F55h ;# 
  2217  0F55                     # 35576 "C:\Program Files (x86)\Microchip\xc8\v2.00\pic\include\pic16f18875.h"
  2218                           CCDNC equ 0F56h ;# 
  2219  0F56                     # 35638 "C:\Program Files (x86)\Microchip\xc8\v2.00\pic\include\pic16f18875.h"
  2220                           CCDPC equ 0F57h ;# 
  2221  0F57                     # 35700 "C:\Program Files (x86)\Microchip\xc8\v2.00\pic\include\pic16f18875.h"
  2222                           ANSELD equ 0F59h ;# 
  2223  0F59                     # 35762 "C:\Program Files (x86)\Microchip\xc8\v2.00\pic\include\pic16f18875.h"
  2224                           WPUD equ 0F5Ah ;# 
  2225  0F5A                     # 35824 "C:\Program Files (x86)\Microchip\xc8\v2.00\pic\include\pic16f18875.h"
  2226                           ODCOND equ 0F5Bh ;# 
  2227  0F5B                     # 35886 "C:\Program Files (x86)\Microchip\xc8\v2.00\pic\include\pic16f18875.h"
  2228                           SLRCOND equ 0F5Ch ;# 
  2229  0F5C                     # 35948 "C:\Program Files (x86)\Microchip\xc8\v2.00\pic\include\pic16f18875.h"
  2230                           INLVLD equ 0F5Dh ;# 
  2231  0F5D                     # 36010 "C:\Program Files (x86)\Microchip\xc8\v2.00\pic\include\pic16f18875.h"
  2232                           CCDND equ 0F61h ;# 
  2233  0F61                     # 36072 "C:\Program Files (x86)\Microchip\xc8\v2.00\pic\include\pic16f18875.h"
  2234                           CCDPD equ 0F62h ;# 
  2235  0F62                     # 36134 "C:\Program Files (x86)\Microchip\xc8\v2.00\pic\include\pic16f18875.h"
  2236                           ANSELE equ 0F64h ;# 
  2237  0F64                     # 36166 "C:\Program Files (x86)\Microchip\xc8\v2.00\pic\include\pic16f18875.h"
  2238                           WPUE equ 0F65h ;# 
  2239  0F65                     # 36204 "C:\Program Files (x86)\Microchip\xc8\v2.00\pic\include\pic16f18875.h"
  2240                           ODCONE equ 0F66h ;# 
  2241  0F66                     # 36236 "C:\Program Files (x86)\Microchip\xc8\v2.00\pic\include\pic16f18875.h"
  2242                           SLRCONE equ 0F67h ;# 
  2243  0F67                     # 36268 "C:\Program Files (x86)\Microchip\xc8\v2.00\pic\include\pic16f18875.h"
  2244                           INLVLE equ 0F68h ;# 
  2245  0F68                     # 36306 "C:\Program Files (x86)\Microchip\xc8\v2.00\pic\include\pic16f18875.h"
  2246                           IOCEP equ 0F69h ;# 
  2247  0F69                     # 36327 "C:\Program Files (x86)\Microchip\xc8\v2.00\pic\include\pic16f18875.h"
  2248                           IOCEN equ 0F6Ah ;# 
  2249  0F6A                     # 36348 "C:\Program Files (x86)\Microchip\xc8\v2.00\pic\include\pic16f18875.h"
  2250                           IOCEF equ 0F6Bh ;# 
  2251  0F6B                     # 36369 "C:\Program Files (x86)\Microchip\xc8\v2.00\pic\include\pic16f18875.h"
  2252                           CCDNE equ 0F6Ch ;# 
  2253  0F6C                     # 36401 "C:\Program Files (x86)\Microchip\xc8\v2.00\pic\include\pic16f18875.h"
  2254                           CCDPE equ 0F6Dh ;# 
  2255  0F6D                     # 36433 "C:\Program Files (x86)\Microchip\xc8\v2.00\pic\include\pic16f18875.h"
  2256                           STATUS_SHAD equ 0FE4h ;# 
  2257  0FE4                     # 36465 "C:\Program Files (x86)\Microchip\xc8\v2.00\pic\include\pic16f18875.h"
  2258                           WREG_SHAD equ 0FE5h ;# 
  2259  0FE5                     # 36485 "C:\Program Files (x86)\Microchip\xc8\v2.00\pic\include\pic16f18875.h"
  2260                           BSR_SHAD equ 0FE6h ;# 
  2261  0FE6                     # 36505 "C:\Program Files (x86)\Microchip\xc8\v2.00\pic\include\pic16f18875.h"
  2262                           PCLATH_SHAD equ 0FE7h ;# 
  2263  0FE7                     # 36525 "C:\Program Files (x86)\Microchip\xc8\v2.00\pic\include\pic16f18875.h"
  2264                           FSR0L_SHAD equ 0FE8h ;# 
  2265  0FE8                     # 36545 "C:\Program Files (x86)\Microchip\xc8\v2.00\pic\include\pic16f18875.h"
  2266                           FSR0H_SHAD equ 0FE9h ;# 
  2267  0FE9                     # 36565 "C:\Program Files (x86)\Microchip\xc8\v2.00\pic\include\pic16f18875.h"
  2268                           FSR1L_SHAD equ 0FEAh ;# 
  2269  0FEA                     # 36585 "C:\Program Files (x86)\Microchip\xc8\v2.00\pic\include\pic16f18875.h"
  2270                           FSR1H_SHAD equ 0FEBh ;# 
  2271  0FEB                     # 36605 "C:\Program Files (x86)\Microchip\xc8\v2.00\pic\include\pic16f18875.h"
  2272                           STKPTR equ 0FEDh ;# 
  2273  0FED                     # 36625 "C:\Program Files (x86)\Microchip\xc8\v2.00\pic\include\pic16f18875.h"
  2274                           TOSL equ 0FEEh ;# 
  2275  0FEE                     # 36645 "C:\Program Files (x86)\Microchip\xc8\v2.00\pic\include\pic16f18875.h"
  2276                           TOSH equ 0FEFh ;# 
  2277  0FEF                     # 54 "C:\Program Files (x86)\Microchip\xc8\v2.00\pic\include\pic16f18875.h"
  2278                           INDF0 equ 00h ;# 
  2279  0000                     # 74 "C:\Program Files (x86)\Microchip\xc8\v2.00\pic\include\pic16f18875.h"
  2280                           INDF1 equ 01h ;# 
  2281  0001                     # 94 "C:\Program Files (x86)\Microchip\xc8\v2.00\pic\include\pic16f18875.h"
  2282                           PCL equ 02h ;# 
  2283  0002                     # 114 "C:\Program Files (x86)\Microchip\xc8\v2.00\pic\include\pic16f18875.h"
  2284                           STATUS equ 03h ;# 
  2285  0003                     # 177 "C:\Program Files (x86)\Microchip\xc8\v2.00\pic\include\pic16f18875.h"
  2286                           FSR0L equ 04h ;# 
  2287  0004                     # 197 "C:\Program Files (x86)\Microchip\xc8\v2.00\pic\include\pic16f18875.h"
  2288                           FSR0H equ 05h ;# 
  2289  0005                     # 221 "C:\Program Files (x86)\Microchip\xc8\v2.00\pic\include\pic16f18875.h"
  2290                           FSR1L equ 06h ;# 
  2291  0006                     # 241 "C:\Program Files (x86)\Microchip\xc8\v2.00\pic\include\pic16f18875.h"
  2292                           FSR1H equ 07h ;# 
  2293  0007                     # 261 "C:\Program Files (x86)\Microchip\xc8\v2.00\pic\include\pic16f18875.h"
  2294                           BSR equ 08h ;# 
  2295  0008                     # 313 "C:\Program Files (x86)\Microchip\xc8\v2.00\pic\include\pic16f18875.h"
  2296                           WREG equ 09h ;# 
  2297  0009                     # 333 "C:\Program Files (x86)\Microchip\xc8\v2.00\pic\include\pic16f18875.h"
  2298                           PCLATH equ 0Ah ;# 
  2299  000A                     # 353 "C:\Program Files (x86)\Microchip\xc8\v2.00\pic\include\pic16f18875.h"
  2300                           INTCON equ 0Bh ;# 
  2301  000B                     # 386 "C:\Program Files (x86)\Microchip\xc8\v2.00\pic\include\pic16f18875.h"
  2302                           PORTA equ 0Ch ;# 
  2303  000C                     # 448 "C:\Program Files (x86)\Microchip\xc8\v2.00\pic\include\pic16f18875.h"
  2304                           PORTB equ 0Dh ;# 
  2305  000D                     # 510 "C:\Program Files (x86)\Microchip\xc8\v2.00\pic\include\pic16f18875.h"
  2306                           PORTC equ 0Eh ;# 
  2307  000E                     # 572 "C:\Program Files (x86)\Microchip\xc8\v2.00\pic\include\pic16f18875.h"
  2308                           PORTD equ 0Fh ;# 
  2309  000F                     # 634 "C:\Program Files (x86)\Microchip\xc8\v2.00\pic\include\pic16f18875.h"
  2310                           PORTE equ 010h ;# 
  2311  0010                     # 672 "C:\Program Files (x86)\Microchip\xc8\v2.00\pic\include\pic16f18875.h"
  2312                           TRISA equ 011h ;# 
  2313  0011                     # 734 "C:\Program Files (x86)\Microchip\xc8\v2.00\pic\include\pic16f18875.h"
  2314                           TRISB equ 012h ;# 
  2315  0012                     # 796 "C:\Program Files (x86)\Microchip\xc8\v2.00\pic\include\pic16f18875.h"
  2316                           TRISC equ 013h ;# 
  2317  0013                     # 858 "C:\Program Files (x86)\Microchip\xc8\v2.00\pic\include\pic16f18875.h"
  2318                           TRISD equ 014h ;# 
  2319  0014                     # 920 "C:\Program Files (x86)\Microchip\xc8\v2.00\pic\include\pic16f18875.h"
  2320                           TRISE equ 015h ;# 
  2321  0015                     # 952 "C:\Program Files (x86)\Microchip\xc8\v2.00\pic\include\pic16f18875.h"
  2322                           LATA equ 016h ;# 
  2323  0016                     # 1014 "C:\Program Files (x86)\Microchip\xc8\v2.00\pic\include\pic16f18875.h"
  2324                           LATB equ 017h ;# 
  2325  0017                     # 1076 "C:\Program Files (x86)\Microchip\xc8\v2.00\pic\include\pic16f18875.h"
  2326                           LATC equ 018h ;# 
  2327  0018                     # 1138 "C:\Program Files (x86)\Microchip\xc8\v2.00\pic\include\pic16f18875.h"
  2328                           LATD equ 019h ;# 
  2329  0019                     # 1200 "C:\Program Files (x86)\Microchip\xc8\v2.00\pic\include\pic16f18875.h"
  2330                           LATE equ 01Ah ;# 
  2331  001A                     # 1232 "C:\Program Files (x86)\Microchip\xc8\v2.00\pic\include\pic16f18875.h"
  2332                           TMR0L equ 01Ch ;# 
  2333  001C                     # 1237 "C:\Program Files (x86)\Microchip\xc8\v2.00\pic\include\pic16f18875.h"
  2334                           TMR0 equ 01Ch ;# 
  2335  001C                     # 1370 "C:\Program Files (x86)\Microchip\xc8\v2.00\pic\include\pic16f18875.h"
  2336                           TMR0H equ 01Dh ;# 
  2337  001D                     # 1375 "C:\Program Files (x86)\Microchip\xc8\v2.00\pic\include\pic16f18875.h"
  2338                           PR0 equ 01Dh ;# 
  2339  001D                     # 1624 "C:\Program Files (x86)\Microchip\xc8\v2.00\pic\include\pic16f18875.h"
  2340                           T0CON0 equ 01Eh ;# 
  2341  001E                     # 1689 "C:\Program Files (x86)\Microchip\xc8\v2.00\pic\include\pic16f18875.h"
  2342                           T0CON1 equ 01Fh ;# 
  2343  001F                     # 1800 "C:\Program Files (x86)\Microchip\xc8\v2.00\pic\include\pic16f18875.h"
  2344                           ADRES equ 08Ch ;# 
  2345  008C                     # 1807 "C:\Program Files (x86)\Microchip\xc8\v2.00\pic\include\pic16f18875.h"
  2346                           ADRESL equ 08Ch ;# 
  2347  008C                     # 1827 "C:\Program Files (x86)\Microchip\xc8\v2.00\pic\include\pic16f18875.h"
  2348                           ADRESH equ 08Dh ;# 
  2349  008D                     # 1834 "C:\Program Files (x86)\Microchip\xc8\v2.00\pic\include\pic16f18875.h"
  2350                           ADPREV equ 08Eh ;# 
  2351  008E                     # 1841 "C:\Program Files (x86)\Microchip\xc8\v2.00\pic\include\pic16f18875.h"
  2352                           ADPREVL equ 08Eh ;# 
  2353  008E                     # 1911 "C:\Program Files (x86)\Microchip\xc8\v2.00\pic\include\pic16f18875.h"
  2354                           ADPREVH equ 08Fh ;# 
  2355  008F                     # 1981 "C:\Program Files (x86)\Microchip\xc8\v2.00\pic\include\pic16f18875.h"
  2356                           ADACC equ 090h ;# 
  2357  0090                     # 1988 "C:\Program Files (x86)\Microchip\xc8\v2.00\pic\include\pic16f18875.h"
  2358                           ADACCL equ 090h ;# 
  2359  0090                     # 2058 "C:\Program Files (x86)\Microchip\xc8\v2.00\pic\include\pic16f18875.h"
  2360                           ADACCH equ 091h ;# 
  2361  0091                     # 2128 "C:\Program Files (x86)\Microchip\xc8\v2.00\pic\include\pic16f18875.h"
  2362                           ADCON0 equ 093h ;# 
  2363  0093                     # 2239 "C:\Program Files (x86)\Microchip\xc8\v2.00\pic\include\pic16f18875.h"
  2364                           ADCON1 equ 094h ;# 
  2365  0094                     # 2278 "C:\Program Files (x86)\Microchip\xc8\v2.00\pic\include\pic16f18875.h"
  2366                           ADCON2 equ 095h ;# 
  2367  0095                     # 2355 "C:\Program Files (x86)\Microchip\xc8\v2.00\pic\include\pic16f18875.h"
  2368                           ADCON3 equ 096h ;# 
  2369  0096                     # 2426 "C:\Program Files (x86)\Microchip\xc8\v2.00\pic\include\pic16f18875.h"
  2370                           ADSTAT equ 097h ;# 
  2371  0097                     # 2496 "C:\Program Files (x86)\Microchip\xc8\v2.00\pic\include\pic16f18875.h"
  2372                           ADCLK equ 098h ;# 
  2373  0098                     # 2554 "C:\Program Files (x86)\Microchip\xc8\v2.00\pic\include\pic16f18875.h"
  2374                           ADACT equ 099h ;# 
  2375  0099                     # 2606 "C:\Program Files (x86)\Microchip\xc8\v2.00\pic\include\pic16f18875.h"
  2376                           ADREF equ 09Ah ;# 
  2377  009A                     # 2647 "C:\Program Files (x86)\Microchip\xc8\v2.00\pic\include\pic16f18875.h"
  2378                           ADCAP equ 09Bh ;# 
  2379  009B                     # 2699 "C:\Program Files (x86)\Microchip\xc8\v2.00\pic\include\pic16f18875.h"
  2380                           ADPRE equ 09Ch ;# 
  2381  009C                     # 2769 "C:\Program Files (x86)\Microchip\xc8\v2.00\pic\include\pic16f18875.h"
  2382                           ADACQ equ 09Dh ;# 
  2383  009D                     # 2839 "C:\Program Files (x86)\Microchip\xc8\v2.00\pic\include\pic16f18875.h"
  2384                           ADPCH equ 09Eh ;# 
  2385  009E                     # 2897 "C:\Program Files (x86)\Microchip\xc8\v2.00\pic\include\pic16f18875.h"
  2386                           ADCNT equ 010Ch ;# 
  2387  010C                     # 2967 "C:\Program Files (x86)\Microchip\xc8\v2.00\pic\include\pic16f18875.h"
  2388                           ADRPT equ 010Dh ;# 
  2389  010D                     # 3037 "C:\Program Files (x86)\Microchip\xc8\v2.00\pic\include\pic16f18875.h"
  2390                           ADLTH equ 010Eh ;# 
  2391  010E                     # 3044 "C:\Program Files (x86)\Microchip\xc8\v2.00\pic\include\pic16f18875.h"
  2392                           ADLTHL equ 010Eh ;# 
  2393  010E                     # 3114 "C:\Program Files (x86)\Microchip\xc8\v2.00\pic\include\pic16f18875.h"
  2394                           ADLTHH equ 010Fh ;# 
  2395  010F                     # 3184 "C:\Program Files (x86)\Microchip\xc8\v2.00\pic\include\pic16f18875.h"
  2396                           ADUTH equ 0110h ;# 
  2397  0110                     # 3191 "C:\Program Files (x86)\Microchip\xc8\v2.00\pic\include\pic16f18875.h"
  2398                           ADUTHL equ 0110h ;# 
  2399  0110                     # 3261 "C:\Program Files (x86)\Microchip\xc8\v2.00\pic\include\pic16f18875.h"
  2400                           ADUTHH equ 0111h ;# 
  2401  0111                     # 3331 "C:\Program Files (x86)\Microchip\xc8\v2.00\pic\include\pic16f18875.h"
  2402                           ADSTPT equ 0112h ;# 
  2403  0112                     # 3338 "C:\Program Files (x86)\Microchip\xc8\v2.00\pic\include\pic16f18875.h"
